{
	"TicketBooking.sol": {
		"TicketBooking": {
			"abi": [
				{
					"anonymous": false,
					"inputs": [
						{
							"indexed": false,
							"internalType": "uint256",
							"name": "reservationID",
							"type": "uint256"
						},
						{
							"indexed": false,
							"internalType": "uint256",
							"name": "eventId",
							"type": "uint256"
						},
						{
							"indexed": false,
							"internalType": "address",
							"name": "user",
							"type": "address"
						},
						{
							"indexed": false,
							"internalType": "uint256",
							"name": "numberOfTickets",
							"type": "uint256"
						}
					],
					"name": "ReservationMade",
					"type": "event"
				},
				{
					"inputs": [
						{
							"internalType": "uint256",
							"name": "eventId",
							"type": "uint256"
						},
						{
							"internalType": "uint256",
							"name": "numberOfTickets",
							"type": "uint256"
						}
					],
					"name": "makeReservation",
					"outputs": [],
					"stateMutability": "nonpayable",
					"type": "function"
				},
				{
					"inputs": [
						{
							"internalType": "uint256",
							"name": "",
							"type": "uint256"
						}
					],
					"name": "reservations",
					"outputs": [
						{
							"internalType": "uint256",
							"name": "eventId",
							"type": "uint256"
						},
						{
							"internalType": "address",
							"name": "user",
							"type": "address"
						},
						{
							"internalType": "uint256",
							"name": "nmberOfTickets",
							"type": "uint256"
						},
						{
							"internalType": "bool",
							"name": "paid",
							"type": "bool"
						}
					],
					"stateMutability": "view",
					"type": "function"
				}
			],
			"devdoc": {
				"kind": "dev",
				"methods": {},
				"version": 1
			},
			"evm": {
				"assembly": "    /* \"TicketBooking.sol\":28:848  contract TicketBooking {... */\n  mstore(0x40, 0x80)\n  callvalue\n  dup1\n  iszero\n  tag_1\n  jumpi\n  0x00\n  dup1\n  revert\ntag_1:\n  pop\n  dataSize(sub_0)\n  dup1\n  dataOffset(sub_0)\n  0x00\n  codecopy\n  0x00\n  return\nstop\n\nsub_0: assembly {\n        /* \"TicketBooking.sol\":28:848  contract TicketBooking {... */\n      mstore(0x40, 0x80)\n      callvalue\n      dup1\n      iszero\n      tag_1\n      jumpi\n      0x00\n      dup1\n      revert\n    tag_1:\n      pop\n      jumpi(tag_2, lt(calldatasize, 0x04))\n      shr(0xe0, calldataload(0x00))\n      dup1\n      0x067cf832\n      eq\n      tag_3\n      jumpi\n      dup1\n      0xb37a87eb\n      eq\n      tag_4\n      jumpi\n    tag_2:\n      0x00\n      dup1\n      revert\n        /* \"TicketBooking.sol\":447:495  mapping(uint => Reservation) public reservations */\n    tag_3:\n      tag_5\n      0x04\n      dup1\n      calldatasize\n      sub\n      dup2\n      add\n      swap1\n      tag_6\n      swap2\n      swap1\n      tag_7\n      jump\t// in\n    tag_6:\n      tag_8\n      jump\t// in\n    tag_5:\n      mload(0x40)\n      tag_9\n      swap5\n      swap4\n      swap3\n      swap2\n      swap1\n      tag_10\n      jump\t// in\n    tag_9:\n      mload(0x40)\n      dup1\n      swap2\n      sub\n      swap1\n      return\n        /* \"TicketBooking.sol\":752:845  function makeReservation(uint eventId, uint numberOfTickets) external... */\n    tag_4:\n      tag_11\n      0x04\n      dup1\n      calldatasize\n      sub\n      dup2\n      add\n      swap1\n      tag_12\n      swap2\n      swap1\n      tag_13\n      jump\t// in\n    tag_12:\n      tag_14\n      jump\t// in\n    tag_11:\n      stop\n        /* \"TicketBooking.sol\":447:495  mapping(uint => Reservation) public reservations */\n    tag_8:\n      mstore(0x20, 0x00)\n      dup1\n      0x00\n      mstore\n      keccak256(0x00, 0x40)\n      0x00\n      swap2\n      pop\n      swap1\n      pop\n      dup1\n      0x00\n      add\n      sload\n      swap1\n      dup1\n      0x01\n      add\n      0x00\n      swap1\n      sload\n      swap1\n      0x0100\n      exp\n      swap1\n      div\n      0xffffffffffffffffffffffffffffffffffffffff\n      and\n      swap1\n      dup1\n      0x02\n      add\n      sload\n      swap1\n      dup1\n      0x03\n      add\n      0x00\n      swap1\n      sload\n      swap1\n      0x0100\n      exp\n      swap1\n      div\n      0xff\n      and\n      swap1\n      pop\n      dup5\n      jump\t// out\n        /* \"TicketBooking.sol\":752:845  function makeReservation(uint eventId, uint numberOfTickets) external... */\n    tag_14:\n      pop\n      pop\n      jump\t// out\n        /* \"#utility.yul\":88:205   */\n    tag_17:\n        /* \"#utility.yul\":197:198   */\n      0x00\n        /* \"#utility.yul\":194:195   */\n      dup1\n        /* \"#utility.yul\":187:199   */\n      revert\n        /* \"#utility.yul\":334:411   */\n    tag_19:\n        /* \"#utility.yul\":371:378   */\n      0x00\n        /* \"#utility.yul\":400:405   */\n      dup2\n        /* \"#utility.yul\":389:405   */\n      swap1\n      pop\n        /* \"#utility.yul\":334:411   */\n      swap2\n      swap1\n      pop\n      jump\t// out\n        /* \"#utility.yul\":417:539   */\n    tag_20:\n        /* \"#utility.yul\":490:514   */\n      tag_34\n        /* \"#utility.yul\":508:513   */\n      dup2\n        /* \"#utility.yul\":490:514   */\n      tag_19\n      jump\t// in\n    tag_34:\n        /* \"#utility.yul\":483:488   */\n      dup2\n        /* \"#utility.yul\":480:515   */\n      eq\n        /* \"#utility.yul\":470:533   */\n      tag_35\n      jumpi\n        /* \"#utility.yul\":529:530   */\n      0x00\n        /* \"#utility.yul\":526:527   */\n      dup1\n        /* \"#utility.yul\":519:531   */\n      revert\n        /* \"#utility.yul\":470:533   */\n    tag_35:\n        /* \"#utility.yul\":417:539   */\n      pop\n      jump\t// out\n        /* \"#utility.yul\":545:684   */\n    tag_21:\n        /* \"#utility.yul\":591:596   */\n      0x00\n        /* \"#utility.yul\":629:635   */\n      dup2\n        /* \"#utility.yul\":616:636   */\n      calldataload\n        /* \"#utility.yul\":607:636   */\n      swap1\n      pop\n        /* \"#utility.yul\":645:678   */\n      tag_37\n        /* \"#utility.yul\":672:677   */\n      dup2\n        /* \"#utility.yul\":645:678   */\n      tag_20\n      jump\t// in\n    tag_37:\n        /* \"#utility.yul\":545:684   */\n      swap3\n      swap2\n      pop\n      pop\n      jump\t// out\n        /* \"#utility.yul\":690:1019   */\n    tag_7:\n        /* \"#utility.yul\":749:755   */\n      0x00\n        /* \"#utility.yul\":798:800   */\n      0x20\n        /* \"#utility.yul\":786:795   */\n      dup3\n        /* \"#utility.yul\":777:784   */\n      dup5\n        /* \"#utility.yul\":773:796   */\n      sub\n        /* \"#utility.yul\":769:801   */\n      slt\n        /* \"#utility.yul\":766:885   */\n      iszero\n      tag_39\n      jumpi\n        /* \"#utility.yul\":804:883   */\n      tag_40\n      tag_17\n      jump\t// in\n    tag_40:\n        /* \"#utility.yul\":766:885   */\n    tag_39:\n        /* \"#utility.yul\":924:925   */\n      0x00\n        /* \"#utility.yul\":949:1002   */\n      tag_41\n        /* \"#utility.yul\":994:1001   */\n      dup5\n        /* \"#utility.yul\":985:991   */\n      dup3\n        /* \"#utility.yul\":974:983   */\n      dup6\n        /* \"#utility.yul\":970:992   */\n      add\n        /* \"#utility.yul\":949:1002   */\n      tag_21\n      jump\t// in\n    tag_41:\n        /* \"#utility.yul\":939:1002   */\n      swap2\n      pop\n        /* \"#utility.yul\":895:1012   */\n      pop\n        /* \"#utility.yul\":690:1019   */\n      swap3\n      swap2\n      pop\n      pop\n      jump\t// out\n        /* \"#utility.yul\":1025:1143   */\n    tag_22:\n        /* \"#utility.yul\":1112:1136   */\n      tag_43\n        /* \"#utility.yul\":1130:1135   */\n      dup2\n        /* \"#utility.yul\":1112:1136   */\n      tag_19\n      jump\t// in\n    tag_43:\n        /* \"#utility.yul\":1107:1110   */\n      dup3\n        /* \"#utility.yul\":1100:1137   */\n      mstore\n        /* \"#utility.yul\":1025:1143   */\n      pop\n      pop\n      jump\t// out\n        /* \"#utility.yul\":1149:1275   */\n    tag_23:\n        /* \"#utility.yul\":1186:1193   */\n      0x00\n        /* \"#utility.yul\":1226:1268   */\n      0xffffffffffffffffffffffffffffffffffffffff\n        /* \"#utility.yul\":1219:1224   */\n      dup3\n        /* \"#utility.yul\":1215:1269   */\n      and\n        /* \"#utility.yul\":1204:1269   */\n      swap1\n      pop\n        /* \"#utility.yul\":1149:1275   */\n      swap2\n      swap1\n      pop\n      jump\t// out\n        /* \"#utility.yul\":1281:1377   */\n    tag_24:\n        /* \"#utility.yul\":1318:1325   */\n      0x00\n        /* \"#utility.yul\":1347:1371   */\n      tag_46\n        /* \"#utility.yul\":1365:1370   */\n      dup3\n        /* \"#utility.yul\":1347:1371   */\n      tag_23\n      jump\t// in\n    tag_46:\n        /* \"#utility.yul\":1336:1371   */\n      swap1\n      pop\n        /* \"#utility.yul\":1281:1377   */\n      swap2\n      swap1\n      pop\n      jump\t// out\n        /* \"#utility.yul\":1383:1501   */\n    tag_25:\n        /* \"#utility.yul\":1470:1494   */\n      tag_48\n        /* \"#utility.yul\":1488:1493   */\n      dup2\n        /* \"#utility.yul\":1470:1494   */\n      tag_24\n      jump\t// in\n    tag_48:\n        /* \"#utility.yul\":1465:1468   */\n      dup3\n        /* \"#utility.yul\":1458:1495   */\n      mstore\n        /* \"#utility.yul\":1383:1501   */\n      pop\n      pop\n      jump\t// out\n        /* \"#utility.yul\":1507:1597   */\n    tag_26:\n        /* \"#utility.yul\":1541:1548   */\n      0x00\n        /* \"#utility.yul\":1584:1589   */\n      dup2\n        /* \"#utility.yul\":1577:1590   */\n      iszero\n        /* \"#utility.yul\":1570:1591   */\n      iszero\n        /* \"#utility.yul\":1559:1591   */\n      swap1\n      pop\n        /* \"#utility.yul\":1507:1597   */\n      swap2\n      swap1\n      pop\n      jump\t// out\n        /* \"#utility.yul\":1603:1712   */\n    tag_27:\n        /* \"#utility.yul\":1684:1705   */\n      tag_51\n        /* \"#utility.yul\":1699:1704   */\n      dup2\n        /* \"#utility.yul\":1684:1705   */\n      tag_26\n      jump\t// in\n    tag_51:\n        /* \"#utility.yul\":1679:1682   */\n      dup3\n        /* \"#utility.yul\":1672:1706   */\n      mstore\n        /* \"#utility.yul\":1603:1712   */\n      pop\n      pop\n      jump\t// out\n        /* \"#utility.yul\":1718:2259   */\n    tag_10:\n        /* \"#utility.yul\":1889:1893   */\n      0x00\n        /* \"#utility.yul\":1927:1930   */\n      0x80\n        /* \"#utility.yul\":1916:1925   */\n      dup3\n        /* \"#utility.yul\":1912:1931   */\n      add\n        /* \"#utility.yul\":1904:1931   */\n      swap1\n      pop\n        /* \"#utility.yul\":1941:2012   */\n      tag_53\n        /* \"#utility.yul\":2009:2010   */\n      0x00\n        /* \"#utility.yul\":1998:2007   */\n      dup4\n        /* \"#utility.yul\":1994:2011   */\n      add\n        /* \"#utility.yul\":1985:1991   */\n      dup8\n        /* \"#utility.yul\":1941:2012   */\n      tag_22\n      jump\t// in\n    tag_53:\n        /* \"#utility.yul\":2022:2094   */\n      tag_54\n        /* \"#utility.yul\":2090:2092   */\n      0x20\n        /* \"#utility.yul\":2079:2088   */\n      dup4\n        /* \"#utility.yul\":2075:2093   */\n      add\n        /* \"#utility.yul\":2066:2072   */\n      dup7\n        /* \"#utility.yul\":2022:2094   */\n      tag_25\n      jump\t// in\n    tag_54:\n        /* \"#utility.yul\":2104:2176   */\n      tag_55\n        /* \"#utility.yul\":2172:2174   */\n      0x40\n        /* \"#utility.yul\":2161:2170   */\n      dup4\n        /* \"#utility.yul\":2157:2175   */\n      add\n        /* \"#utility.yul\":2148:2154   */\n      dup6\n        /* \"#utility.yul\":2104:2176   */\n      tag_22\n      jump\t// in\n    tag_55:\n        /* \"#utility.yul\":2186:2252   */\n      tag_56\n        /* \"#utility.yul\":2248:2250   */\n      0x60\n        /* \"#utility.yul\":2237:2246   */\n      dup4\n        /* \"#utility.yul\":2233:2251   */\n      add\n        /* \"#utility.yul\":2224:2230   */\n      dup5\n        /* \"#utility.yul\":2186:2252   */\n      tag_27\n      jump\t// in\n    tag_56:\n        /* \"#utility.yul\":1718:2259   */\n      swap6\n      swap5\n      pop\n      pop\n      pop\n      pop\n      pop\n      jump\t// out\n        /* \"#utility.yul\":2265:2739   */\n    tag_13:\n        /* \"#utility.yul\":2333:2339   */\n      0x00\n        /* \"#utility.yul\":2341:2347   */\n      dup1\n        /* \"#utility.yul\":2390:2392   */\n      0x40\n        /* \"#utility.yul\":2378:2387   */\n      dup4\n        /* \"#utility.yul\":2369:2376   */\n      dup6\n        /* \"#utility.yul\":2365:2388   */\n      sub\n        /* \"#utility.yul\":2361:2393   */\n      slt\n        /* \"#utility.yul\":2358:2477   */\n      iszero\n      tag_58\n      jumpi\n        /* \"#utility.yul\":2396:2475   */\n      tag_59\n      tag_17\n      jump\t// in\n    tag_59:\n        /* \"#utility.yul\":2358:2477   */\n    tag_58:\n        /* \"#utility.yul\":2516:2517   */\n      0x00\n        /* \"#utility.yul\":2541:2594   */\n      tag_60\n        /* \"#utility.yul\":2586:2593   */\n      dup6\n        /* \"#utility.yul\":2577:2583   */\n      dup3\n        /* \"#utility.yul\":2566:2575   */\n      dup7\n        /* \"#utility.yul\":2562:2584   */\n      add\n        /* \"#utility.yul\":2541:2594   */\n      tag_21\n      jump\t// in\n    tag_60:\n        /* \"#utility.yul\":2531:2594   */\n      swap3\n      pop\n        /* \"#utility.yul\":2487:2604   */\n      pop\n        /* \"#utility.yul\":2643:2645   */\n      0x20\n        /* \"#utility.yul\":2669:2722   */\n      tag_61\n        /* \"#utility.yul\":2714:2721   */\n      dup6\n        /* \"#utility.yul\":2705:2711   */\n      dup3\n        /* \"#utility.yul\":2694:2703   */\n      dup7\n        /* \"#utility.yul\":2690:2712   */\n      add\n        /* \"#utility.yul\":2669:2722   */\n      tag_21\n      jump\t// in\n    tag_61:\n        /* \"#utility.yul\":2659:2722   */\n      swap2\n      pop\n        /* \"#utility.yul\":2614:2732   */\n      pop\n        /* \"#utility.yul\":2265:2739   */\n      swap3\n      pop\n      swap3\n      swap1\n      pop\n      jump\t// out\n\n    auxdata: 0xa2646970667358221220a417e3639e29df6b3fbdeade31676feca2b767c3bf3daecbfe6b1cebf6f4411364736f6c63430008190033\n}\n",
				"bytecode": {
					"linkReferences": {},
					"object": "6080604052348015600e575f80fd5b506102628061001c5f395ff3fe608060405234801561000f575f80fd5b5060043610610034575f3560e01c8063067cf83214610038578063b37a87eb1461006b575b5f80fd5b610052600480360381019061004d9190610118565b610087565b60405161006294939291906101ab565b60405180910390f35b610085600480360381019061008091906101ee565b6100dd565b005b5f602052805f5260405f205f91509050805f015490806001015f9054906101000a900473ffffffffffffffffffffffffffffffffffffffff1690806002015490806003015f9054906101000a900460ff16905084565b5050565b5f80fd5b5f819050919050565b6100f7816100e5565b8114610101575f80fd5b50565b5f81359050610112816100ee565b92915050565b5f6020828403121561012d5761012c6100e1565b5b5f61013a84828501610104565b91505092915050565b61014c816100e5565b82525050565b5f73ffffffffffffffffffffffffffffffffffffffff82169050919050565b5f61017b82610152565b9050919050565b61018b81610171565b82525050565b5f8115159050919050565b6101a581610191565b82525050565b5f6080820190506101be5f830187610143565b6101cb6020830186610182565b6101d86040830185610143565b6101e5606083018461019c565b95945050505050565b5f8060408385031215610204576102036100e1565b5b5f61021185828601610104565b925050602061022285828601610104565b915050925092905056fea2646970667358221220a417e3639e29df6b3fbdeade31676feca2b767c3bf3daecbfe6b1cebf6f4411364736f6c63430008190033",
					"opcodes": "PUSH1 0x80 PUSH1 0x40 MSTORE CALLVALUE DUP1 ISZERO PUSH1 0xE JUMPI PUSH0 DUP1 REVERT JUMPDEST POP PUSH2 0x262 DUP1 PUSH2 0x1C PUSH0 CODECOPY PUSH0 RETURN INVALID PUSH1 0x80 PUSH1 0x40 MSTORE CALLVALUE DUP1 ISZERO PUSH2 0xF JUMPI PUSH0 DUP1 REVERT JUMPDEST POP PUSH1 0x4 CALLDATASIZE LT PUSH2 0x34 JUMPI PUSH0 CALLDATALOAD PUSH1 0xE0 SHR DUP1 PUSH4 0x67CF832 EQ PUSH2 0x38 JUMPI DUP1 PUSH4 0xB37A87EB EQ PUSH2 0x6B JUMPI JUMPDEST PUSH0 DUP1 REVERT JUMPDEST PUSH2 0x52 PUSH1 0x4 DUP1 CALLDATASIZE SUB DUP2 ADD SWAP1 PUSH2 0x4D SWAP2 SWAP1 PUSH2 0x118 JUMP JUMPDEST PUSH2 0x87 JUMP JUMPDEST PUSH1 0x40 MLOAD PUSH2 0x62 SWAP5 SWAP4 SWAP3 SWAP2 SWAP1 PUSH2 0x1AB JUMP JUMPDEST PUSH1 0x40 MLOAD DUP1 SWAP2 SUB SWAP1 RETURN JUMPDEST PUSH2 0x85 PUSH1 0x4 DUP1 CALLDATASIZE SUB DUP2 ADD SWAP1 PUSH2 0x80 SWAP2 SWAP1 PUSH2 0x1EE JUMP JUMPDEST PUSH2 0xDD JUMP JUMPDEST STOP JUMPDEST PUSH0 PUSH1 0x20 MSTORE DUP1 PUSH0 MSTORE PUSH1 0x40 PUSH0 KECCAK256 PUSH0 SWAP2 POP SWAP1 POP DUP1 PUSH0 ADD SLOAD SWAP1 DUP1 PUSH1 0x1 ADD PUSH0 SWAP1 SLOAD SWAP1 PUSH2 0x100 EXP SWAP1 DIV PUSH20 0xFFFFFFFFFFFFFFFFFFFFFFFFFFFFFFFFFFFFFFFF AND SWAP1 DUP1 PUSH1 0x2 ADD SLOAD SWAP1 DUP1 PUSH1 0x3 ADD PUSH0 SWAP1 SLOAD SWAP1 PUSH2 0x100 EXP SWAP1 DIV PUSH1 0xFF AND SWAP1 POP DUP5 JUMP JUMPDEST POP POP JUMP JUMPDEST PUSH0 DUP1 REVERT JUMPDEST PUSH0 DUP2 SWAP1 POP SWAP2 SWAP1 POP JUMP JUMPDEST PUSH2 0xF7 DUP2 PUSH2 0xE5 JUMP JUMPDEST DUP2 EQ PUSH2 0x101 JUMPI PUSH0 DUP1 REVERT JUMPDEST POP JUMP JUMPDEST PUSH0 DUP2 CALLDATALOAD SWAP1 POP PUSH2 0x112 DUP2 PUSH2 0xEE JUMP JUMPDEST SWAP3 SWAP2 POP POP JUMP JUMPDEST PUSH0 PUSH1 0x20 DUP3 DUP5 SUB SLT ISZERO PUSH2 0x12D JUMPI PUSH2 0x12C PUSH2 0xE1 JUMP JUMPDEST JUMPDEST PUSH0 PUSH2 0x13A DUP5 DUP3 DUP6 ADD PUSH2 0x104 JUMP JUMPDEST SWAP2 POP POP SWAP3 SWAP2 POP POP JUMP JUMPDEST PUSH2 0x14C DUP2 PUSH2 0xE5 JUMP JUMPDEST DUP3 MSTORE POP POP JUMP JUMPDEST PUSH0 PUSH20 0xFFFFFFFFFFFFFFFFFFFFFFFFFFFFFFFFFFFFFFFF DUP3 AND SWAP1 POP SWAP2 SWAP1 POP JUMP JUMPDEST PUSH0 PUSH2 0x17B DUP3 PUSH2 0x152 JUMP JUMPDEST SWAP1 POP SWAP2 SWAP1 POP JUMP JUMPDEST PUSH2 0x18B DUP2 PUSH2 0x171 JUMP JUMPDEST DUP3 MSTORE POP POP JUMP JUMPDEST PUSH0 DUP2 ISZERO ISZERO SWAP1 POP SWAP2 SWAP1 POP JUMP JUMPDEST PUSH2 0x1A5 DUP2 PUSH2 0x191 JUMP JUMPDEST DUP3 MSTORE POP POP JUMP JUMPDEST PUSH0 PUSH1 0x80 DUP3 ADD SWAP1 POP PUSH2 0x1BE PUSH0 DUP4 ADD DUP8 PUSH2 0x143 JUMP JUMPDEST PUSH2 0x1CB PUSH1 0x20 DUP4 ADD DUP7 PUSH2 0x182 JUMP JUMPDEST PUSH2 0x1D8 PUSH1 0x40 DUP4 ADD DUP6 PUSH2 0x143 JUMP JUMPDEST PUSH2 0x1E5 PUSH1 0x60 DUP4 ADD DUP5 PUSH2 0x19C JUMP JUMPDEST SWAP6 SWAP5 POP POP POP POP POP JUMP JUMPDEST PUSH0 DUP1 PUSH1 0x40 DUP4 DUP6 SUB SLT ISZERO PUSH2 0x204 JUMPI PUSH2 0x203 PUSH2 0xE1 JUMP JUMPDEST JUMPDEST PUSH0 PUSH2 0x211 DUP6 DUP3 DUP7 ADD PUSH2 0x104 JUMP JUMPDEST SWAP3 POP POP PUSH1 0x20 PUSH2 0x222 DUP6 DUP3 DUP7 ADD PUSH2 0x104 JUMP JUMPDEST SWAP2 POP POP SWAP3 POP SWAP3 SWAP1 POP JUMP INVALID LOG2 PUSH5 0x6970667358 0x22 SLT KECCAK256 LOG4 OR 0xE3 PUSH4 0x9E29DF6B EXTCODEHASH 0xBD 0xEA 0xDE BALANCE PUSH8 0x6FECA2B767C3BF3D 0xAE 0xCB INVALID PUSH12 0x1CEBF6F4411364736F6C6343 STOP ADDMOD NOT STOP CALLER "
				},
				"gasEstimates": {
					"creation": {
						"codeDepositCost": "122000",
						"executionCost": "169",
						"totalCost": "122169"
					},
					"external": {
						"makeReservation(uint256,uint256)": "infinite",
						"reservations(uint256)": "infinite"
					}
				},
				"methodIdentifiers": {
					"makeReservation(uint256,uint256)": "b37a87eb",
					"reservations(uint256)": "067cf832"
				}
			},
			"storageLayout": {
				"storage": [
					{
						"astId": 15,
						"contract": "TicketBooking.sol:TicketBooking",
						"label": "reservations",
						"offset": 0,
						"slot": "0",
						"type": "t_mapping(t_uint256,t_struct(Reservation)10_storage)"
					}
				],
				"types": {
					"t_address": {
						"encoding": "inplace",
						"label": "address",
						"numberOfBytes": "20"
					},
					"t_bool": {
						"encoding": "inplace",
						"label": "bool",
						"numberOfBytes": "1"
					},
					"t_mapping(t_uint256,t_struct(Reservation)10_storage)": {
						"encoding": "mapping",
						"key": "t_uint256",
						"label": "mapping(uint256 => struct TicketBooking.Reservation)",
						"numberOfBytes": "32",
						"value": "t_struct(Reservation)10_storage"
					},
					"t_struct(Reservation)10_storage": {
						"encoding": "inplace",
						"label": "struct TicketBooking.Reservation",
						"members": [
							{
								"astId": 3,
								"contract": "TicketBooking.sol:TicketBooking",
								"label": "eventId",
								"offset": 0,
								"slot": "0",
								"type": "t_uint256"
							},
							{
								"astId": 5,
								"contract": "TicketBooking.sol:TicketBooking",
								"label": "user",
								"offset": 0,
								"slot": "1",
								"type": "t_address"
							},
							{
								"astId": 7,
								"contract": "TicketBooking.sol:TicketBooking",
								"label": "nmberOfTickets",
								"offset": 0,
								"slot": "2",
								"type": "t_uint256"
							},
							{
								"astId": 9,
								"contract": "TicketBooking.sol:TicketBooking",
								"label": "paid",
								"offset": 0,
								"slot": "3",
								"type": "t_bool"
							}
						],
						"numberOfBytes": "128"
					},
					"t_uint256": {
						"encoding": "inplace",
						"label": "uint256",
						"numberOfBytes": "32"
					}
				}
			},
			"userdoc": {
				"kind": "user",
				"methods": {},
				"version": 1
			}
		}
	}
}