{
	"contracts/Event.sol": {
		"EventManager": {
			"abi": [
				{
					"inputs": [
						{
							"internalType": "uint256",
							"name": "_eventId",
							"type": "uint256"
						},
						{
							"internalType": "string",
							"name": "_eventName",
							"type": "string"
						},
						{
							"internalType": "uint256",
							"name": "_totalTickets",
							"type": "uint256"
						},
						{
							"internalType": "uint256",
							"name": "_price",
							"type": "uint256"
						}
					],
					"stateMutability": "nonpayable",
					"type": "constructor"
				},
				{
					"anonymous": false,
					"inputs": [
						{
							"indexed": true,
							"internalType": "uint256",
							"name": "eventId",
							"type": "uint256"
						},
						{
							"indexed": false,
							"internalType": "uint256",
							"name": "quantity",
							"type": "uint256"
						}
					],
					"name": "TicketsSold",
					"type": "event"
				},
				{
					"inputs": [
						{
							"internalType": "uint256",
							"name": "_quantity",
							"type": "uint256"
						},
						{
							"internalType": "uint256",
							"name": "_price",
							"type": "uint256"
						}
					],
					"name": "calculateTotalPrice",
					"outputs": [
						{
							"internalType": "uint256",
							"name": "",
							"type": "uint256"
						}
					],
					"stateMutability": "pure",
					"type": "function"
				},
				{
					"inputs": [],
					"name": "eventId",
					"outputs": [
						{
							"internalType": "uint256",
							"name": "",
							"type": "uint256"
						}
					],
					"stateMutability": "view",
					"type": "function"
				},
				{
					"inputs": [],
					"name": "eventName",
					"outputs": [
						{
							"internalType": "string",
							"name": "",
							"type": "string"
						}
					],
					"stateMutability": "view",
					"type": "function"
				},
				{
					"inputs": [],
					"name": "getAvailableTickets",
					"outputs": [
						{
							"internalType": "uint256",
							"name": "",
							"type": "uint256"
						}
					],
					"stateMutability": "view",
					"type": "function"
				},
				{
					"inputs": [
						{
							"internalType": "uint256",
							"name": "_ticketIndex",
							"type": "uint256"
						}
					],
					"name": "getTicketOwner",
					"outputs": [
						{
							"internalType": "address",
							"name": "",
							"type": "address"
						}
					],
					"stateMutability": "view",
					"type": "function"
				},
				{
					"inputs": [],
					"name": "organizer",
					"outputs": [
						{
							"internalType": "address",
							"name": "",
							"type": "address"
						}
					],
					"stateMutability": "view",
					"type": "function"
				},
				{
					"inputs": [],
					"name": "price",
					"outputs": [
						{
							"internalType": "uint256",
							"name": "",
							"type": "uint256"
						}
					],
					"stateMutability": "view",
					"type": "function"
				},
				{
					"inputs": [
						{
							"internalType": "uint256",
							"name": "_quantity",
							"type": "uint256"
						}
					],
					"name": "sellTickets",
					"outputs": [],
					"stateMutability": "payable",
					"type": "function"
				},
				{
					"inputs": [
						{
							"internalType": "uint256",
							"name": "",
							"type": "uint256"
						}
					],
					"name": "tickets",
					"outputs": [
						{
							"internalType": "contract Ticket",
							"name": "",
							"type": "address"
						}
					],
					"stateMutability": "view",
					"type": "function"
				},
				{
					"inputs": [],
					"name": "ticketsSold",
					"outputs": [
						{
							"internalType": "uint256",
							"name": "",
							"type": "uint256"
						}
					],
					"stateMutability": "view",
					"type": "function"
				},
				{
					"inputs": [],
					"name": "totalTickets",
					"outputs": [
						{
							"internalType": "uint256",
							"name": "",
							"type": "uint256"
						}
					],
					"stateMutability": "view",
					"type": "function"
				},
				{
					"inputs": [
						{
							"internalType": "uint256",
							"name": "_ticketIndex",
							"type": "uint256"
						},
						{
							"internalType": "address",
							"name": "_newOwner",
							"type": "address"
						}
					],
					"name": "transferTicket",
					"outputs": [],
					"stateMutability": "nonpayable",
					"type": "function"
				}
			],
			"devdoc": {
				"kind": "dev",
				"methods": {},
				"version": 1
			},
			"evm": {
				"assembly": "    /* \"contracts/Event.sol\":92:2261  contract EventManager {... */\n  mstore(0x40, 0x80)\n    /* \"contracts/Event.sol\":435:714  constructor(uint _eventId, string memory _eventName, uint _totalTickets, uint _price) {... */\n  callvalue\n  dup1\n  iszero\n  tag_1\n  jumpi\n  0x00\n  dup1\n  revert\ntag_1:\n  pop\n  mload(0x40)\n  sub(codesize, bytecodeSize)\n  dup1\n  bytecodeSize\n  dup4\n  codecopy\n  dup2\n  dup2\n  add\n  0x40\n  mstore\n  dup2\n  add\n  swap1\n  tag_2\n  swap2\n  swap1\n  tag_3\n  jump\t// in\ntag_2:\n    /* \"contracts/Event.sol\":544:554  msg.sender */\n  caller\n    /* \"contracts/Event.sol\":532:541  organizer */\n  0x00\n  dup1\n    /* \"contracts/Event.sol\":532:554  organizer = msg.sender */\n  0x0100\n  exp\n  dup2\n  sload\n  dup2\n  0xffffffffffffffffffffffffffffffffffffffff\n  mul\n  not\n  and\n  swap1\n  dup4\n  0xffffffffffffffffffffffffffffffffffffffff\n  and\n  mul\n  or\n  swap1\n  sstore\n  pop\n    /* \"contracts/Event.sol\":575:583  _eventId */\n  dup4\n    /* \"contracts/Event.sol\":565:572  eventId */\n  0x01\n    /* \"contracts/Event.sol\":565:583  eventId = _eventId */\n  dup2\n  swap1\n  sstore\n  pop\n    /* \"contracts/Event.sol\":606:616  _eventName */\n  dup3\n    /* \"contracts/Event.sol\":594:603  eventName */\n  0x02\n    /* \"contracts/Event.sol\":594:616  eventName = _eventName */\n  swap1\n  dup2\n  tag_6\n  swap2\n  swap1\n  tag_7\n  jump\t// in\ntag_6:\n  pop\n    /* \"contracts/Event.sol\":642:655  _totalTickets */\n  dup2\n    /* \"contracts/Event.sol\":627:639  totalTickets */\n  0x03\n    /* \"contracts/Event.sol\":627:655  totalTickets = _totalTickets */\n  dup2\n  swap1\n  sstore\n  pop\n    /* \"contracts/Event.sol\":674:680  _price */\n  dup1\n    /* \"contracts/Event.sol\":666:671  price */\n  0x05\n    /* \"contracts/Event.sol\":666:680  price = _price */\n  dup2\n  swap1\n  sstore\n  pop\n    /* \"contracts/Event.sol\":705:706  0 */\n  0x00\n    /* \"contracts/Event.sol\":691:702  ticketsSold */\n  0x04\n    /* \"contracts/Event.sol\":691:706  ticketsSold = 0 */\n  dup2\n  swap1\n  sstore\n  pop\n    /* \"contracts/Event.sol\":435:714  constructor(uint _eventId, string memory _eventName, uint _totalTickets, uint _price) {... */\n  pop\n  pop\n  pop\n  pop\n    /* \"contracts/Event.sol\":92:2261  contract EventManager {... */\n  jump(tag_8)\n    /* \"#utility.yul\":7:82   */\ntag_9:\n    /* \"#utility.yul\":40:46   */\n  0x00\n    /* \"#utility.yul\":73:75   */\n  0x40\n    /* \"#utility.yul\":67:76   */\n  mload\n    /* \"#utility.yul\":57:76   */\n  swap1\n  pop\n    /* \"#utility.yul\":7:82   */\n  swap1\n  jump\t// out\n    /* \"#utility.yul\":88:205   */\ntag_10:\n    /* \"#utility.yul\":197:198   */\n  0x00\n    /* \"#utility.yul\":194:195   */\n  dup1\n    /* \"#utility.yul\":187:199   */\n  revert\n    /* \"#utility.yul\":211:328   */\ntag_11:\n    /* \"#utility.yul\":320:321   */\n  0x00\n    /* \"#utility.yul\":317:318   */\n  dup1\n    /* \"#utility.yul\":310:322   */\n  revert\n    /* \"#utility.yul\":334:411   */\ntag_12:\n    /* \"#utility.yul\":371:378   */\n  0x00\n    /* \"#utility.yul\":400:405   */\n  dup2\n    /* \"#utility.yul\":389:405   */\n  swap1\n  pop\n    /* \"#utility.yul\":334:411   */\n  swap2\n  swap1\n  pop\n  jump\t// out\n    /* \"#utility.yul\":417:539   */\ntag_13:\n    /* \"#utility.yul\":490:514   */\n  tag_49\n    /* \"#utility.yul\":508:513   */\n  dup2\n    /* \"#utility.yul\":490:514   */\n  tag_12\n  jump\t// in\ntag_49:\n    /* \"#utility.yul\":483:488   */\n  dup2\n    /* \"#utility.yul\":480:515   */\n  eq\n    /* \"#utility.yul\":470:533   */\n  tag_50\n  jumpi\n    /* \"#utility.yul\":529:530   */\n  0x00\n    /* \"#utility.yul\":526:527   */\n  dup1\n    /* \"#utility.yul\":519:531   */\n  revert\n    /* \"#utility.yul\":470:533   */\ntag_50:\n    /* \"#utility.yul\":417:539   */\n  pop\n  jump\t// out\n    /* \"#utility.yul\":545:688   */\ntag_14:\n    /* \"#utility.yul\":602:607   */\n  0x00\n    /* \"#utility.yul\":633:639   */\n  dup2\n    /* \"#utility.yul\":627:640   */\n  mload\n    /* \"#utility.yul\":618:640   */\n  swap1\n  pop\n    /* \"#utility.yul\":649:682   */\n  tag_52\n    /* \"#utility.yul\":676:681   */\n  dup2\n    /* \"#utility.yul\":649:682   */\n  tag_13\n  jump\t// in\ntag_52:\n    /* \"#utility.yul\":545:688   */\n  swap3\n  swap2\n  pop\n  pop\n  jump\t// out\n    /* \"#utility.yul\":694:811   */\ntag_15:\n    /* \"#utility.yul\":803:804   */\n  0x00\n    /* \"#utility.yul\":800:801   */\n  dup1\n    /* \"#utility.yul\":793:805   */\n  revert\n    /* \"#utility.yul\":817:934   */\ntag_16:\n    /* \"#utility.yul\":926:927   */\n  0x00\n    /* \"#utility.yul\":923:924   */\n  dup1\n    /* \"#utility.yul\":916:928   */\n  revert\n    /* \"#utility.yul\":940:1042   */\ntag_17:\n    /* \"#utility.yul\":981:987   */\n  0x00\n    /* \"#utility.yul\":1032:1034   */\n  0x1f\n    /* \"#utility.yul\":1028:1035   */\n  not\n    /* \"#utility.yul\":1023:1025   */\n  0x1f\n    /* \"#utility.yul\":1016:1021   */\n  dup4\n    /* \"#utility.yul\":1012:1026   */\n  add\n    /* \"#utility.yul\":1008:1036   */\n  and\n    /* \"#utility.yul\":998:1036   */\n  swap1\n  pop\n    /* \"#utility.yul\":940:1042   */\n  swap2\n  swap1\n  pop\n  jump\t// out\n    /* \"#utility.yul\":1048:1228   */\ntag_18:\n    /* \"#utility.yul\":1096:1173   */\n  0x4e487b7100000000000000000000000000000000000000000000000000000000\n    /* \"#utility.yul\":1093:1094   */\n  0x00\n    /* \"#utility.yul\":1086:1174   */\n  mstore\n    /* \"#utility.yul\":1193:1197   */\n  0x41\n    /* \"#utility.yul\":1190:1191   */\n  0x04\n    /* \"#utility.yul\":1183:1198   */\n  mstore\n    /* \"#utility.yul\":1217:1221   */\n  0x24\n    /* \"#utility.yul\":1214:1215   */\n  0x00\n    /* \"#utility.yul\":1207:1222   */\n  revert\n    /* \"#utility.yul\":1234:1515   */\ntag_19:\n    /* \"#utility.yul\":1317:1344   */\n  tag_58\n    /* \"#utility.yul\":1339:1343   */\n  dup3\n    /* \"#utility.yul\":1317:1344   */\n  tag_17\n  jump\t// in\ntag_58:\n    /* \"#utility.yul\":1309:1315   */\n  dup2\n    /* \"#utility.yul\":1305:1345   */\n  add\n    /* \"#utility.yul\":1447:1453   */\n  dup2\n    /* \"#utility.yul\":1435:1445   */\n  dup2\n    /* \"#utility.yul\":1432:1454   */\n  lt\n    /* \"#utility.yul\":1411:1429   */\n  0xffffffffffffffff\n    /* \"#utility.yul\":1399:1409   */\n  dup3\n    /* \"#utility.yul\":1396:1430   */\n  gt\n    /* \"#utility.yul\":1393:1455   */\n  or\n    /* \"#utility.yul\":1390:1478   */\n  iszero\n  tag_59\n  jumpi\n    /* \"#utility.yul\":1458:1476   */\n  tag_60\n  tag_18\n  jump\t// in\ntag_60:\n    /* \"#utility.yul\":1390:1478   */\ntag_59:\n    /* \"#utility.yul\":1498:1508   */\n  dup1\n    /* \"#utility.yul\":1494:1496   */\n  0x40\n    /* \"#utility.yul\":1487:1509   */\n  mstore\n    /* \"#utility.yul\":1277:1515   */\n  pop\n    /* \"#utility.yul\":1234:1515   */\n  pop\n  pop\n  jump\t// out\n    /* \"#utility.yul\":1521:1650   */\ntag_20:\n    /* \"#utility.yul\":1555:1561   */\n  0x00\n    /* \"#utility.yul\":1582:1602   */\n  tag_62\n  tag_9\n  jump\t// in\ntag_62:\n    /* \"#utility.yul\":1572:1602   */\n  swap1\n  pop\n    /* \"#utility.yul\":1611:1644   */\n  tag_63\n    /* \"#utility.yul\":1639:1643   */\n  dup3\n    /* \"#utility.yul\":1631:1637   */\n  dup3\n    /* \"#utility.yul\":1611:1644   */\n  tag_19\n  jump\t// in\ntag_63:\n    /* \"#utility.yul\":1521:1650   */\n  swap2\n  swap1\n  pop\n  jump\t// out\n    /* \"#utility.yul\":1656:1964   */\ntag_21:\n    /* \"#utility.yul\":1718:1722   */\n  0x00\n    /* \"#utility.yul\":1808:1826   */\n  0xffffffffffffffff\n    /* \"#utility.yul\":1800:1806   */\n  dup3\n    /* \"#utility.yul\":1797:1827   */\n  gt\n    /* \"#utility.yul\":1794:1850   */\n  iszero\n  tag_65\n  jumpi\n    /* \"#utility.yul\":1830:1848   */\n  tag_66\n  tag_18\n  jump\t// in\ntag_66:\n    /* \"#utility.yul\":1794:1850   */\ntag_65:\n    /* \"#utility.yul\":1868:1897   */\n  tag_67\n    /* \"#utility.yul\":1890:1896   */\n  dup3\n    /* \"#utility.yul\":1868:1897   */\n  tag_17\n  jump\t// in\ntag_67:\n    /* \"#utility.yul\":1860:1897   */\n  swap1\n  pop\n    /* \"#utility.yul\":1952:1956   */\n  0x20\n    /* \"#utility.yul\":1946:1950   */\n  dup2\n    /* \"#utility.yul\":1942:1957   */\n  add\n    /* \"#utility.yul\":1934:1957   */\n  swap1\n  pop\n    /* \"#utility.yul\":1656:1964   */\n  swap2\n  swap1\n  pop\n  jump\t// out\n    /* \"#utility.yul\":1970:2109   */\ntag_22:\n    /* \"#utility.yul\":2059:2065   */\n  dup3\n    /* \"#utility.yul\":2054:2057   */\n  dup2\n    /* \"#utility.yul\":2049:2052   */\n  dup4\n    /* \"#utility.yul\":2043:2066   */\n  mcopy\n    /* \"#utility.yul\":2100:2101   */\n  0x00\n    /* \"#utility.yul\":2091:2097   */\n  dup4\n    /* \"#utility.yul\":2086:2089   */\n  dup4\n    /* \"#utility.yul\":2082:2098   */\n  add\n    /* \"#utility.yul\":2075:2102   */\n  mstore\n    /* \"#utility.yul\":1970:2109   */\n  pop\n  pop\n  pop\n  jump\t// out\n    /* \"#utility.yul\":2115:2549   */\ntag_23:\n    /* \"#utility.yul\":2204:2209   */\n  0x00\n    /* \"#utility.yul\":2229:2295   */\n  tag_70\n    /* \"#utility.yul\":2245:2294   */\n  tag_71\n    /* \"#utility.yul\":2287:2293   */\n  dup5\n    /* \"#utility.yul\":2245:2294   */\n  tag_21\n  jump\t// in\ntag_71:\n    /* \"#utility.yul\":2229:2295   */\n  tag_20\n  jump\t// in\ntag_70:\n    /* \"#utility.yul\":2220:2295   */\n  swap1\n  pop\n    /* \"#utility.yul\":2318:2324   */\n  dup3\n    /* \"#utility.yul\":2311:2316   */\n  dup2\n    /* \"#utility.yul\":2304:2325   */\n  mstore\n    /* \"#utility.yul\":2356:2360   */\n  0x20\n    /* \"#utility.yul\":2349:2354   */\n  dup2\n    /* \"#utility.yul\":2345:2361   */\n  add\n    /* \"#utility.yul\":2394:2397   */\n  dup5\n    /* \"#utility.yul\":2385:2391   */\n  dup5\n    /* \"#utility.yul\":2380:2383   */\n  dup5\n    /* \"#utility.yul\":2376:2392   */\n  add\n    /* \"#utility.yul\":2373:2398   */\n  gt\n    /* \"#utility.yul\":2370:2482   */\n  iszero\n  tag_72\n  jumpi\n    /* \"#utility.yul\":2401:2480   */\n  tag_73\n  tag_16\n  jump\t// in\ntag_73:\n    /* \"#utility.yul\":2370:2482   */\ntag_72:\n    /* \"#utility.yul\":2491:2543   */\n  tag_74\n    /* \"#utility.yul\":2536:2542   */\n  dup5\n    /* \"#utility.yul\":2531:2534   */\n  dup3\n    /* \"#utility.yul\":2526:2529   */\n  dup6\n    /* \"#utility.yul\":2491:2543   */\n  tag_22\n  jump\t// in\ntag_74:\n    /* \"#utility.yul\":2210:2549   */\n  pop\n    /* \"#utility.yul\":2115:2549   */\n  swap4\n  swap3\n  pop\n  pop\n  pop\n  jump\t// out\n    /* \"#utility.yul\":2569:2924   */\ntag_24:\n    /* \"#utility.yul\":2636:2641   */\n  0x00\n    /* \"#utility.yul\":2685:2688   */\n  dup3\n    /* \"#utility.yul\":2678:2682   */\n  0x1f\n    /* \"#utility.yul\":2670:2676   */\n  dup4\n    /* \"#utility.yul\":2666:2683   */\n  add\n    /* \"#utility.yul\":2662:2689   */\n  slt\n    /* \"#utility.yul\":2652:2774   */\n  tag_76\n  jumpi\n    /* \"#utility.yul\":2693:2772   */\n  tag_77\n  tag_15\n  jump\t// in\ntag_77:\n    /* \"#utility.yul\":2652:2774   */\ntag_76:\n    /* \"#utility.yul\":2803:2809   */\n  dup2\n    /* \"#utility.yul\":2797:2810   */\n  mload\n    /* \"#utility.yul\":2828:2918   */\n  tag_78\n    /* \"#utility.yul\":2914:2917   */\n  dup5\n    /* \"#utility.yul\":2906:2912   */\n  dup3\n    /* \"#utility.yul\":2899:2903   */\n  0x20\n    /* \"#utility.yul\":2891:2897   */\n  dup7\n    /* \"#utility.yul\":2887:2904   */\n  add\n    /* \"#utility.yul\":2828:2918   */\n  tag_23\n  jump\t// in\ntag_78:\n    /* \"#utility.yul\":2819:2918   */\n  swap2\n  pop\n    /* \"#utility.yul\":2642:2924   */\n  pop\n    /* \"#utility.yul\":2569:2924   */\n  swap3\n  swap2\n  pop\n  pop\n  jump\t// out\n    /* \"#utility.yul\":2930:3923   */\ntag_3:\n    /* \"#utility.yul\":3037:3043   */\n  0x00\n    /* \"#utility.yul\":3045:3051   */\n  dup1\n    /* \"#utility.yul\":3053:3059   */\n  0x00\n    /* \"#utility.yul\":3061:3067   */\n  dup1\n    /* \"#utility.yul\":3110:3113   */\n  0x80\n    /* \"#utility.yul\":3098:3107   */\n  dup6\n    /* \"#utility.yul\":3089:3096   */\n  dup8\n    /* \"#utility.yul\":3085:3108   */\n  sub\n    /* \"#utility.yul\":3081:3114   */\n  slt\n    /* \"#utility.yul\":3078:3198   */\n  iszero\n  tag_80\n  jumpi\n    /* \"#utility.yul\":3117:3196   */\n  tag_81\n  tag_10\n  jump\t// in\ntag_81:\n    /* \"#utility.yul\":3078:3198   */\ntag_80:\n    /* \"#utility.yul\":3237:3238   */\n  0x00\n    /* \"#utility.yul\":3262:3326   */\n  tag_82\n    /* \"#utility.yul\":3318:3325   */\n  dup8\n    /* \"#utility.yul\":3309:3315   */\n  dup3\n    /* \"#utility.yul\":3298:3307   */\n  dup9\n    /* \"#utility.yul\":3294:3316   */\n  add\n    /* \"#utility.yul\":3262:3326   */\n  tag_14\n  jump\t// in\ntag_82:\n    /* \"#utility.yul\":3252:3326   */\n  swap5\n  pop\n    /* \"#utility.yul\":3208:3336   */\n  pop\n    /* \"#utility.yul\":3396:3398   */\n  0x20\n    /* \"#utility.yul\":3385:3394   */\n  dup6\n    /* \"#utility.yul\":3381:3399   */\n  add\n    /* \"#utility.yul\":3375:3400   */\n  mload\n    /* \"#utility.yul\":3427:3445   */\n  0xffffffffffffffff\n    /* \"#utility.yul\":3419:3425   */\n  dup2\n    /* \"#utility.yul\":3416:3446   */\n  gt\n    /* \"#utility.yul\":3413:3530   */\n  iszero\n  tag_83\n  jumpi\n    /* \"#utility.yul\":3449:3528   */\n  tag_84\n  tag_11\n  jump\t// in\ntag_84:\n    /* \"#utility.yul\":3413:3530   */\ntag_83:\n    /* \"#utility.yul\":3554:3628   */\n  tag_85\n    /* \"#utility.yul\":3620:3627   */\n  dup8\n    /* \"#utility.yul\":3611:3617   */\n  dup3\n    /* \"#utility.yul\":3600:3609   */\n  dup9\n    /* \"#utility.yul\":3596:3618   */\n  add\n    /* \"#utility.yul\":3554:3628   */\n  tag_24\n  jump\t// in\ntag_85:\n    /* \"#utility.yul\":3544:3628   */\n  swap4\n  pop\n    /* \"#utility.yul\":3346:3638   */\n  pop\n    /* \"#utility.yul\":3677:3679   */\n  0x40\n    /* \"#utility.yul\":3703:3767   */\n  tag_86\n    /* \"#utility.yul\":3759:3766   */\n  dup8\n    /* \"#utility.yul\":3750:3756   */\n  dup3\n    /* \"#utility.yul\":3739:3748   */\n  dup9\n    /* \"#utility.yul\":3735:3757   */\n  add\n    /* \"#utility.yul\":3703:3767   */\n  tag_14\n  jump\t// in\ntag_86:\n    /* \"#utility.yul\":3693:3767   */\n  swap3\n  pop\n    /* \"#utility.yul\":3648:3777   */\n  pop\n    /* \"#utility.yul\":3816:3818   */\n  0x60\n    /* \"#utility.yul\":3842:3906   */\n  tag_87\n    /* \"#utility.yul\":3898:3905   */\n  dup8\n    /* \"#utility.yul\":3889:3895   */\n  dup3\n    /* \"#utility.yul\":3878:3887   */\n  dup9\n    /* \"#utility.yul\":3874:3896   */\n  add\n    /* \"#utility.yul\":3842:3906   */\n  tag_14\n  jump\t// in\ntag_87:\n    /* \"#utility.yul\":3832:3906   */\n  swap2\n  pop\n    /* \"#utility.yul\":3787:3916   */\n  pop\n    /* \"#utility.yul\":2930:3923   */\n  swap3\n  swap6\n  swap2\n  swap5\n  pop\n  swap3\n  pop\n  jump\t// out\n    /* \"#utility.yul\":3929:4028   */\ntag_25:\n    /* \"#utility.yul\":3981:3987   */\n  0x00\n    /* \"#utility.yul\":4015:4020   */\n  dup2\n    /* \"#utility.yul\":4009:4021   */\n  mload\n    /* \"#utility.yul\":3999:4021   */\n  swap1\n  pop\n    /* \"#utility.yul\":3929:4028   */\n  swap2\n  swap1\n  pop\n  jump\t// out\n    /* \"#utility.yul\":4034:4214   */\ntag_26:\n    /* \"#utility.yul\":4082:4159   */\n  0x4e487b7100000000000000000000000000000000000000000000000000000000\n    /* \"#utility.yul\":4079:4080   */\n  0x00\n    /* \"#utility.yul\":4072:4160   */\n  mstore\n    /* \"#utility.yul\":4179:4183   */\n  0x22\n    /* \"#utility.yul\":4176:4177   */\n  0x04\n    /* \"#utility.yul\":4169:4184   */\n  mstore\n    /* \"#utility.yul\":4203:4207   */\n  0x24\n    /* \"#utility.yul\":4200:4201   */\n  0x00\n    /* \"#utility.yul\":4193:4208   */\n  revert\n    /* \"#utility.yul\":4220:4540   */\ntag_27:\n    /* \"#utility.yul\":4264:4270   */\n  0x00\n    /* \"#utility.yul\":4301:4302   */\n  0x02\n    /* \"#utility.yul\":4295:4299   */\n  dup3\n    /* \"#utility.yul\":4291:4303   */\n  div\n    /* \"#utility.yul\":4281:4303   */\n  swap1\n  pop\n    /* \"#utility.yul\":4348:4349   */\n  0x01\n    /* \"#utility.yul\":4342:4346   */\n  dup3\n    /* \"#utility.yul\":4338:4350   */\n  and\n    /* \"#utility.yul\":4369:4387   */\n  dup1\n    /* \"#utility.yul\":4359:4440   */\n  tag_91\n  jumpi\n    /* \"#utility.yul\":4425:4429   */\n  0x7f\n    /* \"#utility.yul\":4417:4423   */\n  dup3\n    /* \"#utility.yul\":4413:4430   */\n  and\n    /* \"#utility.yul\":4403:4430   */\n  swap2\n  pop\n    /* \"#utility.yul\":4359:4440   */\ntag_91:\n    /* \"#utility.yul\":4487:4489   */\n  0x20\n    /* \"#utility.yul\":4479:4485   */\n  dup3\n    /* \"#utility.yul\":4476:4490   */\n  lt\n    /* \"#utility.yul\":4456:4474   */\n  dup2\n    /* \"#utility.yul\":4453:4491   */\n  sub\n    /* \"#utility.yul\":4450:4534   */\n  tag_92\n  jumpi\n    /* \"#utility.yul\":4506:4524   */\n  tag_93\n  tag_26\n  jump\t// in\ntag_93:\n    /* \"#utility.yul\":4450:4534   */\ntag_92:\n    /* \"#utility.yul\":4271:4540   */\n  pop\n    /* \"#utility.yul\":4220:4540   */\n  swap2\n  swap1\n  pop\n  jump\t// out\n    /* \"#utility.yul\":4546:4687   */\ntag_28:\n    /* \"#utility.yul\":4595:4599   */\n  0x00\n    /* \"#utility.yul\":4618:4621   */\n  dup2\n    /* \"#utility.yul\":4610:4621   */\n  swap1\n  pop\n    /* \"#utility.yul\":4641:4644   */\n  dup2\n    /* \"#utility.yul\":4638:4639   */\n  0x00\n    /* \"#utility.yul\":4631:4645   */\n  mstore\n    /* \"#utility.yul\":4675:4679   */\n  0x20\n    /* \"#utility.yul\":4672:4673   */\n  0x00\n    /* \"#utility.yul\":4662:4680   */\n  keccak256\n    /* \"#utility.yul\":4654:4680   */\n  swap1\n  pop\n    /* \"#utility.yul\":4546:4687   */\n  swap2\n  swap1\n  pop\n  jump\t// out\n    /* \"#utility.yul\":4693:4786   */\ntag_29:\n    /* \"#utility.yul\":4730:4736   */\n  0x00\n    /* \"#utility.yul\":4777:4779   */\n  0x20\n    /* \"#utility.yul\":4772:4774   */\n  0x1f\n    /* \"#utility.yul\":4765:4770   */\n  dup4\n    /* \"#utility.yul\":4761:4775   */\n  add\n    /* \"#utility.yul\":4757:4780   */\n  div\n    /* \"#utility.yul\":4747:4780   */\n  swap1\n  pop\n    /* \"#utility.yul\":4693:4786   */\n  swap2\n  swap1\n  pop\n  jump\t// out\n    /* \"#utility.yul\":4792:4899   */\ntag_30:\n    /* \"#utility.yul\":4836:4844   */\n  0x00\n    /* \"#utility.yul\":4886:4891   */\n  dup3\n    /* \"#utility.yul\":4880:4884   */\n  dup3\n    /* \"#utility.yul\":4876:4892   */\n  shl\n    /* \"#utility.yul\":4855:4892   */\n  swap1\n  pop\n    /* \"#utility.yul\":4792:4899   */\n  swap3\n  swap2\n  pop\n  pop\n  jump\t// out\n    /* \"#utility.yul\":4905:5298   */\ntag_31:\n    /* \"#utility.yul\":4974:4980   */\n  0x00\n    /* \"#utility.yul\":5024:5025   */\n  0x08\n    /* \"#utility.yul\":5012:5022   */\n  dup4\n    /* \"#utility.yul\":5008:5026   */\n  mul\n    /* \"#utility.yul\":5047:5144   */\n  tag_98\n    /* \"#utility.yul\":5077:5143   */\n  0xffffffffffffffffffffffffffffffffffffffffffffffffffffffffffffffff\n    /* \"#utility.yul\":5066:5075   */\n  dup3\n    /* \"#utility.yul\":5047:5144   */\n  tag_30\n  jump\t// in\ntag_98:\n    /* \"#utility.yul\":5165:5204   */\n  tag_99\n    /* \"#utility.yul\":5195:5203   */\n  dup7\n    /* \"#utility.yul\":5184:5193   */\n  dup4\n    /* \"#utility.yul\":5165:5204   */\n  tag_30\n  jump\t// in\ntag_99:\n    /* \"#utility.yul\":5153:5204   */\n  swap6\n  pop\n    /* \"#utility.yul\":5237:5241   */\n  dup1\n    /* \"#utility.yul\":5233:5242   */\n  not\n    /* \"#utility.yul\":5226:5231   */\n  dup5\n    /* \"#utility.yul\":5222:5243   */\n  and\n    /* \"#utility.yul\":5213:5243   */\n  swap4\n  pop\n    /* \"#utility.yul\":5286:5290   */\n  dup1\n    /* \"#utility.yul\":5276:5284   */\n  dup7\n    /* \"#utility.yul\":5272:5291   */\n  and\n    /* \"#utility.yul\":5265:5270   */\n  dup5\n    /* \"#utility.yul\":5262:5292   */\n  or\n    /* \"#utility.yul\":5252:5292   */\n  swap3\n  pop\n    /* \"#utility.yul\":4981:5298   */\n  pop\n  pop\n    /* \"#utility.yul\":4905:5298   */\n  swap4\n  swap3\n  pop\n  pop\n  pop\n  jump\t// out\n    /* \"#utility.yul\":5304:5364   */\ntag_32:\n    /* \"#utility.yul\":5332:5335   */\n  0x00\n    /* \"#utility.yul\":5353:5358   */\n  dup2\n    /* \"#utility.yul\":5346:5358   */\n  swap1\n  pop\n    /* \"#utility.yul\":5304:5364   */\n  swap2\n  swap1\n  pop\n  jump\t// out\n    /* \"#utility.yul\":5370:5512   */\ntag_33:\n    /* \"#utility.yul\":5420:5429   */\n  0x00\n    /* \"#utility.yul\":5453:5506   */\n  tag_102\n    /* \"#utility.yul\":5471:5505   */\n  tag_103\n    /* \"#utility.yul\":5480:5504   */\n  tag_104\n    /* \"#utility.yul\":5498:5503   */\n  dup5\n    /* \"#utility.yul\":5480:5504   */\n  tag_12\n  jump\t// in\ntag_104:\n    /* \"#utility.yul\":5471:5505   */\n  tag_32\n  jump\t// in\ntag_103:\n    /* \"#utility.yul\":5453:5506   */\n  tag_12\n  jump\t// in\ntag_102:\n    /* \"#utility.yul\":5440:5506   */\n  swap1\n  pop\n    /* \"#utility.yul\":5370:5512   */\n  swap2\n  swap1\n  pop\n  jump\t// out\n    /* \"#utility.yul\":5518:5593   */\ntag_34:\n    /* \"#utility.yul\":5561:5564   */\n  0x00\n    /* \"#utility.yul\":5582:5587   */\n  dup2\n    /* \"#utility.yul\":5575:5587   */\n  swap1\n  pop\n    /* \"#utility.yul\":5518:5593   */\n  swap2\n  swap1\n  pop\n  jump\t// out\n    /* \"#utility.yul\":5599:5868   */\ntag_35:\n    /* \"#utility.yul\":5709:5748   */\n  tag_107\n    /* \"#utility.yul\":5740:5747   */\n  dup4\n    /* \"#utility.yul\":5709:5748   */\n  tag_33\n  jump\t// in\ntag_107:\n    /* \"#utility.yul\":5770:5861   */\n  tag_108\n    /* \"#utility.yul\":5819:5860   */\n  tag_109\n    /* \"#utility.yul\":5843:5859   */\n  dup3\n    /* \"#utility.yul\":5819:5860   */\n  tag_34\n  jump\t// in\ntag_109:\n    /* \"#utility.yul\":5811:5817   */\n  dup5\n    /* \"#utility.yul\":5804:5808   */\n  dup5\n    /* \"#utility.yul\":5798:5809   */\n  sload\n    /* \"#utility.yul\":5770:5861   */\n  tag_31\n  jump\t// in\ntag_108:\n    /* \"#utility.yul\":5764:5768   */\n  dup3\n    /* \"#utility.yul\":5757:5862   */\n  sstore\n    /* \"#utility.yul\":5675:5868   */\n  pop\n    /* \"#utility.yul\":5599:5868   */\n  pop\n  pop\n  pop\n  jump\t// out\n    /* \"#utility.yul\":5874:5947   */\ntag_36:\n    /* \"#utility.yul\":5919:5922   */\n  0x00\n    /* \"#utility.yul\":5874:5947   */\n  swap1\n  jump\t// out\n    /* \"#utility.yul\":5953:6142   */\ntag_37:\n    /* \"#utility.yul\":6030:6062   */\n  tag_112\n  tag_36\n  jump\t// in\ntag_112:\n    /* \"#utility.yul\":6071:6136   */\n  tag_113\n    /* \"#utility.yul\":6129:6135   */\n  dup2\n    /* \"#utility.yul\":6121:6127   */\n  dup5\n    /* \"#utility.yul\":6115:6119   */\n  dup5\n    /* \"#utility.yul\":6071:6136   */\n  tag_35\n  jump\t// in\ntag_113:\n    /* \"#utility.yul\":6006:6142   */\n  pop\n    /* \"#utility.yul\":5953:6142   */\n  pop\n  pop\n  jump\t// out\n    /* \"#utility.yul\":6148:6334   */\ntag_38:\n    /* \"#utility.yul\":6208:6328   */\ntag_115:\n    /* \"#utility.yul\":6225:6228   */\n  dup2\n    /* \"#utility.yul\":6218:6223   */\n  dup2\n    /* \"#utility.yul\":6215:6229   */\n  lt\n    /* \"#utility.yul\":6208:6328   */\n  iszero\n  tag_117\n  jumpi\n    /* \"#utility.yul\":6279:6318   */\n  tag_118\n    /* \"#utility.yul\":6316:6317   */\n  0x00\n    /* \"#utility.yul\":6309:6314   */\n  dup3\n    /* \"#utility.yul\":6279:6318   */\n  tag_37\n  jump\t// in\ntag_118:\n    /* \"#utility.yul\":6252:6253   */\n  0x01\n    /* \"#utility.yul\":6245:6250   */\n  dup2\n    /* \"#utility.yul\":6241:6254   */\n  add\n    /* \"#utility.yul\":6232:6254   */\n  swap1\n  pop\n    /* \"#utility.yul\":6208:6328   */\n  jump(tag_115)\ntag_117:\n    /* \"#utility.yul\":6148:6334   */\n  pop\n  pop\n  jump\t// out\n    /* \"#utility.yul\":6340:6883   */\ntag_39:\n    /* \"#utility.yul\":6441:6443   */\n  0x1f\n    /* \"#utility.yul\":6436:6439   */\n  dup3\n    /* \"#utility.yul\":6433:6444   */\n  gt\n    /* \"#utility.yul\":6430:6876   */\n  iszero\n  tag_120\n  jumpi\n    /* \"#utility.yul\":6475:6513   */\n  tag_121\n    /* \"#utility.yul\":6507:6512   */\n  dup2\n    /* \"#utility.yul\":6475:6513   */\n  tag_28\n  jump\t// in\ntag_121:\n    /* \"#utility.yul\":6559:6588   */\n  tag_122\n    /* \"#utility.yul\":6577:6587   */\n  dup5\n    /* \"#utility.yul\":6559:6588   */\n  tag_29\n  jump\t// in\ntag_122:\n    /* \"#utility.yul\":6549:6557   */\n  dup2\n    /* \"#utility.yul\":6545:6589   */\n  add\n    /* \"#utility.yul\":6742:6744   */\n  0x20\n    /* \"#utility.yul\":6730:6740   */\n  dup6\n    /* \"#utility.yul\":6727:6745   */\n  lt\n    /* \"#utility.yul\":6724:6773   */\n  iszero\n  tag_123\n  jumpi\n    /* \"#utility.yul\":6763:6771   */\n  dup2\n    /* \"#utility.yul\":6748:6771   */\n  swap1\n  pop\n    /* \"#utility.yul\":6724:6773   */\ntag_123:\n    /* \"#utility.yul\":6786:6866   */\n  tag_124\n    /* \"#utility.yul\":6842:6864   */\n  tag_125\n    /* \"#utility.yul\":6860:6863   */\n  dup6\n    /* \"#utility.yul\":6842:6864   */\n  tag_29\n  jump\t// in\ntag_125:\n    /* \"#utility.yul\":6832:6840   */\n  dup4\n    /* \"#utility.yul\":6828:6865   */\n  add\n    /* \"#utility.yul\":6815:6826   */\n  dup3\n    /* \"#utility.yul\":6786:6866   */\n  tag_38\n  jump\t// in\ntag_124:\n    /* \"#utility.yul\":6445:6876   */\n  pop\n  pop\n    /* \"#utility.yul\":6430:6876   */\ntag_120:\n    /* \"#utility.yul\":6340:6883   */\n  pop\n  pop\n  pop\n  jump\t// out\n    /* \"#utility.yul\":6889:7006   */\ntag_40:\n    /* \"#utility.yul\":6943:6951   */\n  0x00\n    /* \"#utility.yul\":6993:6998   */\n  dup3\n    /* \"#utility.yul\":6987:6991   */\n  dup3\n    /* \"#utility.yul\":6983:6999   */\n  shr\n    /* \"#utility.yul\":6962:6999   */\n  swap1\n  pop\n    /* \"#utility.yul\":6889:7006   */\n  swap3\n  swap2\n  pop\n  pop\n  jump\t// out\n    /* \"#utility.yul\":7012:7181   */\ntag_41:\n    /* \"#utility.yul\":7056:7062   */\n  0x00\n    /* \"#utility.yul\":7089:7140   */\n  tag_128\n    /* \"#utility.yul\":7137:7138   */\n  0x00\n    /* \"#utility.yul\":7133:7139   */\n  not\n    /* \"#utility.yul\":7125:7130   */\n  dup5\n    /* \"#utility.yul\":7122:7123   */\n  0x08\n    /* \"#utility.yul\":7118:7131   */\n  mul\n    /* \"#utility.yul\":7089:7140   */\n  tag_40\n  jump\t// in\ntag_128:\n    /* \"#utility.yul\":7085:7141   */\n  not\n    /* \"#utility.yul\":7170:7174   */\n  dup1\n    /* \"#utility.yul\":7164:7168   */\n  dup4\n    /* \"#utility.yul\":7160:7175   */\n  and\n    /* \"#utility.yul\":7150:7175   */\n  swap2\n  pop\n    /* \"#utility.yul\":7063:7181   */\n  pop\n    /* \"#utility.yul\":7012:7181   */\n  swap3\n  swap2\n  pop\n  pop\n  jump\t// out\n    /* \"#utility.yul\":7186:7481   */\ntag_42:\n    /* \"#utility.yul\":7262:7266   */\n  0x00\n    /* \"#utility.yul\":7408:7437   */\n  tag_130\n    /* \"#utility.yul\":7433:7436   */\n  dup4\n    /* \"#utility.yul\":7427:7431   */\n  dup4\n    /* \"#utility.yul\":7408:7437   */\n  tag_41\n  jump\t// in\ntag_130:\n    /* \"#utility.yul\":7400:7437   */\n  swap2\n  pop\n    /* \"#utility.yul\":7470:7473   */\n  dup3\n    /* \"#utility.yul\":7467:7468   */\n  0x02\n    /* \"#utility.yul\":7463:7474   */\n  mul\n    /* \"#utility.yul\":7457:7461   */\n  dup3\n    /* \"#utility.yul\":7454:7475   */\n  or\n    /* \"#utility.yul\":7446:7475   */\n  swap1\n  pop\n    /* \"#utility.yul\":7186:7481   */\n  swap3\n  swap2\n  pop\n  pop\n  jump\t// out\n    /* \"#utility.yul\":7486:8881   */\ntag_7:\n    /* \"#utility.yul\":7603:7640   */\n  tag_132\n    /* \"#utility.yul\":7636:7639   */\n  dup3\n    /* \"#utility.yul\":7603:7640   */\n  tag_25\n  jump\t// in\ntag_132:\n    /* \"#utility.yul\":7705:7723   */\n  0xffffffffffffffff\n    /* \"#utility.yul\":7697:7703   */\n  dup2\n    /* \"#utility.yul\":7694:7724   */\n  gt\n    /* \"#utility.yul\":7691:7747   */\n  iszero\n  tag_133\n  jumpi\n    /* \"#utility.yul\":7727:7745   */\n  tag_134\n  tag_18\n  jump\t// in\ntag_134:\n    /* \"#utility.yul\":7691:7747   */\ntag_133:\n    /* \"#utility.yul\":7771:7809   */\n  tag_135\n    /* \"#utility.yul\":7803:7807   */\n  dup3\n    /* \"#utility.yul\":7797:7808   */\n  sload\n    /* \"#utility.yul\":7771:7809   */\n  tag_27\n  jump\t// in\ntag_135:\n    /* \"#utility.yul\":7856:7923   */\n  tag_136\n    /* \"#utility.yul\":7916:7922   */\n  dup3\n    /* \"#utility.yul\":7908:7914   */\n  dup3\n    /* \"#utility.yul\":7902:7906   */\n  dup6\n    /* \"#utility.yul\":7856:7923   */\n  tag_39\n  jump\t// in\ntag_136:\n    /* \"#utility.yul\":7950:7951   */\n  0x00\n    /* \"#utility.yul\":7974:7978   */\n  0x20\n    /* \"#utility.yul\":7961:7978   */\n  swap1\n  pop\n    /* \"#utility.yul\":8006:8008   */\n  0x1f\n    /* \"#utility.yul\":7998:8004   */\n  dup4\n    /* \"#utility.yul\":7995:8009   */\n  gt\n    /* \"#utility.yul\":8023:8024   */\n  0x01\n    /* \"#utility.yul\":8018:8636   */\n  dup2\n  eq\n  tag_138\n  jumpi\n    /* \"#utility.yul\":8680:8681   */\n  0x00\n    /* \"#utility.yul\":8697:8703   */\n  dup5\n    /* \"#utility.yul\":8694:8771   */\n  iszero\n  tag_139\n  jumpi\n    /* \"#utility.yul\":8746:8755   */\n  dup3\n    /* \"#utility.yul\":8741:8744   */\n  dup8\n    /* \"#utility.yul\":8737:8756   */\n  add\n    /* \"#utility.yul\":8731:8757   */\n  mload\n    /* \"#utility.yul\":8722:8757   */\n  swap1\n  pop\n    /* \"#utility.yul\":8694:8771   */\ntag_139:\n    /* \"#utility.yul\":8797:8864   */\n  tag_140\n    /* \"#utility.yul\":8857:8863   */\n  dup6\n    /* \"#utility.yul\":8850:8855   */\n  dup3\n    /* \"#utility.yul\":8797:8864   */\n  tag_42\n  jump\t// in\ntag_140:\n    /* \"#utility.yul\":8791:8795   */\n  dup7\n    /* \"#utility.yul\":8784:8865   */\n  sstore\n    /* \"#utility.yul\":8653:8875   */\n  pop\n    /* \"#utility.yul\":7988:8875   */\n  jump(tag_137)\n    /* \"#utility.yul\":8018:8636   */\ntag_138:\n    /* \"#utility.yul\":8070:8074   */\n  0x1f\n    /* \"#utility.yul\":8066:8075   */\n  not\n    /* \"#utility.yul\":8058:8064   */\n  dup5\n    /* \"#utility.yul\":8054:8076   */\n  and\n    /* \"#utility.yul\":8104:8141   */\n  tag_141\n    /* \"#utility.yul\":8136:8140   */\n  dup7\n    /* \"#utility.yul\":8104:8141   */\n  tag_28\n  jump\t// in\ntag_141:\n    /* \"#utility.yul\":8163:8164   */\n  0x00\n    /* \"#utility.yul\":8177:8385   */\ntag_142:\n    /* \"#utility.yul\":8191:8198   */\n  dup3\n    /* \"#utility.yul\":8188:8189   */\n  dup2\n    /* \"#utility.yul\":8185:8199   */\n  lt\n    /* \"#utility.yul\":8177:8385   */\n  iszero\n  tag_144\n  jumpi\n    /* \"#utility.yul\":8270:8279   */\n  dup5\n    /* \"#utility.yul\":8265:8268   */\n  dup10\n    /* \"#utility.yul\":8261:8280   */\n  add\n    /* \"#utility.yul\":8255:8281   */\n  mload\n    /* \"#utility.yul\":8247:8253   */\n  dup3\n    /* \"#utility.yul\":8240:8282   */\n  sstore\n    /* \"#utility.yul\":8321:8322   */\n  0x01\n    /* \"#utility.yul\":8313:8319   */\n  dup3\n    /* \"#utility.yul\":8309:8323   */\n  add\n    /* \"#utility.yul\":8299:8323   */\n  swap2\n  pop\n    /* \"#utility.yul\":8368:8370   */\n  0x20\n    /* \"#utility.yul\":8357:8366   */\n  dup6\n    /* \"#utility.yul\":8353:8371   */\n  add\n    /* \"#utility.yul\":8340:8371   */\n  swap5\n  pop\n    /* \"#utility.yul\":8214:8218   */\n  0x20\n    /* \"#utility.yul\":8211:8212   */\n  dup2\n    /* \"#utility.yul\":8207:8219   */\n  add\n    /* \"#utility.yul\":8202:8219   */\n  swap1\n  pop\n    /* \"#utility.yul\":8177:8385   */\n  jump(tag_142)\ntag_144:\n    /* \"#utility.yul\":8413:8419   */\n  dup7\n    /* \"#utility.yul\":8404:8411   */\n  dup4\n    /* \"#utility.yul\":8401:8420   */\n  lt\n    /* \"#utility.yul\":8398:8577   */\n  iszero\n  tag_145\n  jumpi\n    /* \"#utility.yul\":8471:8480   */\n  dup5\n    /* \"#utility.yul\":8466:8469   */\n  dup10\n    /* \"#utility.yul\":8462:8481   */\n  add\n    /* \"#utility.yul\":8456:8482   */\n  mload\n    /* \"#utility.yul\":8514:8562   */\n  tag_146\n    /* \"#utility.yul\":8556:8560   */\n  0x1f\n    /* \"#utility.yul\":8548:8554   */\n  dup10\n    /* \"#utility.yul\":8544:8561   */\n  and\n    /* \"#utility.yul\":8533:8542   */\n  dup3\n    /* \"#utility.yul\":8514:8562   */\n  tag_41\n  jump\t// in\ntag_146:\n    /* \"#utility.yul\":8506:8512   */\n  dup4\n    /* \"#utility.yul\":8499:8563   */\n  sstore\n    /* \"#utility.yul\":8421:8577   */\n  pop\n    /* \"#utility.yul\":8398:8577   */\ntag_145:\n    /* \"#utility.yul\":8623:8624   */\n  0x01\n    /* \"#utility.yul\":8619:8620   */\n  0x02\n    /* \"#utility.yul\":8611:8617   */\n  dup9\n    /* \"#utility.yul\":8607:8621   */\n  mul\n    /* \"#utility.yul\":8603:8625   */\n  add\n    /* \"#utility.yul\":8597:8601   */\n  dup9\n    /* \"#utility.yul\":8590:8626   */\n  sstore\n    /* \"#utility.yul\":8025:8636   */\n  pop\n  pop\n  pop\n    /* \"#utility.yul\":7988:8875   */\ntag_137:\n  pop\n    /* \"#utility.yul\":7578:8881   */\n  pop\n  pop\n  pop\n    /* \"#utility.yul\":7486:8881   */\n  pop\n  pop\n  jump\t// out\n    /* \"contracts/Event.sol\":92:2261  contract EventManager {... */\ntag_8:\n  dataSize(sub_0)\n  dup1\n  dataOffset(sub_0)\n  0x00\n  codecopy\n  0x00\n  return\nstop\n\nsub_0: assembly {\n        /* \"contracts/Event.sol\":92:2261  contract EventManager {... */\n      mstore(0x40, 0x80)\n      jumpi(tag_1, lt(calldatasize, 0x04))\n      shr(0xe0, calldataload(0x00))\n      dup1\n      0x679ebf1a\n      gt\n      tag_14\n      jumpi\n      dup1\n      0x679ebf1a\n      eq\n      tag_8\n      jumpi\n      dup1\n      0x8043c9c0\n      eq\n      tag_9\n      jumpi\n      dup1\n      0x8f15024f\n      eq\n      tag_10\n      jumpi\n      dup1\n      0xa035b1fe\n      eq\n      tag_11\n      jumpi\n      dup1\n      0xad093409\n      eq\n      tag_12\n      jumpi\n      dup1\n      0xdd11247e\n      eq\n      tag_13\n      jumpi\n      jump(tag_1)\n    tag_14:\n      dup1\n      0x089cdd0c\n      eq\n      tag_2\n      jumpi\n      dup1\n      0x12a076b9\n      eq\n      tag_3\n      jumpi\n      dup1\n      0x3f6d558b\n      eq\n      tag_4\n      jumpi\n      dup1\n      0x50b44712\n      eq\n      tag_5\n      jumpi\n      dup1\n      0x5a8acacc\n      eq\n      tag_6\n      jumpi\n      dup1\n      0x61203265\n      eq\n      tag_7\n      jumpi\n    tag_1:\n      0x00\n      dup1\n      revert\n        /* \"contracts/Event.sol\":152:171  uint public eventId */\n    tag_2:\n      callvalue\n      dup1\n      iszero\n      tag_15\n      jumpi\n      0x00\n      dup1\n      revert\n    tag_15:\n      pop\n      tag_16\n      tag_17\n      jump\t// in\n    tag_16:\n      mload(0x40)\n      tag_18\n      swap2\n      swap1\n      tag_19\n      jump\t// in\n    tag_18:\n      mload(0x40)\n      dup1\n      swap2\n      sub\n      swap1\n      return\n        /* \"contracts/Event.sol\":862:991  function calculateTotalPrice(uint _quantity, uint _price) public pure returns (uint) {... */\n    tag_3:\n      callvalue\n      dup1\n      iszero\n      tag_20\n      jumpi\n      0x00\n      dup1\n      revert\n    tag_20:\n      pop\n      tag_21\n      0x04\n      dup1\n      calldatasize\n      sub\n      dup2\n      add\n      swap1\n      tag_22\n      swap2\n      swap1\n      tag_23\n      jump\t// in\n    tag_22:\n      tag_24\n      jump\t// in\n    tag_21:\n      mload(0x40)\n      tag_25\n      swap2\n      swap1\n      tag_19\n      jump\t// in\n    tag_25:\n      mload(0x40)\n      dup1\n      swap2\n      sub\n      swap1\n      return\n        /* \"contracts/Event.sol\":999:1612  function sellTickets(uint _quantity) external payable onlyOrganizer {... */\n    tag_4:\n      tag_26\n      0x04\n      dup1\n      calldatasize\n      sub\n      dup2\n      add\n      swap1\n      tag_27\n      swap2\n      swap1\n      tag_28\n      jump\t// in\n    tag_27:\n      tag_29\n      jump\t// in\n    tag_26:\n      stop\n        /* \"contracts/Event.sol\":293:316  Ticket[] public tickets */\n    tag_5:\n      callvalue\n      dup1\n      iszero\n      tag_30\n      jumpi\n      0x00\n      dup1\n      revert\n    tag_30:\n      pop\n      tag_31\n      0x04\n      dup1\n      calldatasize\n      sub\n      dup2\n      add\n      swap1\n      tag_32\n      swap2\n      swap1\n      tag_28\n      jump\t// in\n    tag_32:\n      tag_33\n      jump\t// in\n    tag_31:\n      mload(0x40)\n      tag_34\n      swap2\n      swap1\n      tag_35\n      jump\t// in\n    tag_34:\n      mload(0x40)\n      dup1\n      swap2\n      sub\n      swap1\n      return\n        /* \"contracts/Event.sol\":1929:2039  function getAvailableTickets() public view returns (uint) {... */\n    tag_6:\n      callvalue\n      dup1\n      iszero\n      tag_36\n      jumpi\n      0x00\n      dup1\n      revert\n    tag_36:\n      pop\n      tag_37\n      tag_38\n      jump\t// in\n    tag_37:\n      mload(0x40)\n      tag_39\n      swap2\n      swap1\n      tag_19\n      jump\t// in\n    tag_39:\n      mload(0x40)\n      dup1\n      swap2\n      sub\n      swap1\n      return\n        /* \"contracts/Event.sol\":121:145  address public organizer */\n    tag_7:\n      callvalue\n      dup1\n      iszero\n      tag_40\n      jumpi\n      0x00\n      dup1\n      revert\n    tag_40:\n      pop\n      tag_41\n      tag_42\n      jump\t// in\n    tag_41:\n      mload(0x40)\n      tag_43\n      swap2\n      swap1\n      tag_44\n      jump\t// in\n    tag_43:\n      mload(0x40)\n      dup1\n      swap2\n      sub\n      swap1\n      return\n        /* \"contracts/Event.sol\":1620:1921  function transferTicket(uint _ticketIndex, address _newOwner) external {... */\n    tag_8:\n      callvalue\n      dup1\n      iszero\n      tag_45\n      jumpi\n      0x00\n      dup1\n      revert\n    tag_45:\n      pop\n      tag_46\n      0x04\n      dup1\n      calldatasize\n      sub\n      dup2\n      add\n      swap1\n      tag_47\n      swap2\n      swap1\n      tag_48\n      jump\t// in\n    tag_47:\n      tag_49\n      jump\t// in\n    tag_46:\n      stop\n        /* \"contracts/Event.sol\":178:201  string public eventName */\n    tag_9:\n      callvalue\n      dup1\n      iszero\n      tag_50\n      jumpi\n      0x00\n      dup1\n      revert\n    tag_50:\n      pop\n      tag_51\n      tag_52\n      jump\t// in\n    tag_51:\n      mload(0x40)\n      tag_53\n      swap2\n      swap1\n      tag_54\n      jump\t// in\n    tag_53:\n      mload(0x40)\n      dup1\n      swap2\n      sub\n      swap1\n      return\n        /* \"contracts/Event.sol\":239:262  uint public ticketsSold */\n    tag_10:\n      callvalue\n      dup1\n      iszero\n      tag_55\n      jumpi\n      0x00\n      dup1\n      revert\n    tag_55:\n      pop\n      tag_56\n      tag_57\n      jump\t// in\n    tag_56:\n      mload(0x40)\n      tag_58\n      swap2\n      swap1\n      tag_19\n      jump\t// in\n    tag_58:\n      mload(0x40)\n      dup1\n      swap2\n      sub\n      swap1\n      return\n        /* \"contracts/Event.sol\":269:286  uint public price */\n    tag_11:\n      callvalue\n      dup1\n      iszero\n      tag_59\n      jumpi\n      0x00\n      dup1\n      revert\n    tag_59:\n      pop\n      tag_60\n      tag_61\n      jump\t// in\n    tag_60:\n      mload(0x40)\n      tag_62\n      swap2\n      swap1\n      tag_19\n      jump\t// in\n    tag_62:\n      mload(0x40)\n      dup1\n      swap2\n      sub\n      swap1\n      return\n        /* \"contracts/Event.sol\":2047:2258  function getTicketOwner(uint _ticketIndex) public view returns (address) {... */\n    tag_12:\n      callvalue\n      dup1\n      iszero\n      tag_63\n      jumpi\n      0x00\n      dup1\n      revert\n    tag_63:\n      pop\n      tag_64\n      0x04\n      dup1\n      calldatasize\n      sub\n      dup2\n      add\n      swap1\n      tag_65\n      swap2\n      swap1\n      tag_28\n      jump\t// in\n    tag_65:\n      tag_66\n      jump\t// in\n    tag_64:\n      mload(0x40)\n      tag_67\n      swap2\n      swap1\n      tag_44\n      jump\t// in\n    tag_67:\n      mload(0x40)\n      dup1\n      swap2\n      sub\n      swap1\n      return\n        /* \"contracts/Event.sol\":208:232  uint public totalTickets */\n    tag_13:\n      callvalue\n      dup1\n      iszero\n      tag_68\n      jumpi\n      0x00\n      dup1\n      revert\n    tag_68:\n      pop\n      tag_69\n      tag_70\n      jump\t// in\n    tag_69:\n      mload(0x40)\n      tag_71\n      swap2\n      swap1\n      tag_19\n      jump\t// in\n    tag_71:\n      mload(0x40)\n      dup1\n      swap2\n      sub\n      swap1\n      return\n        /* \"contracts/Event.sol\":152:171  uint public eventId */\n    tag_17:\n      sload(0x01)\n      dup2\n      jump\t// out\n        /* \"contracts/Event.sol\":862:991  function calculateTotalPrice(uint _quantity, uint _price) public pure returns (uint) {... */\n    tag_24:\n        /* \"contracts/Event.sol\":941:945  uint */\n      0x00\n        /* \"contracts/Event.sol\":977:983  _price */\n      dup2\n        /* \"contracts/Event.sol\":965:974  _quantity */\n      dup4\n        /* \"contracts/Event.sol\":965:983  _quantity * _price */\n      tag_73\n      swap2\n      swap1\n      tag_74\n      jump\t// in\n    tag_73:\n        /* \"contracts/Event.sol\":958:983  return _quantity * _price */\n      swap1\n      pop\n        /* \"contracts/Event.sol\":862:991  function calculateTotalPrice(uint _quantity, uint _price) public pure returns (uint) {... */\n      swap3\n      swap2\n      pop\n      pop\n      jump\t// out\n        /* \"contracts/Event.sol\":999:1612  function sellTickets(uint _quantity) external payable onlyOrganizer {... */\n    tag_29:\n        /* \"contracts/Event.sol\":778:787  organizer */\n      0x00\n      dup1\n      sload\n      swap1\n      0x0100\n      exp\n      swap1\n      div\n      0xffffffffffffffffffffffffffffffffffffffff\n      and\n        /* \"contracts/Event.sol\":764:787  msg.sender == organizer */\n      0xffffffffffffffffffffffffffffffffffffffff\n      and\n        /* \"contracts/Event.sol\":764:774  msg.sender */\n      caller\n        /* \"contracts/Event.sol\":764:787  msg.sender == organizer */\n      0xffffffffffffffffffffffffffffffffffffffff\n      and\n      eq\n        /* \"contracts/Event.sol\":756:834  require(msg.sender == organizer, \"Only the organizer can perform this action\") */\n      tag_76\n      jumpi\n      mload(0x40)\n      0x08c379a000000000000000000000000000000000000000000000000000000000\n      dup2\n      mstore\n      0x04\n      add\n      tag_77\n      swap1\n      tag_78\n      jump\t// in\n    tag_77:\n      mload(0x40)\n      dup1\n      swap2\n      sub\n      swap1\n      revert\n    tag_76:\n        /* \"contracts/Event.sol\":1078:1096  uint256 totalPrice */\n      0x00\n        /* \"contracts/Event.sol\":1099:1136  calculateTotalPrice(_quantity, price) */\n      tag_80\n        /* \"contracts/Event.sol\":1119:1128  _quantity */\n      dup3\n        /* \"contracts/Event.sol\":1130:1135  price */\n      sload(0x05)\n        /* \"contracts/Event.sol\":1099:1118  calculateTotalPrice */\n      tag_24\n        /* \"contracts/Event.sol\":1099:1136  calculateTotalPrice(_quantity, price) */\n      jump\t// in\n    tag_80:\n        /* \"contracts/Event.sol\":1078:1136  uint256 totalPrice = calculateTotalPrice(_quantity, price) */\n      swap1\n      pop\n        /* \"contracts/Event.sol\":1168:1178  totalPrice */\n      dup1\n        /* \"contracts/Event.sol\":1155:1164  msg.value */\n      callvalue\n        /* \"contracts/Event.sol\":1155:1178  msg.value >= totalPrice */\n      lt\n      iszero\n        /* \"contracts/Event.sol\":1147:1203  require(msg.value >= totalPrice, \"Insufficient payment\") */\n      tag_81\n      jumpi\n      mload(0x40)\n      0x08c379a000000000000000000000000000000000000000000000000000000000\n      dup2\n      mstore\n      0x04\n      add\n      tag_82\n      swap1\n      tag_83\n      jump\t// in\n    tag_82:\n      mload(0x40)\n      dup1\n      swap2\n      sub\n      swap1\n      revert\n    tag_81:\n        /* \"contracts/Event.sol\":1252:1264  totalTickets */\n      sload(0x03)\n        /* \"contracts/Event.sol\":1239:1248  _quantity */\n      dup3\n        /* \"contracts/Event.sol\":1222:1229  tickets */\n      0x06\n        /* \"contracts/Event.sol\":1222:1236  tickets.length */\n      dup1\n      sload\n      swap1\n      pop\n        /* \"contracts/Event.sol\":1222:1248  tickets.length + _quantity */\n      tag_84\n      swap2\n      swap1\n      tag_85\n      jump\t// in\n    tag_84:\n        /* \"contracts/Event.sol\":1222:1264  tickets.length + _quantity <= totalTickets */\n      gt\n      iszero\n        /* \"contracts/Event.sol\":1214:1297  require(tickets.length + _quantity <= totalTickets, \"Not enough tickets available\") */\n      tag_86\n      jumpi\n      mload(0x40)\n      0x08c379a000000000000000000000000000000000000000000000000000000000\n      dup2\n      mstore\n      0x04\n      add\n      tag_87\n      swap1\n      tag_88\n      jump\t// in\n    tag_87:\n      mload(0x40)\n      dup1\n      swap2\n      sub\n      swap1\n      revert\n    tag_86:\n        /* \"contracts/Event.sol\":1315:1324  uint256 i */\n      0x00\n        /* \"contracts/Event.sol\":1310:1521  for (uint256 i = 0; i < _quantity; i++) {... */\n    tag_89:\n        /* \"contracts/Event.sol\":1334:1343  _quantity */\n      dup3\n        /* \"contracts/Event.sol\":1330:1331  i */\n      dup2\n        /* \"contracts/Event.sol\":1330:1343  i < _quantity */\n      lt\n        /* \"contracts/Event.sol\":1310:1521  for (uint256 i = 0; i < _quantity; i++) {... */\n      iszero\n      tag_90\n      jumpi\n        /* \"contracts/Event.sol\":1365:1378  Ticket ticket */\n      0x00\n        /* \"contracts/Event.sol\":1381:1388  tickets */\n      0x06\n        /* \"contracts/Event.sol\":1403:1404  i */\n      dup3\n        /* \"contracts/Event.sol\":1389:1400  ticketsSold */\n      sload(0x04)\n        /* \"contracts/Event.sol\":1389:1404  ticketsSold + i */\n      tag_92\n      swap2\n      swap1\n      tag_85\n      jump\t// in\n    tag_92:\n        /* \"contracts/Event.sol\":1381:1405  tickets[ticketsSold + i] */\n      dup2\n      sload\n      dup2\n      lt\n      tag_93\n      jumpi\n      tag_94\n      tag_95\n      jump\t// in\n    tag_94:\n    tag_93:\n      swap1\n      0x00\n      mstore\n      keccak256(0x00, 0x20)\n      add\n      0x00\n      swap1\n      sload\n      swap1\n      0x0100\n      exp\n      swap1\n      div\n      0xffffffffffffffffffffffffffffffffffffffff\n      and\n        /* \"contracts/Event.sol\":1365:1405  Ticket ticket = tickets[ticketsSold + i] */\n      swap1\n      pop\n        /* \"contracts/Event.sol\":1420:1426  ticket */\n      dup1\n        /* \"contracts/Event.sol\":1420:1435  ticket.transfer */\n      0xffffffffffffffffffffffffffffffffffffffff\n      and\n      0x1a695230\n        /* \"contracts/Event.sol\":1436:1446  msg.sender */\n      caller\n        /* \"contracts/Event.sol\":1420:1447  ticket.transfer(msg.sender) */\n      mload(0x40)\n      dup3\n      0xffffffff\n      and\n      0xe0\n      shl\n      dup2\n      mstore\n      0x04\n      add\n      tag_97\n      swap2\n      swap1\n      tag_44\n      jump\t// in\n    tag_97:\n      0x00\n      mload(0x40)\n      dup1\n      dup4\n      sub\n      dup2\n      0x00\n      dup8\n      dup1\n      extcodesize\n      iszero\n      dup1\n      iszero\n      tag_98\n      jumpi\n      0x00\n      dup1\n      revert\n    tag_98:\n      pop\n      gas\n      call\n      iszero\n      dup1\n      iszero\n      tag_100\n      jumpi\n      returndatasize\n      0x00\n      dup1\n      returndatacopy\n      revert(0x00, returndatasize)\n    tag_100:\n      pop\n      pop\n      pop\n      pop\n        /* \"contracts/Event.sol\":1462:1475  ticketsOfUser */\n      0x07\n        /* \"contracts/Event.sol\":1462:1487  ticketsOfUser[msg.sender] */\n      0x00\n        /* \"contracts/Event.sol\":1476:1486  msg.sender */\n      caller\n        /* \"contracts/Event.sol\":1462:1487  ticketsOfUser[msg.sender] */\n      0xffffffffffffffffffffffffffffffffffffffff\n      and\n      0xffffffffffffffffffffffffffffffffffffffff\n      and\n      dup2\n      mstore\n      0x20\n      add\n      swap1\n      dup2\n      mstore\n      0x20\n      add\n      0x00\n      keccak256\n        /* \"contracts/Event.sol\":1507:1508  i */\n      dup3\n        /* \"contracts/Event.sol\":1493:1504  ticketsSold */\n      sload(0x04)\n        /* \"contracts/Event.sol\":1493:1508  ticketsSold + i */\n      tag_101\n      swap2\n      swap1\n      tag_85\n      jump\t// in\n    tag_101:\n        /* \"contracts/Event.sol\":1462:1509  ticketsOfUser[msg.sender].push(ticketsSold + i) */\n      swap1\n      dup1\n      0x01\n      dup2\n      sload\n      add\n      dup1\n      dup3\n      sstore\n      dup1\n      swap2\n      pop\n      pop\n      0x01\n      swap1\n      sub\n      swap1\n      0x00\n      mstore\n      keccak256(0x00, 0x20)\n      add\n      0x00\n      swap1\n      swap2\n      swap1\n      swap2\n      swap1\n      swap2\n      pop\n      sstore\n        /* \"contracts/Event.sol\":1350:1521  {... */\n      pop\n        /* \"contracts/Event.sol\":1345:1348  i++ */\n      dup1\n      dup1\n      0x01\n      add\n      swap2\n      pop\n      pop\n        /* \"contracts/Event.sol\":1310:1521  for (uint256 i = 0; i < _quantity; i++) {... */\n      jump(tag_89)\n    tag_90:\n      pop\n        /* \"contracts/Event.sol\":1548:1557  _quantity */\n      dup2\n        /* \"contracts/Event.sol\":1533:1544  ticketsSold */\n      0x04\n      0x00\n        /* \"contracts/Event.sol\":1533:1557  ticketsSold += _quantity */\n      dup3\n      dup3\n      sload\n      tag_103\n      swap2\n      swap1\n      tag_85\n      jump\t// in\n    tag_103:\n      swap3\n      pop\n      pop\n      dup2\n      swap1\n      sstore\n      pop\n        /* \"contracts/Event.sol\":1585:1592  eventId */\n      sload(0x01)\n        /* \"contracts/Event.sol\":1573:1604  TicketsSold(eventId, _quantity) */\n      0xf6acd85f0b35db26a981320acb3e23b6b638f9bbf413b4243677f421076e7d75\n        /* \"contracts/Event.sol\":1594:1603  _quantity */\n      dup4\n        /* \"contracts/Event.sol\":1573:1604  TicketsSold(eventId, _quantity) */\n      mload(0x40)\n      tag_104\n      swap2\n      swap1\n      tag_19\n      jump\t// in\n    tag_104:\n      mload(0x40)\n      dup1\n      swap2\n      sub\n      swap1\n      log2\n        /* \"contracts/Event.sol\":1067:1612  {... */\n      pop\n        /* \"contracts/Event.sol\":999:1612  function sellTickets(uint _quantity) external payable onlyOrganizer {... */\n      pop\n      jump\t// out\n        /* \"contracts/Event.sol\":293:316  Ticket[] public tickets */\n    tag_33:\n      0x06\n      dup2\n      dup2\n      sload\n      dup2\n      lt\n      tag_105\n      jumpi\n      0x00\n      dup1\n      revert\n    tag_105:\n      swap1\n      0x00\n      mstore\n      keccak256(0x00, 0x20)\n      add\n      0x00\n      swap2\n      pop\n      sload\n      swap1\n      0x0100\n      exp\n      swap1\n      div\n      0xffffffffffffffffffffffffffffffffffffffff\n      and\n      dup2\n      jump\t// out\n        /* \"contracts/Event.sol\":1929:2039  function getAvailableTickets() public view returns (uint) {... */\n    tag_38:\n        /* \"contracts/Event.sol\":1981:1985  uint */\n      0x00\n        /* \"contracts/Event.sol\":2020:2031  ticketsSold */\n      sload(0x04)\n        /* \"contracts/Event.sol\":2005:2017  totalTickets */\n      sload(0x03)\n        /* \"contracts/Event.sol\":2005:2031  totalTickets - ticketsSold */\n      tag_108\n      swap2\n      swap1\n      tag_109\n      jump\t// in\n    tag_108:\n        /* \"contracts/Event.sol\":1998:2031  return totalTickets - ticketsSold */\n      swap1\n      pop\n        /* \"contracts/Event.sol\":1929:2039  function getAvailableTickets() public view returns (uint) {... */\n      swap1\n      jump\t// out\n        /* \"contracts/Event.sol\":121:145  address public organizer */\n    tag_42:\n      0x00\n      dup1\n      sload\n      swap1\n      0x0100\n      exp\n      swap1\n      div\n      0xffffffffffffffffffffffffffffffffffffffff\n      and\n      dup2\n      jump\t// out\n        /* \"contracts/Event.sol\":1620:1921  function transferTicket(uint _ticketIndex, address _newOwner) external {... */\n    tag_49:\n        /* \"contracts/Event.sol\":1725:1732  tickets */\n      0x06\n        /* \"contracts/Event.sol\":1725:1739  tickets.length */\n      dup1\n      sload\n      swap1\n      pop\n        /* \"contracts/Event.sol\":1710:1722  _ticketIndex */\n      dup3\n        /* \"contracts/Event.sol\":1710:1739  _ticketIndex < tickets.length */\n      lt\n        /* \"contracts/Event.sol\":1702:1764  require(_ticketIndex < tickets.length, \"Invalid ticket index\") */\n      tag_111\n      jumpi\n      mload(0x40)\n      0x08c379a000000000000000000000000000000000000000000000000000000000\n      dup2\n      mstore\n      0x04\n      add\n      tag_112\n      swap1\n      tag_113\n      jump\t// in\n    tag_112:\n      mload(0x40)\n      dup1\n      swap2\n      sub\n      swap1\n      revert\n    tag_111:\n        /* \"contracts/Event.sol\":1785:1798  Ticket ticket */\n      0x00\n        /* \"contracts/Event.sol\":1801:1808  tickets */\n      0x06\n        /* \"contracts/Event.sol\":1809:1821  _ticketIndex */\n      dup4\n        /* \"contracts/Event.sol\":1801:1822  tickets[_ticketIndex] */\n      dup2\n      sload\n      dup2\n      lt\n      tag_114\n      jumpi\n      tag_115\n      tag_95\n      jump\t// in\n    tag_115:\n    tag_114:\n      swap1\n      0x00\n      mstore\n      keccak256(0x00, 0x20)\n      add\n      0x00\n      swap1\n      sload\n      swap1\n      0x0100\n      exp\n      swap1\n      div\n      0xffffffffffffffffffffffffffffffffffffffff\n      and\n        /* \"contracts/Event.sol\":1785:1822  Ticket ticket = tickets[_ticketIndex] */\n      swap1\n      pop\n        /* \"contracts/Event.sol\":1833:1839  ticket */\n      dup1\n        /* \"contracts/Event.sol\":1833:1848  ticket.transfer */\n      0xffffffffffffffffffffffffffffffffffffffff\n      and\n      0x1a695230\n        /* \"contracts/Event.sol\":1849:1858  _newOwner */\n      dup4\n        /* \"contracts/Event.sol\":1833:1859  ticket.transfer(_newOwner) */\n      mload(0x40)\n      dup3\n      0xffffffff\n      and\n      0xe0\n      shl\n      dup2\n      mstore\n      0x04\n      add\n      tag_117\n      swap2\n      swap1\n      tag_44\n      jump\t// in\n    tag_117:\n      0x00\n      mload(0x40)\n      dup1\n      dup4\n      sub\n      dup2\n      0x00\n      dup8\n      dup1\n      extcodesize\n      iszero\n      dup1\n      iszero\n      tag_118\n      jumpi\n      0x00\n      dup1\n      revert\n    tag_118:\n      pop\n      gas\n      call\n      iszero\n      dup1\n      iszero\n      tag_120\n      jumpi\n      returndatasize\n      0x00\n      dup1\n      returndatacopy\n      revert(0x00, returndatasize)\n    tag_120:\n      pop\n      pop\n      pop\n      pop\n        /* \"contracts/Event.sol\":1870:1883  ticketsOfUser */\n      0x07\n        /* \"contracts/Event.sol\":1870:1894  ticketsOfUser[_newOwner] */\n      0x00\n        /* \"contracts/Event.sol\":1884:1893  _newOwner */\n      dup4\n        /* \"contracts/Event.sol\":1870:1894  ticketsOfUser[_newOwner] */\n      0xffffffffffffffffffffffffffffffffffffffff\n      and\n      0xffffffffffffffffffffffffffffffffffffffff\n      and\n      dup2\n      mstore\n      0x20\n      add\n      swap1\n      dup2\n      mstore\n      0x20\n      add\n      0x00\n      keccak256\n        /* \"contracts/Event.sol\":1900:1912  _ticketIndex */\n      dup4\n        /* \"contracts/Event.sol\":1870:1913  ticketsOfUser[_newOwner].push(_ticketIndex) */\n      swap1\n      dup1\n      0x01\n      dup2\n      sload\n      add\n      dup1\n      dup3\n      sstore\n      dup1\n      swap2\n      pop\n      pop\n      0x01\n      swap1\n      sub\n      swap1\n      0x00\n      mstore\n      keccak256(0x00, 0x20)\n      add\n      0x00\n      swap1\n      swap2\n      swap1\n      swap2\n      swap1\n      swap2\n      pop\n      sstore\n        /* \"contracts/Event.sol\":1691:1921  {... */\n      pop\n        /* \"contracts/Event.sol\":1620:1921  function transferTicket(uint _ticketIndex, address _newOwner) external {... */\n      pop\n      pop\n      jump\t// out\n        /* \"contracts/Event.sol\":178:201  string public eventName */\n    tag_52:\n      0x02\n      dup1\n      sload\n      tag_122\n      swap1\n      tag_123\n      jump\t// in\n    tag_122:\n      dup1\n      0x1f\n      add\n      0x20\n      dup1\n      swap2\n      div\n      mul\n      0x20\n      add\n      mload(0x40)\n      swap1\n      dup2\n      add\n      0x40\n      mstore\n      dup1\n      swap3\n      swap2\n      swap1\n      dup2\n      dup2\n      mstore\n      0x20\n      add\n      dup3\n      dup1\n      sload\n      tag_124\n      swap1\n      tag_123\n      jump\t// in\n    tag_124:\n      dup1\n      iszero\n      tag_125\n      jumpi\n      dup1\n      0x1f\n      lt\n      tag_126\n      jumpi\n      0x0100\n      dup1\n      dup4\n      sload\n      div\n      mul\n      dup4\n      mstore\n      swap2\n      0x20\n      add\n      swap2\n      jump(tag_125)\n    tag_126:\n      dup3\n      add\n      swap2\n      swap1\n      0x00\n      mstore\n      keccak256(0x00, 0x20)\n      swap1\n    tag_127:\n      dup2\n      sload\n      dup2\n      mstore\n      swap1\n      0x01\n      add\n      swap1\n      0x20\n      add\n      dup1\n      dup4\n      gt\n      tag_127\n      jumpi\n      dup3\n      swap1\n      sub\n      0x1f\n      and\n      dup3\n      add\n      swap2\n    tag_125:\n      pop\n      pop\n      pop\n      pop\n      pop\n      dup2\n      jump\t// out\n        /* \"contracts/Event.sol\":239:262  uint public ticketsSold */\n    tag_57:\n      sload(0x04)\n      dup2\n      jump\t// out\n        /* \"contracts/Event.sol\":269:286  uint public price */\n    tag_61:\n      sload(0x05)\n      dup2\n      jump\t// out\n        /* \"contracts/Event.sol\":2047:2258  function getTicketOwner(uint _ticketIndex) public view returns (address) {... */\n    tag_66:\n        /* \"contracts/Event.sol\":2111:2118  address */\n      0x00\n        /* \"contracts/Event.sol\":2154:2161  tickets */\n      0x06\n        /* \"contracts/Event.sol\":2154:2168  tickets.length */\n      dup1\n      sload\n      swap1\n      pop\n        /* \"contracts/Event.sol\":2139:2151  _ticketIndex */\n      dup3\n        /* \"contracts/Event.sol\":2139:2168  _ticketIndex < tickets.length */\n      lt\n        /* \"contracts/Event.sol\":2131:2193  require(_ticketIndex < tickets.length, \"Invalid ticket index\") */\n      tag_129\n      jumpi\n      mload(0x40)\n      0x08c379a000000000000000000000000000000000000000000000000000000000\n      dup2\n      mstore\n      0x04\n      add\n      tag_130\n      swap1\n      tag_113\n      jump\t// in\n    tag_130:\n      mload(0x40)\n      dup1\n      swap2\n      sub\n      swap1\n      revert\n    tag_129:\n        /* \"contracts/Event.sol\":2221:2228  tickets */\n      0x06\n        /* \"contracts/Event.sol\":2229:2241  _ticketIndex */\n      dup3\n        /* \"contracts/Event.sol\":2221:2242  tickets[_ticketIndex] */\n      dup2\n      sload\n      dup2\n      lt\n      tag_131\n      jumpi\n      tag_132\n      tag_95\n      jump\t// in\n    tag_132:\n    tag_131:\n      swap1\n      0x00\n      mstore\n      keccak256(0x00, 0x20)\n      add\n      0x00\n      swap1\n      sload\n      swap1\n      0x0100\n      exp\n      swap1\n      div\n      0xffffffffffffffffffffffffffffffffffffffff\n      and\n        /* \"contracts/Event.sol\":2221:2248  tickets[_ticketIndex].owner */\n      0xffffffffffffffffffffffffffffffffffffffff\n      and\n      0x8da5cb5b\n        /* \"contracts/Event.sol\":2221:2250  tickets[_ticketIndex].owner() */\n      mload(0x40)\n      dup2\n      0xffffffff\n      and\n      0xe0\n      shl\n      dup2\n      mstore\n      0x04\n      add\n      0x20\n      mload(0x40)\n      dup1\n      dup4\n      sub\n      dup2\n      dup7\n      gas\n      staticcall\n      iszero\n      dup1\n      iszero\n      tag_135\n      jumpi\n      returndatasize\n      0x00\n      dup1\n      returndatacopy\n      revert(0x00, returndatasize)\n    tag_135:\n      pop\n      pop\n      pop\n      pop\n      mload(0x40)\n      returndatasize\n      not(0x1f)\n      0x1f\n      dup3\n      add\n      and\n      dup3\n      add\n      dup1\n      0x40\n      mstore\n      pop\n      dup2\n      add\n      swap1\n      tag_136\n      swap2\n      swap1\n      tag_137\n      jump\t// in\n    tag_136:\n        /* \"contracts/Event.sol\":2214:2250  return tickets[_ticketIndex].owner() */\n      swap1\n      pop\n        /* \"contracts/Event.sol\":2047:2258  function getTicketOwner(uint _ticketIndex) public view returns (address) {... */\n      swap2\n      swap1\n      pop\n      jump\t// out\n        /* \"contracts/Event.sol\":208:232  uint public totalTickets */\n    tag_70:\n      sload(0x03)\n      dup2\n      jump\t// out\n        /* \"#utility.yul\":7:84   */\n    tag_138:\n        /* \"#utility.yul\":44:51   */\n      0x00\n        /* \"#utility.yul\":73:78   */\n      dup2\n        /* \"#utility.yul\":62:78   */\n      swap1\n      pop\n        /* \"#utility.yul\":7:84   */\n      swap2\n      swap1\n      pop\n      jump\t// out\n        /* \"#utility.yul\":90:208   */\n    tag_139:\n        /* \"#utility.yul\":177:201   */\n      tag_174\n        /* \"#utility.yul\":195:200   */\n      dup2\n        /* \"#utility.yul\":177:201   */\n      tag_138\n      jump\t// in\n    tag_174:\n        /* \"#utility.yul\":172:175   */\n      dup3\n        /* \"#utility.yul\":165:202   */\n      mstore\n        /* \"#utility.yul\":90:208   */\n      pop\n      pop\n      jump\t// out\n        /* \"#utility.yul\":214:436   */\n    tag_19:\n        /* \"#utility.yul\":307:311   */\n      0x00\n        /* \"#utility.yul\":345:347   */\n      0x20\n        /* \"#utility.yul\":334:343   */\n      dup3\n        /* \"#utility.yul\":330:348   */\n      add\n        /* \"#utility.yul\":322:348   */\n      swap1\n      pop\n        /* \"#utility.yul\":358:429   */\n      tag_176\n        /* \"#utility.yul\":426:427   */\n      0x00\n        /* \"#utility.yul\":415:424   */\n      dup4\n        /* \"#utility.yul\":411:428   */\n      add\n        /* \"#utility.yul\":402:408   */\n      dup5\n        /* \"#utility.yul\":358:429   */\n      tag_139\n      jump\t// in\n    tag_176:\n        /* \"#utility.yul\":214:436   */\n      swap3\n      swap2\n      pop\n      pop\n      jump\t// out\n        /* \"#utility.yul\":523:640   */\n    tag_141:\n        /* \"#utility.yul\":632:633   */\n      0x00\n        /* \"#utility.yul\":629:630   */\n      dup1\n        /* \"#utility.yul\":622:634   */\n      revert\n        /* \"#utility.yul\":769:891   */\n    tag_143:\n        /* \"#utility.yul\":842:866   */\n      tag_181\n        /* \"#utility.yul\":860:865   */\n      dup2\n        /* \"#utility.yul\":842:866   */\n      tag_138\n      jump\t// in\n    tag_181:\n        /* \"#utility.yul\":835:840   */\n      dup2\n        /* \"#utility.yul\":832:867   */\n      eq\n        /* \"#utility.yul\":822:885   */\n      tag_182\n      jumpi\n        /* \"#utility.yul\":881:882   */\n      0x00\n        /* \"#utility.yul\":878:879   */\n      dup1\n        /* \"#utility.yul\":871:883   */\n      revert\n        /* \"#utility.yul\":822:885   */\n    tag_182:\n        /* \"#utility.yul\":769:891   */\n      pop\n      jump\t// out\n        /* \"#utility.yul\":897:1036   */\n    tag_144:\n        /* \"#utility.yul\":943:948   */\n      0x00\n        /* \"#utility.yul\":981:987   */\n      dup2\n        /* \"#utility.yul\":968:988   */\n      calldataload\n        /* \"#utility.yul\":959:988   */\n      swap1\n      pop\n        /* \"#utility.yul\":997:1030   */\n      tag_184\n        /* \"#utility.yul\":1024:1029   */\n      dup2\n        /* \"#utility.yul\":997:1030   */\n      tag_143\n      jump\t// in\n    tag_184:\n        /* \"#utility.yul\":897:1036   */\n      swap3\n      swap2\n      pop\n      pop\n      jump\t// out\n        /* \"#utility.yul\":1042:1516   */\n    tag_23:\n        /* \"#utility.yul\":1110:1116   */\n      0x00\n        /* \"#utility.yul\":1118:1124   */\n      dup1\n        /* \"#utility.yul\":1167:1169   */\n      0x40\n        /* \"#utility.yul\":1155:1164   */\n      dup4\n        /* \"#utility.yul\":1146:1153   */\n      dup6\n        /* \"#utility.yul\":1142:1165   */\n      sub\n        /* \"#utility.yul\":1138:1170   */\n      slt\n        /* \"#utility.yul\":1135:1254   */\n      iszero\n      tag_186\n      jumpi\n        /* \"#utility.yul\":1173:1252   */\n      tag_187\n      tag_141\n      jump\t// in\n    tag_187:\n        /* \"#utility.yul\":1135:1254   */\n    tag_186:\n        /* \"#utility.yul\":1293:1294   */\n      0x00\n        /* \"#utility.yul\":1318:1371   */\n      tag_188\n        /* \"#utility.yul\":1363:1370   */\n      dup6\n        /* \"#utility.yul\":1354:1360   */\n      dup3\n        /* \"#utility.yul\":1343:1352   */\n      dup7\n        /* \"#utility.yul\":1339:1361   */\n      add\n        /* \"#utility.yul\":1318:1371   */\n      tag_144\n      jump\t// in\n    tag_188:\n        /* \"#utility.yul\":1308:1371   */\n      swap3\n      pop\n        /* \"#utility.yul\":1264:1381   */\n      pop\n        /* \"#utility.yul\":1420:1422   */\n      0x20\n        /* \"#utility.yul\":1446:1499   */\n      tag_189\n        /* \"#utility.yul\":1491:1498   */\n      dup6\n        /* \"#utility.yul\":1482:1488   */\n      dup3\n        /* \"#utility.yul\":1471:1480   */\n      dup7\n        /* \"#utility.yul\":1467:1489   */\n      add\n        /* \"#utility.yul\":1446:1499   */\n      tag_144\n      jump\t// in\n    tag_189:\n        /* \"#utility.yul\":1436:1499   */\n      swap2\n      pop\n        /* \"#utility.yul\":1391:1509   */\n      pop\n        /* \"#utility.yul\":1042:1516   */\n      swap3\n      pop\n      swap3\n      swap1\n      pop\n      jump\t// out\n        /* \"#utility.yul\":1522:1851   */\n    tag_28:\n        /* \"#utility.yul\":1581:1587   */\n      0x00\n        /* \"#utility.yul\":1630:1632   */\n      0x20\n        /* \"#utility.yul\":1618:1627   */\n      dup3\n        /* \"#utility.yul\":1609:1616   */\n      dup5\n        /* \"#utility.yul\":1605:1628   */\n      sub\n        /* \"#utility.yul\":1601:1633   */\n      slt\n        /* \"#utility.yul\":1598:1717   */\n      iszero\n      tag_191\n      jumpi\n        /* \"#utility.yul\":1636:1715   */\n      tag_192\n      tag_141\n      jump\t// in\n    tag_192:\n        /* \"#utility.yul\":1598:1717   */\n    tag_191:\n        /* \"#utility.yul\":1756:1757   */\n      0x00\n        /* \"#utility.yul\":1781:1834   */\n      tag_193\n        /* \"#utility.yul\":1826:1833   */\n      dup5\n        /* \"#utility.yul\":1817:1823   */\n      dup3\n        /* \"#utility.yul\":1806:1815   */\n      dup6\n        /* \"#utility.yul\":1802:1824   */\n      add\n        /* \"#utility.yul\":1781:1834   */\n      tag_144\n      jump\t// in\n    tag_193:\n        /* \"#utility.yul\":1771:1834   */\n      swap2\n      pop\n        /* \"#utility.yul\":1727:1844   */\n      pop\n        /* \"#utility.yul\":1522:1851   */\n      swap3\n      swap2\n      pop\n      pop\n      jump\t// out\n        /* \"#utility.yul\":1857:1983   */\n    tag_145:\n        /* \"#utility.yul\":1894:1901   */\n      0x00\n        /* \"#utility.yul\":1934:1976   */\n      0xffffffffffffffffffffffffffffffffffffffff\n        /* \"#utility.yul\":1927:1932   */\n      dup3\n        /* \"#utility.yul\":1923:1977   */\n      and\n        /* \"#utility.yul\":1912:1977   */\n      swap1\n      pop\n        /* \"#utility.yul\":1857:1983   */\n      swap2\n      swap1\n      pop\n      jump\t// out\n        /* \"#utility.yul\":1989:2049   */\n    tag_146:\n        /* \"#utility.yul\":2017:2020   */\n      0x00\n        /* \"#utility.yul\":2038:2043   */\n      dup2\n        /* \"#utility.yul\":2031:2043   */\n      swap1\n      pop\n        /* \"#utility.yul\":1989:2049   */\n      swap2\n      swap1\n      pop\n      jump\t// out\n        /* \"#utility.yul\":2055:2197   */\n    tag_147:\n        /* \"#utility.yul\":2105:2114   */\n      0x00\n        /* \"#utility.yul\":2138:2191   */\n      tag_197\n        /* \"#utility.yul\":2156:2190   */\n      tag_198\n        /* \"#utility.yul\":2165:2189   */\n      tag_199\n        /* \"#utility.yul\":2183:2188   */\n      dup5\n        /* \"#utility.yul\":2165:2189   */\n      tag_145\n      jump\t// in\n    tag_199:\n        /* \"#utility.yul\":2156:2190   */\n      tag_146\n      jump\t// in\n    tag_198:\n        /* \"#utility.yul\":2138:2191   */\n      tag_145\n      jump\t// in\n    tag_197:\n        /* \"#utility.yul\":2125:2191   */\n      swap1\n      pop\n        /* \"#utility.yul\":2055:2197   */\n      swap2\n      swap1\n      pop\n      jump\t// out\n        /* \"#utility.yul\":2203:2329   */\n    tag_148:\n        /* \"#utility.yul\":2253:2262   */\n      0x00\n        /* \"#utility.yul\":2286:2323   */\n      tag_201\n        /* \"#utility.yul\":2317:2322   */\n      dup3\n        /* \"#utility.yul\":2286:2323   */\n      tag_147\n      jump\t// in\n    tag_201:\n        /* \"#utility.yul\":2273:2323   */\n      swap1\n      pop\n        /* \"#utility.yul\":2203:2329   */\n      swap2\n      swap1\n      pop\n      jump\t// out\n        /* \"#utility.yul\":2335:2475   */\n    tag_149:\n        /* \"#utility.yul\":2399:2408   */\n      0x00\n        /* \"#utility.yul\":2432:2469   */\n      tag_203\n        /* \"#utility.yul\":2463:2468   */\n      dup3\n        /* \"#utility.yul\":2432:2469   */\n      tag_148\n      jump\t// in\n    tag_203:\n        /* \"#utility.yul\":2419:2469   */\n      swap1\n      pop\n        /* \"#utility.yul\":2335:2475   */\n      swap2\n      swap1\n      pop\n      jump\t// out\n        /* \"#utility.yul\":2481:2640   */\n    tag_150:\n        /* \"#utility.yul\":2582:2633   */\n      tag_205\n        /* \"#utility.yul\":2627:2632   */\n      dup2\n        /* \"#utility.yul\":2582:2633   */\n      tag_149\n      jump\t// in\n    tag_205:\n        /* \"#utility.yul\":2577:2580   */\n      dup3\n        /* \"#utility.yul\":2570:2634   */\n      mstore\n        /* \"#utility.yul\":2481:2640   */\n      pop\n      pop\n      jump\t// out\n        /* \"#utility.yul\":2646:2896   */\n    tag_35:\n        /* \"#utility.yul\":2753:2757   */\n      0x00\n        /* \"#utility.yul\":2791:2793   */\n      0x20\n        /* \"#utility.yul\":2780:2789   */\n      dup3\n        /* \"#utility.yul\":2776:2794   */\n      add\n        /* \"#utility.yul\":2768:2794   */\n      swap1\n      pop\n        /* \"#utility.yul\":2804:2889   */\n      tag_207\n        /* \"#utility.yul\":2886:2887   */\n      0x00\n        /* \"#utility.yul\":2875:2884   */\n      dup4\n        /* \"#utility.yul\":2871:2888   */\n      add\n        /* \"#utility.yul\":2862:2868   */\n      dup5\n        /* \"#utility.yul\":2804:2889   */\n      tag_150\n      jump\t// in\n    tag_207:\n        /* \"#utility.yul\":2646:2896   */\n      swap3\n      swap2\n      pop\n      pop\n      jump\t// out\n        /* \"#utility.yul\":2902:2998   */\n    tag_151:\n        /* \"#utility.yul\":2939:2946   */\n      0x00\n        /* \"#utility.yul\":2968:2992   */\n      tag_209\n        /* \"#utility.yul\":2986:2991   */\n      dup3\n        /* \"#utility.yul\":2968:2992   */\n      tag_145\n      jump\t// in\n    tag_209:\n        /* \"#utility.yul\":2957:2992   */\n      swap1\n      pop\n        /* \"#utility.yul\":2902:2998   */\n      swap2\n      swap1\n      pop\n      jump\t// out\n        /* \"#utility.yul\":3004:3122   */\n    tag_152:\n        /* \"#utility.yul\":3091:3115   */\n      tag_211\n        /* \"#utility.yul\":3109:3114   */\n      dup2\n        /* \"#utility.yul\":3091:3115   */\n      tag_151\n      jump\t// in\n    tag_211:\n        /* \"#utility.yul\":3086:3089   */\n      dup3\n        /* \"#utility.yul\":3079:3116   */\n      mstore\n        /* \"#utility.yul\":3004:3122   */\n      pop\n      pop\n      jump\t// out\n        /* \"#utility.yul\":3128:3350   */\n    tag_44:\n        /* \"#utility.yul\":3221:3225   */\n      0x00\n        /* \"#utility.yul\":3259:3261   */\n      0x20\n        /* \"#utility.yul\":3248:3257   */\n      dup3\n        /* \"#utility.yul\":3244:3262   */\n      add\n        /* \"#utility.yul\":3236:3262   */\n      swap1\n      pop\n        /* \"#utility.yul\":3272:3343   */\n      tag_213\n        /* \"#utility.yul\":3340:3341   */\n      0x00\n        /* \"#utility.yul\":3329:3338   */\n      dup4\n        /* \"#utility.yul\":3325:3342   */\n      add\n        /* \"#utility.yul\":3316:3322   */\n      dup5\n        /* \"#utility.yul\":3272:3343   */\n      tag_152\n      jump\t// in\n    tag_213:\n        /* \"#utility.yul\":3128:3350   */\n      swap3\n      swap2\n      pop\n      pop\n      jump\t// out\n        /* \"#utility.yul\":3356:3478   */\n    tag_153:\n        /* \"#utility.yul\":3429:3453   */\n      tag_215\n        /* \"#utility.yul\":3447:3452   */\n      dup2\n        /* \"#utility.yul\":3429:3453   */\n      tag_151\n      jump\t// in\n    tag_215:\n        /* \"#utility.yul\":3422:3427   */\n      dup2\n        /* \"#utility.yul\":3419:3454   */\n      eq\n        /* \"#utility.yul\":3409:3472   */\n      tag_216\n      jumpi\n        /* \"#utility.yul\":3468:3469   */\n      0x00\n        /* \"#utility.yul\":3465:3466   */\n      dup1\n        /* \"#utility.yul\":3458:3470   */\n      revert\n        /* \"#utility.yul\":3409:3472   */\n    tag_216:\n        /* \"#utility.yul\":3356:3478   */\n      pop\n      jump\t// out\n        /* \"#utility.yul\":3484:3623   */\n    tag_154:\n        /* \"#utility.yul\":3530:3535   */\n      0x00\n        /* \"#utility.yul\":3568:3574   */\n      dup2\n        /* \"#utility.yul\":3555:3575   */\n      calldataload\n        /* \"#utility.yul\":3546:3575   */\n      swap1\n      pop\n        /* \"#utility.yul\":3584:3617   */\n      tag_218\n        /* \"#utility.yul\":3611:3616   */\n      dup2\n        /* \"#utility.yul\":3584:3617   */\n      tag_153\n      jump\t// in\n    tag_218:\n        /* \"#utility.yul\":3484:3623   */\n      swap3\n      swap2\n      pop\n      pop\n      jump\t// out\n        /* \"#utility.yul\":3629:4103   */\n    tag_48:\n        /* \"#utility.yul\":3697:3703   */\n      0x00\n        /* \"#utility.yul\":3705:3711   */\n      dup1\n        /* \"#utility.yul\":3754:3756   */\n      0x40\n        /* \"#utility.yul\":3742:3751   */\n      dup4\n        /* \"#utility.yul\":3733:3740   */\n      dup6\n        /* \"#utility.yul\":3729:3752   */\n      sub\n        /* \"#utility.yul\":3725:3757   */\n      slt\n        /* \"#utility.yul\":3722:3841   */\n      iszero\n      tag_220\n      jumpi\n        /* \"#utility.yul\":3760:3839   */\n      tag_221\n      tag_141\n      jump\t// in\n    tag_221:\n        /* \"#utility.yul\":3722:3841   */\n    tag_220:\n        /* \"#utility.yul\":3880:3881   */\n      0x00\n        /* \"#utility.yul\":3905:3958   */\n      tag_222\n        /* \"#utility.yul\":3950:3957   */\n      dup6\n        /* \"#utility.yul\":3941:3947   */\n      dup3\n        /* \"#utility.yul\":3930:3939   */\n      dup7\n        /* \"#utility.yul\":3926:3948   */\n      add\n        /* \"#utility.yul\":3905:3958   */\n      tag_144\n      jump\t// in\n    tag_222:\n        /* \"#utility.yul\":3895:3958   */\n      swap3\n      pop\n        /* \"#utility.yul\":3851:3968   */\n      pop\n        /* \"#utility.yul\":4007:4009   */\n      0x20\n        /* \"#utility.yul\":4033:4086   */\n      tag_223\n        /* \"#utility.yul\":4078:4085   */\n      dup6\n        /* \"#utility.yul\":4069:4075   */\n      dup3\n        /* \"#utility.yul\":4058:4067   */\n      dup7\n        /* \"#utility.yul\":4054:4076   */\n      add\n        /* \"#utility.yul\":4033:4086   */\n      tag_154\n      jump\t// in\n    tag_223:\n        /* \"#utility.yul\":4023:4086   */\n      swap2\n      pop\n        /* \"#utility.yul\":3978:4096   */\n      pop\n        /* \"#utility.yul\":3629:4103   */\n      swap3\n      pop\n      swap3\n      swap1\n      pop\n      jump\t// out\n        /* \"#utility.yul\":4109:4208   */\n    tag_155:\n        /* \"#utility.yul\":4161:4167   */\n      0x00\n        /* \"#utility.yul\":4195:4200   */\n      dup2\n        /* \"#utility.yul\":4189:4201   */\n      mload\n        /* \"#utility.yul\":4179:4201   */\n      swap1\n      pop\n        /* \"#utility.yul\":4109:4208   */\n      swap2\n      swap1\n      pop\n      jump\t// out\n        /* \"#utility.yul\":4214:4383   */\n    tag_156:\n        /* \"#utility.yul\":4298:4309   */\n      0x00\n        /* \"#utility.yul\":4332:4338   */\n      dup3\n        /* \"#utility.yul\":4327:4330   */\n      dup3\n        /* \"#utility.yul\":4320:4339   */\n      mstore\n        /* \"#utility.yul\":4372:4376   */\n      0x20\n        /* \"#utility.yul\":4367:4370   */\n      dup3\n        /* \"#utility.yul\":4363:4377   */\n      add\n        /* \"#utility.yul\":4348:4377   */\n      swap1\n      pop\n        /* \"#utility.yul\":4214:4383   */\n      swap3\n      swap2\n      pop\n      pop\n      jump\t// out\n        /* \"#utility.yul\":4389:4528   */\n    tag_157:\n        /* \"#utility.yul\":4478:4484   */\n      dup3\n        /* \"#utility.yul\":4473:4476   */\n      dup2\n        /* \"#utility.yul\":4468:4471   */\n      dup4\n        /* \"#utility.yul\":4462:4485   */\n      mcopy\n        /* \"#utility.yul\":4519:4520   */\n      0x00\n        /* \"#utility.yul\":4510:4516   */\n      dup4\n        /* \"#utility.yul\":4505:4508   */\n      dup4\n        /* \"#utility.yul\":4501:4517   */\n      add\n        /* \"#utility.yul\":4494:4521   */\n      mstore\n        /* \"#utility.yul\":4389:4528   */\n      pop\n      pop\n      pop\n      jump\t// out\n        /* \"#utility.yul\":4534:4636   */\n    tag_158:\n        /* \"#utility.yul\":4575:4581   */\n      0x00\n        /* \"#utility.yul\":4626:4628   */\n      0x1f\n        /* \"#utility.yul\":4622:4629   */\n      not\n        /* \"#utility.yul\":4617:4619   */\n      0x1f\n        /* \"#utility.yul\":4610:4615   */\n      dup4\n        /* \"#utility.yul\":4606:4620   */\n      add\n        /* \"#utility.yul\":4602:4630   */\n      and\n        /* \"#utility.yul\":4592:4630   */\n      swap1\n      pop\n        /* \"#utility.yul\":4534:4636   */\n      swap2\n      swap1\n      pop\n      jump\t// out\n        /* \"#utility.yul\":4642:5019   */\n    tag_159:\n        /* \"#utility.yul\":4730:4733   */\n      0x00\n        /* \"#utility.yul\":4758:4797   */\n      tag_229\n        /* \"#utility.yul\":4791:4796   */\n      dup3\n        /* \"#utility.yul\":4758:4797   */\n      tag_155\n      jump\t// in\n    tag_229:\n        /* \"#utility.yul\":4813:4884   */\n      tag_230\n        /* \"#utility.yul\":4877:4883   */\n      dup2\n        /* \"#utility.yul\":4872:4875   */\n      dup6\n        /* \"#utility.yul\":4813:4884   */\n      tag_156\n      jump\t// in\n    tag_230:\n        /* \"#utility.yul\":4806:4884   */\n      swap4\n      pop\n        /* \"#utility.yul\":4893:4958   */\n      tag_231\n        /* \"#utility.yul\":4951:4957   */\n      dup2\n        /* \"#utility.yul\":4946:4949   */\n      dup6\n        /* \"#utility.yul\":4939:4943   */\n      0x20\n        /* \"#utility.yul\":4932:4937   */\n      dup7\n        /* \"#utility.yul\":4928:4944   */\n      add\n        /* \"#utility.yul\":4893:4958   */\n      tag_157\n      jump\t// in\n    tag_231:\n        /* \"#utility.yul\":4983:5012   */\n      tag_232\n        /* \"#utility.yul\":5005:5011   */\n      dup2\n        /* \"#utility.yul\":4983:5012   */\n      tag_158\n      jump\t// in\n    tag_232:\n        /* \"#utility.yul\":4978:4981   */\n      dup5\n        /* \"#utility.yul\":4974:5013   */\n      add\n        /* \"#utility.yul\":4967:5013   */\n      swap2\n      pop\n        /* \"#utility.yul\":4734:5019   */\n      pop\n        /* \"#utility.yul\":4642:5019   */\n      swap3\n      swap2\n      pop\n      pop\n      jump\t// out\n        /* \"#utility.yul\":5025:5338   */\n    tag_54:\n        /* \"#utility.yul\":5138:5142   */\n      0x00\n        /* \"#utility.yul\":5176:5178   */\n      0x20\n        /* \"#utility.yul\":5165:5174   */\n      dup3\n        /* \"#utility.yul\":5161:5179   */\n      add\n        /* \"#utility.yul\":5153:5179   */\n      swap1\n      pop\n        /* \"#utility.yul\":5225:5234   */\n      dup2\n        /* \"#utility.yul\":5219:5223   */\n      dup2\n        /* \"#utility.yul\":5215:5235   */\n      sub\n        /* \"#utility.yul\":5211:5212   */\n      0x00\n        /* \"#utility.yul\":5200:5209   */\n      dup4\n        /* \"#utility.yul\":5196:5213   */\n      add\n        /* \"#utility.yul\":5189:5236   */\n      mstore\n        /* \"#utility.yul\":5253:5331   */\n      tag_234\n        /* \"#utility.yul\":5326:5330   */\n      dup2\n        /* \"#utility.yul\":5317:5323   */\n      dup5\n        /* \"#utility.yul\":5253:5331   */\n      tag_159\n      jump\t// in\n    tag_234:\n        /* \"#utility.yul\":5245:5331   */\n      swap1\n      pop\n        /* \"#utility.yul\":5025:5338   */\n      swap3\n      swap2\n      pop\n      pop\n      jump\t// out\n        /* \"#utility.yul\":5344:5524   */\n    tag_160:\n        /* \"#utility.yul\":5392:5469   */\n      0x4e487b7100000000000000000000000000000000000000000000000000000000\n        /* \"#utility.yul\":5389:5390   */\n      0x00\n        /* \"#utility.yul\":5382:5470   */\n      mstore\n        /* \"#utility.yul\":5489:5493   */\n      0x11\n        /* \"#utility.yul\":5486:5487   */\n      0x04\n        /* \"#utility.yul\":5479:5494   */\n      mstore\n        /* \"#utility.yul\":5513:5517   */\n      0x24\n        /* \"#utility.yul\":5510:5511   */\n      0x00\n        /* \"#utility.yul\":5503:5518   */\n      revert\n        /* \"#utility.yul\":5530:5940   */\n    tag_74:\n        /* \"#utility.yul\":5570:5577   */\n      0x00\n        /* \"#utility.yul\":5593:5613   */\n      tag_237\n        /* \"#utility.yul\":5611:5612   */\n      dup3\n        /* \"#utility.yul\":5593:5613   */\n      tag_138\n      jump\t// in\n    tag_237:\n        /* \"#utility.yul\":5588:5613   */\n      swap2\n      pop\n        /* \"#utility.yul\":5627:5647   */\n      tag_238\n        /* \"#utility.yul\":5645:5646   */\n      dup4\n        /* \"#utility.yul\":5627:5647   */\n      tag_138\n      jump\t// in\n    tag_238:\n        /* \"#utility.yul\":5622:5647   */\n      swap3\n      pop\n        /* \"#utility.yul\":5682:5683   */\n      dup3\n        /* \"#utility.yul\":5679:5680   */\n      dup3\n        /* \"#utility.yul\":5675:5684   */\n      mul\n        /* \"#utility.yul\":5704:5734   */\n      tag_239\n        /* \"#utility.yul\":5722:5733   */\n      dup2\n        /* \"#utility.yul\":5704:5734   */\n      tag_138\n      jump\t// in\n    tag_239:\n        /* \"#utility.yul\":5693:5734   */\n      swap2\n      pop\n        /* \"#utility.yul\":5883:5884   */\n      dup3\n        /* \"#utility.yul\":5874:5881   */\n      dup3\n        /* \"#utility.yul\":5870:5885   */\n      div\n        /* \"#utility.yul\":5867:5868   */\n      dup5\n        /* \"#utility.yul\":5864:5886   */\n      eq\n        /* \"#utility.yul\":5844:5845   */\n      dup4\n        /* \"#utility.yul\":5837:5846   */\n      iszero\n        /* \"#utility.yul\":5817:5900   */\n      or\n        /* \"#utility.yul\":5794:5933   */\n      tag_240\n      jumpi\n        /* \"#utility.yul\":5913:5931   */\n      tag_241\n      tag_160\n      jump\t// in\n    tag_241:\n        /* \"#utility.yul\":5794:5933   */\n    tag_240:\n        /* \"#utility.yul\":5578:5940   */\n      pop\n        /* \"#utility.yul\":5530:5940   */\n      swap3\n      swap2\n      pop\n      pop\n      jump\t// out\n        /* \"#utility.yul\":5946:6175   */\n    tag_161:\n        /* \"#utility.yul\":6086:6120   */\n      0x4f6e6c7920746865206f7267616e697a65722063616e20706572666f726d2074\n        /* \"#utility.yul\":6082:6083   */\n      0x00\n        /* \"#utility.yul\":6074:6080   */\n      dup3\n        /* \"#utility.yul\":6070:6084   */\n      add\n        /* \"#utility.yul\":6063:6121   */\n      mstore\n        /* \"#utility.yul\":6155:6167   */\n      0x68697320616374696f6e00000000000000000000000000000000000000000000\n        /* \"#utility.yul\":6150:6152   */\n      0x20\n        /* \"#utility.yul\":6142:6148   */\n      dup3\n        /* \"#utility.yul\":6138:6153   */\n      add\n        /* \"#utility.yul\":6131:6168   */\n      mstore\n        /* \"#utility.yul\":5946:6175   */\n      pop\n      jump\t// out\n        /* \"#utility.yul\":6181:6547   */\n    tag_162:\n        /* \"#utility.yul\":6323:6326   */\n      0x00\n        /* \"#utility.yul\":6344:6411   */\n      tag_244\n        /* \"#utility.yul\":6408:6410   */\n      0x2a\n        /* \"#utility.yul\":6403:6406   */\n      dup4\n        /* \"#utility.yul\":6344:6411   */\n      tag_156\n      jump\t// in\n    tag_244:\n        /* \"#utility.yul\":6337:6411   */\n      swap2\n      pop\n        /* \"#utility.yul\":6420:6513   */\n      tag_245\n        /* \"#utility.yul\":6509:6512   */\n      dup3\n        /* \"#utility.yul\":6420:6513   */\n      tag_161\n      jump\t// in\n    tag_245:\n        /* \"#utility.yul\":6538:6540   */\n      0x40\n        /* \"#utility.yul\":6533:6536   */\n      dup3\n        /* \"#utility.yul\":6529:6541   */\n      add\n        /* \"#utility.yul\":6522:6541   */\n      swap1\n      pop\n        /* \"#utility.yul\":6181:6547   */\n      swap2\n      swap1\n      pop\n      jump\t// out\n        /* \"#utility.yul\":6553:6972   */\n    tag_78:\n        /* \"#utility.yul\":6719:6723   */\n      0x00\n        /* \"#utility.yul\":6757:6759   */\n      0x20\n        /* \"#utility.yul\":6746:6755   */\n      dup3\n        /* \"#utility.yul\":6742:6760   */\n      add\n        /* \"#utility.yul\":6734:6760   */\n      swap1\n      pop\n        /* \"#utility.yul\":6806:6815   */\n      dup2\n        /* \"#utility.yul\":6800:6804   */\n      dup2\n        /* \"#utility.yul\":6796:6816   */\n      sub\n        /* \"#utility.yul\":6792:6793   */\n      0x00\n        /* \"#utility.yul\":6781:6790   */\n      dup4\n        /* \"#utility.yul\":6777:6794   */\n      add\n        /* \"#utility.yul\":6770:6817   */\n      mstore\n        /* \"#utility.yul\":6834:6965   */\n      tag_247\n        /* \"#utility.yul\":6960:6964   */\n      dup2\n        /* \"#utility.yul\":6834:6965   */\n      tag_162\n      jump\t// in\n    tag_247:\n        /* \"#utility.yul\":6826:6965   */\n      swap1\n      pop\n        /* \"#utility.yul\":6553:6972   */\n      swap2\n      swap1\n      pop\n      jump\t// out\n        /* \"#utility.yul\":6978:7148   */\n    tag_163:\n        /* \"#utility.yul\":7118:7140   */\n      0x496e73756666696369656e74207061796d656e74000000000000000000000000\n        /* \"#utility.yul\":7114:7115   */\n      0x00\n        /* \"#utility.yul\":7106:7112   */\n      dup3\n        /* \"#utility.yul\":7102:7116   */\n      add\n        /* \"#utility.yul\":7095:7141   */\n      mstore\n        /* \"#utility.yul\":6978:7148   */\n      pop\n      jump\t// out\n        /* \"#utility.yul\":7154:7520   */\n    tag_164:\n        /* \"#utility.yul\":7296:7299   */\n      0x00\n        /* \"#utility.yul\":7317:7384   */\n      tag_250\n        /* \"#utility.yul\":7381:7383   */\n      0x14\n        /* \"#utility.yul\":7376:7379   */\n      dup4\n        /* \"#utility.yul\":7317:7384   */\n      tag_156\n      jump\t// in\n    tag_250:\n        /* \"#utility.yul\":7310:7384   */\n      swap2\n      pop\n        /* \"#utility.yul\":7393:7486   */\n      tag_251\n        /* \"#utility.yul\":7482:7485   */\n      dup3\n        /* \"#utility.yul\":7393:7486   */\n      tag_163\n      jump\t// in\n    tag_251:\n        /* \"#utility.yul\":7511:7513   */\n      0x20\n        /* \"#utility.yul\":7506:7509   */\n      dup3\n        /* \"#utility.yul\":7502:7514   */\n      add\n        /* \"#utility.yul\":7495:7514   */\n      swap1\n      pop\n        /* \"#utility.yul\":7154:7520   */\n      swap2\n      swap1\n      pop\n      jump\t// out\n        /* \"#utility.yul\":7526:7945   */\n    tag_83:\n        /* \"#utility.yul\":7692:7696   */\n      0x00\n        /* \"#utility.yul\":7730:7732   */\n      0x20\n        /* \"#utility.yul\":7719:7728   */\n      dup3\n        /* \"#utility.yul\":7715:7733   */\n      add\n        /* \"#utility.yul\":7707:7733   */\n      swap1\n      pop\n        /* \"#utility.yul\":7779:7788   */\n      dup2\n        /* \"#utility.yul\":7773:7777   */\n      dup2\n        /* \"#utility.yul\":7769:7789   */\n      sub\n        /* \"#utility.yul\":7765:7766   */\n      0x00\n        /* \"#utility.yul\":7754:7763   */\n      dup4\n        /* \"#utility.yul\":7750:7767   */\n      add\n        /* \"#utility.yul\":7743:7790   */\n      mstore\n        /* \"#utility.yul\":7807:7938   */\n      tag_253\n        /* \"#utility.yul\":7933:7937   */\n      dup2\n        /* \"#utility.yul\":7807:7938   */\n      tag_164\n      jump\t// in\n    tag_253:\n        /* \"#utility.yul\":7799:7938   */\n      swap1\n      pop\n        /* \"#utility.yul\":7526:7945   */\n      swap2\n      swap1\n      pop\n      jump\t// out\n        /* \"#utility.yul\":7951:8142   */\n    tag_85:\n        /* \"#utility.yul\":7991:7994   */\n      0x00\n        /* \"#utility.yul\":8010:8030   */\n      tag_255\n        /* \"#utility.yul\":8028:8029   */\n      dup3\n        /* \"#utility.yul\":8010:8030   */\n      tag_138\n      jump\t// in\n    tag_255:\n        /* \"#utility.yul\":8005:8030   */\n      swap2\n      pop\n        /* \"#utility.yul\":8044:8064   */\n      tag_256\n        /* \"#utility.yul\":8062:8063   */\n      dup4\n        /* \"#utility.yul\":8044:8064   */\n      tag_138\n      jump\t// in\n    tag_256:\n        /* \"#utility.yul\":8039:8064   */\n      swap3\n      pop\n        /* \"#utility.yul\":8087:8088   */\n      dup3\n        /* \"#utility.yul\":8084:8085   */\n      dup3\n        /* \"#utility.yul\":8080:8089   */\n      add\n        /* \"#utility.yul\":8073:8089   */\n      swap1\n      pop\n        /* \"#utility.yul\":8108:8111   */\n      dup1\n        /* \"#utility.yul\":8105:8106   */\n      dup3\n        /* \"#utility.yul\":8102:8112   */\n      gt\n        /* \"#utility.yul\":8099:8135   */\n      iszero\n      tag_257\n      jumpi\n        /* \"#utility.yul\":8115:8133   */\n      tag_258\n      tag_160\n      jump\t// in\n    tag_258:\n        /* \"#utility.yul\":8099:8135   */\n    tag_257:\n        /* \"#utility.yul\":7951:8142   */\n      swap3\n      swap2\n      pop\n      pop\n      jump\t// out\n        /* \"#utility.yul\":8148:8326   */\n    tag_165:\n        /* \"#utility.yul\":8288:8318   */\n      0x4e6f7420656e6f756768207469636b65747320617661696c61626c6500000000\n        /* \"#utility.yul\":8284:8285   */\n      0x00\n        /* \"#utility.yul\":8276:8282   */\n      dup3\n        /* \"#utility.yul\":8272:8286   */\n      add\n        /* \"#utility.yul\":8265:8319   */\n      mstore\n        /* \"#utility.yul\":8148:8326   */\n      pop\n      jump\t// out\n        /* \"#utility.yul\":8332:8698   */\n    tag_166:\n        /* \"#utility.yul\":8474:8477   */\n      0x00\n        /* \"#utility.yul\":8495:8562   */\n      tag_261\n        /* \"#utility.yul\":8559:8561   */\n      0x1c\n        /* \"#utility.yul\":8554:8557   */\n      dup4\n        /* \"#utility.yul\":8495:8562   */\n      tag_156\n      jump\t// in\n    tag_261:\n        /* \"#utility.yul\":8488:8562   */\n      swap2\n      pop\n        /* \"#utility.yul\":8571:8664   */\n      tag_262\n        /* \"#utility.yul\":8660:8663   */\n      dup3\n        /* \"#utility.yul\":8571:8664   */\n      tag_165\n      jump\t// in\n    tag_262:\n        /* \"#utility.yul\":8689:8691   */\n      0x20\n        /* \"#utility.yul\":8684:8687   */\n      dup3\n        /* \"#utility.yul\":8680:8692   */\n      add\n        /* \"#utility.yul\":8673:8692   */\n      swap1\n      pop\n        /* \"#utility.yul\":8332:8698   */\n      swap2\n      swap1\n      pop\n      jump\t// out\n        /* \"#utility.yul\":8704:9123   */\n    tag_88:\n        /* \"#utility.yul\":8870:8874   */\n      0x00\n        /* \"#utility.yul\":8908:8910   */\n      0x20\n        /* \"#utility.yul\":8897:8906   */\n      dup3\n        /* \"#utility.yul\":8893:8911   */\n      add\n        /* \"#utility.yul\":8885:8911   */\n      swap1\n      pop\n        /* \"#utility.yul\":8957:8966   */\n      dup2\n        /* \"#utility.yul\":8951:8955   */\n      dup2\n        /* \"#utility.yul\":8947:8967   */\n      sub\n        /* \"#utility.yul\":8943:8944   */\n      0x00\n        /* \"#utility.yul\":8932:8941   */\n      dup4\n        /* \"#utility.yul\":8928:8945   */\n      add\n        /* \"#utility.yul\":8921:8968   */\n      mstore\n        /* \"#utility.yul\":8985:9116   */\n      tag_264\n        /* \"#utility.yul\":9111:9115   */\n      dup2\n        /* \"#utility.yul\":8985:9116   */\n      tag_166\n      jump\t// in\n    tag_264:\n        /* \"#utility.yul\":8977:9116   */\n      swap1\n      pop\n        /* \"#utility.yul\":8704:9123   */\n      swap2\n      swap1\n      pop\n      jump\t// out\n        /* \"#utility.yul\":9129:9309   */\n    tag_95:\n        /* \"#utility.yul\":9177:9254   */\n      0x4e487b7100000000000000000000000000000000000000000000000000000000\n        /* \"#utility.yul\":9174:9175   */\n      0x00\n        /* \"#utility.yul\":9167:9255   */\n      mstore\n        /* \"#utility.yul\":9274:9278   */\n      0x32\n        /* \"#utility.yul\":9271:9272   */\n      0x04\n        /* \"#utility.yul\":9264:9279   */\n      mstore\n        /* \"#utility.yul\":9298:9302   */\n      0x24\n        /* \"#utility.yul\":9295:9296   */\n      0x00\n        /* \"#utility.yul\":9288:9303   */\n      revert\n        /* \"#utility.yul\":9315:9509   */\n    tag_109:\n        /* \"#utility.yul\":9355:9359   */\n      0x00\n        /* \"#utility.yul\":9375:9395   */\n      tag_267\n        /* \"#utility.yul\":9393:9394   */\n      dup3\n        /* \"#utility.yul\":9375:9395   */\n      tag_138\n      jump\t// in\n    tag_267:\n        /* \"#utility.yul\":9370:9395   */\n      swap2\n      pop\n        /* \"#utility.yul\":9409:9429   */\n      tag_268\n        /* \"#utility.yul\":9427:9428   */\n      dup4\n        /* \"#utility.yul\":9409:9429   */\n      tag_138\n      jump\t// in\n    tag_268:\n        /* \"#utility.yul\":9404:9429   */\n      swap3\n      pop\n        /* \"#utility.yul\":9453:9454   */\n      dup3\n        /* \"#utility.yul\":9450:9451   */\n      dup3\n        /* \"#utility.yul\":9446:9455   */\n      sub\n        /* \"#utility.yul\":9438:9455   */\n      swap1\n      pop\n        /* \"#utility.yul\":9477:9478   */\n      dup2\n        /* \"#utility.yul\":9471:9475   */\n      dup2\n        /* \"#utility.yul\":9468:9479   */\n      gt\n        /* \"#utility.yul\":9465:9502   */\n      iszero\n      tag_269\n      jumpi\n        /* \"#utility.yul\":9482:9500   */\n      tag_270\n      tag_160\n      jump\t// in\n    tag_270:\n        /* \"#utility.yul\":9465:9502   */\n    tag_269:\n        /* \"#utility.yul\":9315:9509   */\n      swap3\n      swap2\n      pop\n      pop\n      jump\t// out\n        /* \"#utility.yul\":9515:9685   */\n    tag_167:\n        /* \"#utility.yul\":9655:9677   */\n      0x496e76616c6964207469636b657420696e646578000000000000000000000000\n        /* \"#utility.yul\":9651:9652   */\n      0x00\n        /* \"#utility.yul\":9643:9649   */\n      dup3\n        /* \"#utility.yul\":9639:9653   */\n      add\n        /* \"#utility.yul\":9632:9678   */\n      mstore\n        /* \"#utility.yul\":9515:9685   */\n      pop\n      jump\t// out\n        /* \"#utility.yul\":9691:10057   */\n    tag_168:\n        /* \"#utility.yul\":9833:9836   */\n      0x00\n        /* \"#utility.yul\":9854:9921   */\n      tag_273\n        /* \"#utility.yul\":9918:9920   */\n      0x14\n        /* \"#utility.yul\":9913:9916   */\n      dup4\n        /* \"#utility.yul\":9854:9921   */\n      tag_156\n      jump\t// in\n    tag_273:\n        /* \"#utility.yul\":9847:9921   */\n      swap2\n      pop\n        /* \"#utility.yul\":9930:10023   */\n      tag_274\n        /* \"#utility.yul\":10019:10022   */\n      dup3\n        /* \"#utility.yul\":9930:10023   */\n      tag_167\n      jump\t// in\n    tag_274:\n        /* \"#utility.yul\":10048:10050   */\n      0x20\n        /* \"#utility.yul\":10043:10046   */\n      dup3\n        /* \"#utility.yul\":10039:10051   */\n      add\n        /* \"#utility.yul\":10032:10051   */\n      swap1\n      pop\n        /* \"#utility.yul\":9691:10057   */\n      swap2\n      swap1\n      pop\n      jump\t// out\n        /* \"#utility.yul\":10063:10482   */\n    tag_113:\n        /* \"#utility.yul\":10229:10233   */\n      0x00\n        /* \"#utility.yul\":10267:10269   */\n      0x20\n        /* \"#utility.yul\":10256:10265   */\n      dup3\n        /* \"#utility.yul\":10252:10270   */\n      add\n        /* \"#utility.yul\":10244:10270   */\n      swap1\n      pop\n        /* \"#utility.yul\":10316:10325   */\n      dup2\n        /* \"#utility.yul\":10310:10314   */\n      dup2\n        /* \"#utility.yul\":10306:10326   */\n      sub\n        /* \"#utility.yul\":10302:10303   */\n      0x00\n        /* \"#utility.yul\":10291:10300   */\n      dup4\n        /* \"#utility.yul\":10287:10304   */\n      add\n        /* \"#utility.yul\":10280:10327   */\n      mstore\n        /* \"#utility.yul\":10344:10475   */\n      tag_276\n        /* \"#utility.yul\":10470:10474   */\n      dup2\n        /* \"#utility.yul\":10344:10475   */\n      tag_168\n      jump\t// in\n    tag_276:\n        /* \"#utility.yul\":10336:10475   */\n      swap1\n      pop\n        /* \"#utility.yul\":10063:10482   */\n      swap2\n      swap1\n      pop\n      jump\t// out\n        /* \"#utility.yul\":10488:10668   */\n    tag_169:\n        /* \"#utility.yul\":10536:10613   */\n      0x4e487b7100000000000000000000000000000000000000000000000000000000\n        /* \"#utility.yul\":10533:10534   */\n      0x00\n        /* \"#utility.yul\":10526:10614   */\n      mstore\n        /* \"#utility.yul\":10633:10637   */\n      0x22\n        /* \"#utility.yul\":10630:10631   */\n      0x04\n        /* \"#utility.yul\":10623:10638   */\n      mstore\n        /* \"#utility.yul\":10657:10661   */\n      0x24\n        /* \"#utility.yul\":10654:10655   */\n      0x00\n        /* \"#utility.yul\":10647:10662   */\n      revert\n        /* \"#utility.yul\":10674:10994   */\n    tag_123:\n        /* \"#utility.yul\":10718:10724   */\n      0x00\n        /* \"#utility.yul\":10755:10756   */\n      0x02\n        /* \"#utility.yul\":10749:10753   */\n      dup3\n        /* \"#utility.yul\":10745:10757   */\n      div\n        /* \"#utility.yul\":10735:10757   */\n      swap1\n      pop\n        /* \"#utility.yul\":10802:10803   */\n      0x01\n        /* \"#utility.yul\":10796:10800   */\n      dup3\n        /* \"#utility.yul\":10792:10804   */\n      and\n        /* \"#utility.yul\":10823:10841   */\n      dup1\n        /* \"#utility.yul\":10813:10894   */\n      tag_279\n      jumpi\n        /* \"#utility.yul\":10879:10883   */\n      0x7f\n        /* \"#utility.yul\":10871:10877   */\n      dup3\n        /* \"#utility.yul\":10867:10884   */\n      and\n        /* \"#utility.yul\":10857:10884   */\n      swap2\n      pop\n        /* \"#utility.yul\":10813:10894   */\n    tag_279:\n        /* \"#utility.yul\":10941:10943   */\n      0x20\n        /* \"#utility.yul\":10933:10939   */\n      dup3\n        /* \"#utility.yul\":10930:10944   */\n      lt\n        /* \"#utility.yul\":10910:10928   */\n      dup2\n        /* \"#utility.yul\":10907:10945   */\n      sub\n        /* \"#utility.yul\":10904:10988   */\n      tag_280\n      jumpi\n        /* \"#utility.yul\":10960:10978   */\n      tag_281\n      tag_169\n      jump\t// in\n    tag_281:\n        /* \"#utility.yul\":10904:10988   */\n    tag_280:\n        /* \"#utility.yul\":10725:10994   */\n      pop\n        /* \"#utility.yul\":10674:10994   */\n      swap2\n      swap1\n      pop\n      jump\t// out\n        /* \"#utility.yul\":11000:11143   */\n    tag_170:\n        /* \"#utility.yul\":11057:11062   */\n      0x00\n        /* \"#utility.yul\":11088:11094   */\n      dup2\n        /* \"#utility.yul\":11082:11095   */\n      mload\n        /* \"#utility.yul\":11073:11095   */\n      swap1\n      pop\n        /* \"#utility.yul\":11104:11137   */\n      tag_283\n        /* \"#utility.yul\":11131:11136   */\n      dup2\n        /* \"#utility.yul\":11104:11137   */\n      tag_153\n      jump\t// in\n    tag_283:\n        /* \"#utility.yul\":11000:11143   */\n      swap3\n      swap2\n      pop\n      pop\n      jump\t// out\n        /* \"#utility.yul\":11149:11500   */\n    tag_137:\n        /* \"#utility.yul\":11219:11225   */\n      0x00\n        /* \"#utility.yul\":11268:11270   */\n      0x20\n        /* \"#utility.yul\":11256:11265   */\n      dup3\n        /* \"#utility.yul\":11247:11254   */\n      dup5\n        /* \"#utility.yul\":11243:11266   */\n      sub\n        /* \"#utility.yul\":11239:11271   */\n      slt\n        /* \"#utility.yul\":11236:11355   */\n      iszero\n      tag_285\n      jumpi\n        /* \"#utility.yul\":11274:11353   */\n      tag_286\n      tag_141\n      jump\t// in\n    tag_286:\n        /* \"#utility.yul\":11236:11355   */\n    tag_285:\n        /* \"#utility.yul\":11394:11395   */\n      0x00\n        /* \"#utility.yul\":11419:11483   */\n      tag_287\n        /* \"#utility.yul\":11475:11482   */\n      dup5\n        /* \"#utility.yul\":11466:11472   */\n      dup3\n        /* \"#utility.yul\":11455:11464   */\n      dup6\n        /* \"#utility.yul\":11451:11473   */\n      add\n        /* \"#utility.yul\":11419:11483   */\n      tag_170\n      jump\t// in\n    tag_287:\n        /* \"#utility.yul\":11409:11483   */\n      swap2\n      pop\n        /* \"#utility.yul\":11365:11493   */\n      pop\n        /* \"#utility.yul\":11149:11500   */\n      swap3\n      swap2\n      pop\n      pop\n      jump\t// out\n\n    auxdata: 0xa26469706673582212205f751d9e714c985b28b3c0753f83040ca1b0914dc4d80456706b22dff6ede8fa64736f6c63430008190033\n}\n",
				"bytecode": {
					"linkReferences": {},
					"object": "608060405234801561000f575f80fd5b506040516114ab3803806114ab83398181016040528101906100319190610225565b335f806101000a81548173ffffffffffffffffffffffffffffffffffffffff021916908373ffffffffffffffffffffffffffffffffffffffff16021790555083600181905550826002908161008691906104a9565b5081600381905550806005819055505f60048190555050505050610578565b5f604051905090565b5f80fd5b5f80fd5b5f819050919050565b6100c8816100b6565b81146100d2575f80fd5b50565b5f815190506100e3816100bf565b92915050565b5f80fd5b5f80fd5b5f601f19601f8301169050919050565b7f4e487b71000000000000000000000000000000000000000000000000000000005f52604160045260245ffd5b610137826100f1565b810181811067ffffffffffffffff8211171561015657610155610101565b5b80604052505050565b5f6101686100a5565b9050610174828261012e565b919050565b5f67ffffffffffffffff82111561019357610192610101565b5b61019c826100f1565b9050602081019050919050565b8281835e5f83830152505050565b5f6101c96101c484610179565b61015f565b9050828152602081018484840111156101e5576101e46100ed565b5b6101f08482856101a9565b509392505050565b5f82601f83011261020c5761020b6100e9565b5b815161021c8482602086016101b7565b91505092915050565b5f805f806080858703121561023d5761023c6100ae565b5b5f61024a878288016100d5565b945050602085015167ffffffffffffffff81111561026b5761026a6100b2565b5b610277878288016101f8565b9350506040610288878288016100d5565b9250506060610299878288016100d5565b91505092959194509250565b5f81519050919050565b7f4e487b71000000000000000000000000000000000000000000000000000000005f52602260045260245ffd5b5f60028204905060018216806102f357607f821691505b602082108103610306576103056102af565b5b50919050565b5f819050815f5260205f209050919050565b5f6020601f8301049050919050565b5f82821b905092915050565b5f600883026103687fffffffffffffffffffffffffffffffffffffffffffffffffffffffffffffffff8261032d565b610372868361032d565b95508019841693508086168417925050509392505050565b5f819050919050565b5f6103ad6103a86103a3846100b6565b61038a565b6100b6565b9050919050565b5f819050919050565b6103c683610393565b6103da6103d2826103b4565b848454610339565b825550505050565b5f90565b6103ee6103e2565b6103f98184846103bd565b505050565b5b8181101561041c576104115f826103e6565b6001810190506103ff565b5050565b601f821115610461576104328161030c565b61043b8461031e565b8101602085101561044a578190505b61045e6104568561031e565b8301826103fe565b50505b505050565b5f82821c905092915050565b5f6104815f1984600802610466565b1980831691505092915050565b5f6104998383610472565b9150826002028217905092915050565b6104b2826102a5565b67ffffffffffffffff8111156104cb576104ca610101565b5b6104d582546102dc565b6104e0828285610420565b5f60209050601f831160018114610511575f84156104ff578287015190505b610509858261048e565b865550610570565b601f19841661051f8661030c565b5f5b8281101561054657848901518255600182019150602085019450602081019050610521565b86831015610563578489015161055f601f891682610472565b8355505b6001600288020188555050505b505050505050565b610f26806105855f395ff3fe6080604052600436106100a6575f3560e01c8063679ebf1a11610063578063679ebf1a146101bc5780638043c9c0146101e45780638f15024f1461020e578063a035b1fe14610238578063ad09340914610262578063dd11247e1461029e576100a6565b8063089cdd0c146100aa57806312a076b9146100d45780633f6d558b1461011057806350b447121461012c5780635a8acacc146101685780636120326514610192575b5f80fd5b3480156100b5575f80fd5b506100be6102c8565b6040516100cb9190610919565b60405180910390f35b3480156100df575f80fd5b506100fa60048036038101906100f59190610960565b6102ce565b6040516101079190610919565b60405180910390f35b61012a6004803603810190610125919061099e565b6102e3565b005b348015610137575f80fd5b50610152600480360381019061014d919061099e565b6105a6565b60405161015f9190610a43565b60405180910390f35b348015610173575f80fd5b5061017c6105e1565b6040516101899190610919565b60405180910390f35b34801561019d575f80fd5b506101a66105f7565b6040516101b39190610a7c565b60405180910390f35b3480156101c7575f80fd5b506101e260048036038101906101dd9190610abf565b61061a565b005b3480156101ef575f80fd5b506101f861076c565b6040516102059190610b6d565b60405180910390f35b348015610219575f80fd5b506102226107f8565b60405161022f9190610919565b60405180910390f35b348015610243575f80fd5b5061024c6107fe565b6040516102599190610919565b60405180910390f35b34801561026d575f80fd5b506102886004803603810190610283919061099e565b610804565b6040516102959190610a7c565b60405180910390f35b3480156102a9575f80fd5b506102b26108fb565b6040516102bf9190610919565b60405180910390f35b60015481565b5f81836102db9190610bba565b905092915050565b5f8054906101000a900473ffffffffffffffffffffffffffffffffffffffff1673ffffffffffffffffffffffffffffffffffffffff163373ffffffffffffffffffffffffffffffffffffffff1614610370576040517f08c379a000000000000000000000000000000000000000000000000000000000815260040161036790610c6b565b60405180910390fd5b5f61037d826005546102ce565b9050803410156103c2576040517f08c379a00000000000000000000000000000000000000000000000000000000081526004016103b990610cd3565b60405180910390fd5b600354826006805490506103d69190610cf1565b1115610417576040517f08c379a000000000000000000000000000000000000000000000000000000000815260040161040e90610d6e565b60405180910390fd5b5f5b8281101561054f575f6006826004546104329190610cf1565b8154811061044357610442610d8c565b5b905f5260205f20015f9054906101000a900473ffffffffffffffffffffffffffffffffffffffff1690508073ffffffffffffffffffffffffffffffffffffffff16631a695230336040518263ffffffff1660e01b81526004016104a69190610a7c565b5f604051808303815f87803b1580156104bd575f80fd5b505af11580156104cf573d5f803e3d5ffd5b5050505060075f3373ffffffffffffffffffffffffffffffffffffffff1673ffffffffffffffffffffffffffffffffffffffff1681526020019081526020015f208260045461051e9190610cf1565b908060018154018082558091505060019003905f5260205f20015f9091909190915055508080600101915050610419565b508160045f8282546105619190610cf1565b925050819055506001547ff6acd85f0b35db26a981320acb3e23b6b638f9bbf413b4243677f421076e7d758360405161059a9190610919565b60405180910390a25050565b600681815481106105b5575f80fd5b905f5260205f20015f915054906101000a900473ffffffffffffffffffffffffffffffffffffffff1681565b5f6004546003546105f29190610db9565b905090565b5f8054906101000a900473ffffffffffffffffffffffffffffffffffffffff1681565b6006805490508210610661576040517f08c379a000000000000000000000000000000000000000000000000000000000815260040161065890610e36565b60405180910390fd5b5f6006838154811061067657610675610d8c565b5b905f5260205f20015f9054906101000a900473ffffffffffffffffffffffffffffffffffffffff1690508073ffffffffffffffffffffffffffffffffffffffff16631a695230836040518263ffffffff1660e01b81526004016106d99190610a7c565b5f604051808303815f87803b1580156106f0575f80fd5b505af1158015610702573d5f803e3d5ffd5b5050505060075f8373ffffffffffffffffffffffffffffffffffffffff1673ffffffffffffffffffffffffffffffffffffffff1681526020019081526020015f2083908060018154018082558091505060019003905f5260205f20015f9091909190915055505050565b6002805461077990610e81565b80601f01602080910402602001604051908101604052809291908181526020018280546107a590610e81565b80156107f05780601f106107c7576101008083540402835291602001916107f0565b820191905f5260205f20905b8154815290600101906020018083116107d357829003601f168201915b505050505081565b60045481565b60055481565b5f600680549050821061084c576040517f08c379a000000000000000000000000000000000000000000000000000000000815260040161084390610e36565b60405180910390fd5b600682815481106108605761085f610d8c565b5b905f5260205f20015f9054906101000a900473ffffffffffffffffffffffffffffffffffffffff1673ffffffffffffffffffffffffffffffffffffffff16638da5cb5b6040518163ffffffff1660e01b8152600401602060405180830381865afa1580156108d0573d5f803e3d5ffd5b505050506040513d601f19601f820116820180604052508101906108f49190610ec5565b9050919050565b60035481565b5f819050919050565b61091381610901565b82525050565b5f60208201905061092c5f83018461090a565b92915050565b5f80fd5b61093f81610901565b8114610949575f80fd5b50565b5f8135905061095a81610936565b92915050565b5f806040838503121561097657610975610932565b5b5f6109838582860161094c565b92505060206109948582860161094c565b9150509250929050565b5f602082840312156109b3576109b2610932565b5b5f6109c08482850161094c565b91505092915050565b5f73ffffffffffffffffffffffffffffffffffffffff82169050919050565b5f819050919050565b5f610a0b610a06610a01846109c9565b6109e8565b6109c9565b9050919050565b5f610a1c826109f1565b9050919050565b5f610a2d82610a12565b9050919050565b610a3d81610a23565b82525050565b5f602082019050610a565f830184610a34565b92915050565b5f610a66826109c9565b9050919050565b610a7681610a5c565b82525050565b5f602082019050610a8f5f830184610a6d565b92915050565b610a9e81610a5c565b8114610aa8575f80fd5b50565b5f81359050610ab981610a95565b92915050565b5f8060408385031215610ad557610ad4610932565b5b5f610ae28582860161094c565b9250506020610af385828601610aab565b9150509250929050565b5f81519050919050565b5f82825260208201905092915050565b8281835e5f83830152505050565b5f601f19601f8301169050919050565b5f610b3f82610afd565b610b498185610b07565b9350610b59818560208601610b17565b610b6281610b25565b840191505092915050565b5f6020820190508181035f830152610b858184610b35565b905092915050565b7f4e487b71000000000000000000000000000000000000000000000000000000005f52601160045260245ffd5b5f610bc482610901565b9150610bcf83610901565b9250828202610bdd81610901565b91508282048414831517610bf457610bf3610b8d565b5b5092915050565b7f4f6e6c7920746865206f7267616e697a65722063616e20706572666f726d20745f8201527f68697320616374696f6e00000000000000000000000000000000000000000000602082015250565b5f610c55602a83610b07565b9150610c6082610bfb565b604082019050919050565b5f6020820190508181035f830152610c8281610c49565b9050919050565b7f496e73756666696369656e74207061796d656e740000000000000000000000005f82015250565b5f610cbd601483610b07565b9150610cc882610c89565b602082019050919050565b5f6020820190508181035f830152610cea81610cb1565b9050919050565b5f610cfb82610901565b9150610d0683610901565b9250828201905080821115610d1e57610d1d610b8d565b5b92915050565b7f4e6f7420656e6f756768207469636b65747320617661696c61626c65000000005f82015250565b5f610d58601c83610b07565b9150610d6382610d24565b602082019050919050565b5f6020820190508181035f830152610d8581610d4c565b9050919050565b7f4e487b71000000000000000000000000000000000000000000000000000000005f52603260045260245ffd5b5f610dc382610901565b9150610dce83610901565b9250828203905081811115610de657610de5610b8d565b5b92915050565b7f496e76616c6964207469636b657420696e6465780000000000000000000000005f82015250565b5f610e20601483610b07565b9150610e2b82610dec565b602082019050919050565b5f6020820190508181035f830152610e4d81610e14565b9050919050565b7f4e487b71000000000000000000000000000000000000000000000000000000005f52602260045260245ffd5b5f6002820490506001821680610e9857607f821691505b602082108103610eab57610eaa610e54565b5b50919050565b5f81519050610ebf81610a95565b92915050565b5f60208284031215610eda57610ed9610932565b5b5f610ee784828501610eb1565b9150509291505056fea26469706673582212205f751d9e714c985b28b3c0753f83040ca1b0914dc4d80456706b22dff6ede8fa64736f6c63430008190033",
					"opcodes": "PUSH1 0x80 PUSH1 0x40 MSTORE CALLVALUE DUP1 ISZERO PUSH2 0xF JUMPI PUSH0 DUP1 REVERT JUMPDEST POP PUSH1 0x40 MLOAD PUSH2 0x14AB CODESIZE SUB DUP1 PUSH2 0x14AB DUP4 CODECOPY DUP2 DUP2 ADD PUSH1 0x40 MSTORE DUP2 ADD SWAP1 PUSH2 0x31 SWAP2 SWAP1 PUSH2 0x225 JUMP JUMPDEST CALLER PUSH0 DUP1 PUSH2 0x100 EXP DUP2 SLOAD DUP2 PUSH20 0xFFFFFFFFFFFFFFFFFFFFFFFFFFFFFFFFFFFFFFFF MUL NOT AND SWAP1 DUP4 PUSH20 0xFFFFFFFFFFFFFFFFFFFFFFFFFFFFFFFFFFFFFFFF AND MUL OR SWAP1 SSTORE POP DUP4 PUSH1 0x1 DUP2 SWAP1 SSTORE POP DUP3 PUSH1 0x2 SWAP1 DUP2 PUSH2 0x86 SWAP2 SWAP1 PUSH2 0x4A9 JUMP JUMPDEST POP DUP2 PUSH1 0x3 DUP2 SWAP1 SSTORE POP DUP1 PUSH1 0x5 DUP2 SWAP1 SSTORE POP PUSH0 PUSH1 0x4 DUP2 SWAP1 SSTORE POP POP POP POP POP PUSH2 0x578 JUMP JUMPDEST PUSH0 PUSH1 0x40 MLOAD SWAP1 POP SWAP1 JUMP JUMPDEST PUSH0 DUP1 REVERT JUMPDEST PUSH0 DUP1 REVERT JUMPDEST PUSH0 DUP2 SWAP1 POP SWAP2 SWAP1 POP JUMP JUMPDEST PUSH2 0xC8 DUP2 PUSH2 0xB6 JUMP JUMPDEST DUP2 EQ PUSH2 0xD2 JUMPI PUSH0 DUP1 REVERT JUMPDEST POP JUMP JUMPDEST PUSH0 DUP2 MLOAD SWAP1 POP PUSH2 0xE3 DUP2 PUSH2 0xBF JUMP JUMPDEST SWAP3 SWAP2 POP POP JUMP JUMPDEST PUSH0 DUP1 REVERT JUMPDEST PUSH0 DUP1 REVERT JUMPDEST PUSH0 PUSH1 0x1F NOT PUSH1 0x1F DUP4 ADD AND SWAP1 POP SWAP2 SWAP1 POP JUMP JUMPDEST PUSH32 0x4E487B7100000000000000000000000000000000000000000000000000000000 PUSH0 MSTORE PUSH1 0x41 PUSH1 0x4 MSTORE PUSH1 0x24 PUSH0 REVERT JUMPDEST PUSH2 0x137 DUP3 PUSH2 0xF1 JUMP JUMPDEST DUP2 ADD DUP2 DUP2 LT PUSH8 0xFFFFFFFFFFFFFFFF DUP3 GT OR ISZERO PUSH2 0x156 JUMPI PUSH2 0x155 PUSH2 0x101 JUMP JUMPDEST JUMPDEST DUP1 PUSH1 0x40 MSTORE POP POP POP JUMP JUMPDEST PUSH0 PUSH2 0x168 PUSH2 0xA5 JUMP JUMPDEST SWAP1 POP PUSH2 0x174 DUP3 DUP3 PUSH2 0x12E JUMP JUMPDEST SWAP2 SWAP1 POP JUMP JUMPDEST PUSH0 PUSH8 0xFFFFFFFFFFFFFFFF DUP3 GT ISZERO PUSH2 0x193 JUMPI PUSH2 0x192 PUSH2 0x101 JUMP JUMPDEST JUMPDEST PUSH2 0x19C DUP3 PUSH2 0xF1 JUMP JUMPDEST SWAP1 POP PUSH1 0x20 DUP2 ADD SWAP1 POP SWAP2 SWAP1 POP JUMP JUMPDEST DUP3 DUP2 DUP4 MCOPY PUSH0 DUP4 DUP4 ADD MSTORE POP POP POP JUMP JUMPDEST PUSH0 PUSH2 0x1C9 PUSH2 0x1C4 DUP5 PUSH2 0x179 JUMP JUMPDEST PUSH2 0x15F JUMP JUMPDEST SWAP1 POP DUP3 DUP2 MSTORE PUSH1 0x20 DUP2 ADD DUP5 DUP5 DUP5 ADD GT ISZERO PUSH2 0x1E5 JUMPI PUSH2 0x1E4 PUSH2 0xED JUMP JUMPDEST JUMPDEST PUSH2 0x1F0 DUP5 DUP3 DUP6 PUSH2 0x1A9 JUMP JUMPDEST POP SWAP4 SWAP3 POP POP POP JUMP JUMPDEST PUSH0 DUP3 PUSH1 0x1F DUP4 ADD SLT PUSH2 0x20C JUMPI PUSH2 0x20B PUSH2 0xE9 JUMP JUMPDEST JUMPDEST DUP2 MLOAD PUSH2 0x21C DUP5 DUP3 PUSH1 0x20 DUP7 ADD PUSH2 0x1B7 JUMP JUMPDEST SWAP2 POP POP SWAP3 SWAP2 POP POP JUMP JUMPDEST PUSH0 DUP1 PUSH0 DUP1 PUSH1 0x80 DUP6 DUP8 SUB SLT ISZERO PUSH2 0x23D JUMPI PUSH2 0x23C PUSH2 0xAE JUMP JUMPDEST JUMPDEST PUSH0 PUSH2 0x24A DUP8 DUP3 DUP9 ADD PUSH2 0xD5 JUMP JUMPDEST SWAP5 POP POP PUSH1 0x20 DUP6 ADD MLOAD PUSH8 0xFFFFFFFFFFFFFFFF DUP2 GT ISZERO PUSH2 0x26B JUMPI PUSH2 0x26A PUSH2 0xB2 JUMP JUMPDEST JUMPDEST PUSH2 0x277 DUP8 DUP3 DUP9 ADD PUSH2 0x1F8 JUMP JUMPDEST SWAP4 POP POP PUSH1 0x40 PUSH2 0x288 DUP8 DUP3 DUP9 ADD PUSH2 0xD5 JUMP JUMPDEST SWAP3 POP POP PUSH1 0x60 PUSH2 0x299 DUP8 DUP3 DUP9 ADD PUSH2 0xD5 JUMP JUMPDEST SWAP2 POP POP SWAP3 SWAP6 SWAP2 SWAP5 POP SWAP3 POP JUMP JUMPDEST PUSH0 DUP2 MLOAD SWAP1 POP SWAP2 SWAP1 POP JUMP JUMPDEST PUSH32 0x4E487B7100000000000000000000000000000000000000000000000000000000 PUSH0 MSTORE PUSH1 0x22 PUSH1 0x4 MSTORE PUSH1 0x24 PUSH0 REVERT JUMPDEST PUSH0 PUSH1 0x2 DUP3 DIV SWAP1 POP PUSH1 0x1 DUP3 AND DUP1 PUSH2 0x2F3 JUMPI PUSH1 0x7F DUP3 AND SWAP2 POP JUMPDEST PUSH1 0x20 DUP3 LT DUP2 SUB PUSH2 0x306 JUMPI PUSH2 0x305 PUSH2 0x2AF JUMP JUMPDEST JUMPDEST POP SWAP2 SWAP1 POP JUMP JUMPDEST PUSH0 DUP2 SWAP1 POP DUP2 PUSH0 MSTORE PUSH1 0x20 PUSH0 KECCAK256 SWAP1 POP SWAP2 SWAP1 POP JUMP JUMPDEST PUSH0 PUSH1 0x20 PUSH1 0x1F DUP4 ADD DIV SWAP1 POP SWAP2 SWAP1 POP JUMP JUMPDEST PUSH0 DUP3 DUP3 SHL SWAP1 POP SWAP3 SWAP2 POP POP JUMP JUMPDEST PUSH0 PUSH1 0x8 DUP4 MUL PUSH2 0x368 PUSH32 0xFFFFFFFFFFFFFFFFFFFFFFFFFFFFFFFFFFFFFFFFFFFFFFFFFFFFFFFFFFFFFFFF DUP3 PUSH2 0x32D JUMP JUMPDEST PUSH2 0x372 DUP7 DUP4 PUSH2 0x32D JUMP JUMPDEST SWAP6 POP DUP1 NOT DUP5 AND SWAP4 POP DUP1 DUP7 AND DUP5 OR SWAP3 POP POP POP SWAP4 SWAP3 POP POP POP JUMP JUMPDEST PUSH0 DUP2 SWAP1 POP SWAP2 SWAP1 POP JUMP JUMPDEST PUSH0 PUSH2 0x3AD PUSH2 0x3A8 PUSH2 0x3A3 DUP5 PUSH2 0xB6 JUMP JUMPDEST PUSH2 0x38A JUMP JUMPDEST PUSH2 0xB6 JUMP JUMPDEST SWAP1 POP SWAP2 SWAP1 POP JUMP JUMPDEST PUSH0 DUP2 SWAP1 POP SWAP2 SWAP1 POP JUMP JUMPDEST PUSH2 0x3C6 DUP4 PUSH2 0x393 JUMP JUMPDEST PUSH2 0x3DA PUSH2 0x3D2 DUP3 PUSH2 0x3B4 JUMP JUMPDEST DUP5 DUP5 SLOAD PUSH2 0x339 JUMP JUMPDEST DUP3 SSTORE POP POP POP POP JUMP JUMPDEST PUSH0 SWAP1 JUMP JUMPDEST PUSH2 0x3EE PUSH2 0x3E2 JUMP JUMPDEST PUSH2 0x3F9 DUP2 DUP5 DUP5 PUSH2 0x3BD JUMP JUMPDEST POP POP POP JUMP JUMPDEST JUMPDEST DUP2 DUP2 LT ISZERO PUSH2 0x41C JUMPI PUSH2 0x411 PUSH0 DUP3 PUSH2 0x3E6 JUMP JUMPDEST PUSH1 0x1 DUP2 ADD SWAP1 POP PUSH2 0x3FF JUMP JUMPDEST POP POP JUMP JUMPDEST PUSH1 0x1F DUP3 GT ISZERO PUSH2 0x461 JUMPI PUSH2 0x432 DUP2 PUSH2 0x30C JUMP JUMPDEST PUSH2 0x43B DUP5 PUSH2 0x31E JUMP JUMPDEST DUP2 ADD PUSH1 0x20 DUP6 LT ISZERO PUSH2 0x44A JUMPI DUP2 SWAP1 POP JUMPDEST PUSH2 0x45E PUSH2 0x456 DUP6 PUSH2 0x31E JUMP JUMPDEST DUP4 ADD DUP3 PUSH2 0x3FE JUMP JUMPDEST POP POP JUMPDEST POP POP POP JUMP JUMPDEST PUSH0 DUP3 DUP3 SHR SWAP1 POP SWAP3 SWAP2 POP POP JUMP JUMPDEST PUSH0 PUSH2 0x481 PUSH0 NOT DUP5 PUSH1 0x8 MUL PUSH2 0x466 JUMP JUMPDEST NOT DUP1 DUP4 AND SWAP2 POP POP SWAP3 SWAP2 POP POP JUMP JUMPDEST PUSH0 PUSH2 0x499 DUP4 DUP4 PUSH2 0x472 JUMP JUMPDEST SWAP2 POP DUP3 PUSH1 0x2 MUL DUP3 OR SWAP1 POP SWAP3 SWAP2 POP POP JUMP JUMPDEST PUSH2 0x4B2 DUP3 PUSH2 0x2A5 JUMP JUMPDEST PUSH8 0xFFFFFFFFFFFFFFFF DUP2 GT ISZERO PUSH2 0x4CB JUMPI PUSH2 0x4CA PUSH2 0x101 JUMP JUMPDEST JUMPDEST PUSH2 0x4D5 DUP3 SLOAD PUSH2 0x2DC JUMP JUMPDEST PUSH2 0x4E0 DUP3 DUP3 DUP6 PUSH2 0x420 JUMP JUMPDEST PUSH0 PUSH1 0x20 SWAP1 POP PUSH1 0x1F DUP4 GT PUSH1 0x1 DUP2 EQ PUSH2 0x511 JUMPI PUSH0 DUP5 ISZERO PUSH2 0x4FF JUMPI DUP3 DUP8 ADD MLOAD SWAP1 POP JUMPDEST PUSH2 0x509 DUP6 DUP3 PUSH2 0x48E JUMP JUMPDEST DUP7 SSTORE POP PUSH2 0x570 JUMP JUMPDEST PUSH1 0x1F NOT DUP5 AND PUSH2 0x51F DUP7 PUSH2 0x30C JUMP JUMPDEST PUSH0 JUMPDEST DUP3 DUP2 LT ISZERO PUSH2 0x546 JUMPI DUP5 DUP10 ADD MLOAD DUP3 SSTORE PUSH1 0x1 DUP3 ADD SWAP2 POP PUSH1 0x20 DUP6 ADD SWAP5 POP PUSH1 0x20 DUP2 ADD SWAP1 POP PUSH2 0x521 JUMP JUMPDEST DUP7 DUP4 LT ISZERO PUSH2 0x563 JUMPI DUP5 DUP10 ADD MLOAD PUSH2 0x55F PUSH1 0x1F DUP10 AND DUP3 PUSH2 0x472 JUMP JUMPDEST DUP4 SSTORE POP JUMPDEST PUSH1 0x1 PUSH1 0x2 DUP9 MUL ADD DUP9 SSTORE POP POP POP JUMPDEST POP POP POP POP POP POP JUMP JUMPDEST PUSH2 0xF26 DUP1 PUSH2 0x585 PUSH0 CODECOPY PUSH0 RETURN INVALID PUSH1 0x80 PUSH1 0x40 MSTORE PUSH1 0x4 CALLDATASIZE LT PUSH2 0xA6 JUMPI PUSH0 CALLDATALOAD PUSH1 0xE0 SHR DUP1 PUSH4 0x679EBF1A GT PUSH2 0x63 JUMPI DUP1 PUSH4 0x679EBF1A EQ PUSH2 0x1BC JUMPI DUP1 PUSH4 0x8043C9C0 EQ PUSH2 0x1E4 JUMPI DUP1 PUSH4 0x8F15024F EQ PUSH2 0x20E JUMPI DUP1 PUSH4 0xA035B1FE EQ PUSH2 0x238 JUMPI DUP1 PUSH4 0xAD093409 EQ PUSH2 0x262 JUMPI DUP1 PUSH4 0xDD11247E EQ PUSH2 0x29E JUMPI PUSH2 0xA6 JUMP JUMPDEST DUP1 PUSH4 0x89CDD0C EQ PUSH2 0xAA JUMPI DUP1 PUSH4 0x12A076B9 EQ PUSH2 0xD4 JUMPI DUP1 PUSH4 0x3F6D558B EQ PUSH2 0x110 JUMPI DUP1 PUSH4 0x50B44712 EQ PUSH2 0x12C JUMPI DUP1 PUSH4 0x5A8ACACC EQ PUSH2 0x168 JUMPI DUP1 PUSH4 0x61203265 EQ PUSH2 0x192 JUMPI JUMPDEST PUSH0 DUP1 REVERT JUMPDEST CALLVALUE DUP1 ISZERO PUSH2 0xB5 JUMPI PUSH0 DUP1 REVERT JUMPDEST POP PUSH2 0xBE PUSH2 0x2C8 JUMP JUMPDEST PUSH1 0x40 MLOAD PUSH2 0xCB SWAP2 SWAP1 PUSH2 0x919 JUMP JUMPDEST PUSH1 0x40 MLOAD DUP1 SWAP2 SUB SWAP1 RETURN JUMPDEST CALLVALUE DUP1 ISZERO PUSH2 0xDF JUMPI PUSH0 DUP1 REVERT JUMPDEST POP PUSH2 0xFA PUSH1 0x4 DUP1 CALLDATASIZE SUB DUP2 ADD SWAP1 PUSH2 0xF5 SWAP2 SWAP1 PUSH2 0x960 JUMP JUMPDEST PUSH2 0x2CE JUMP JUMPDEST PUSH1 0x40 MLOAD PUSH2 0x107 SWAP2 SWAP1 PUSH2 0x919 JUMP JUMPDEST PUSH1 0x40 MLOAD DUP1 SWAP2 SUB SWAP1 RETURN JUMPDEST PUSH2 0x12A PUSH1 0x4 DUP1 CALLDATASIZE SUB DUP2 ADD SWAP1 PUSH2 0x125 SWAP2 SWAP1 PUSH2 0x99E JUMP JUMPDEST PUSH2 0x2E3 JUMP JUMPDEST STOP JUMPDEST CALLVALUE DUP1 ISZERO PUSH2 0x137 JUMPI PUSH0 DUP1 REVERT JUMPDEST POP PUSH2 0x152 PUSH1 0x4 DUP1 CALLDATASIZE SUB DUP2 ADD SWAP1 PUSH2 0x14D SWAP2 SWAP1 PUSH2 0x99E JUMP JUMPDEST PUSH2 0x5A6 JUMP JUMPDEST PUSH1 0x40 MLOAD PUSH2 0x15F SWAP2 SWAP1 PUSH2 0xA43 JUMP JUMPDEST PUSH1 0x40 MLOAD DUP1 SWAP2 SUB SWAP1 RETURN JUMPDEST CALLVALUE DUP1 ISZERO PUSH2 0x173 JUMPI PUSH0 DUP1 REVERT JUMPDEST POP PUSH2 0x17C PUSH2 0x5E1 JUMP JUMPDEST PUSH1 0x40 MLOAD PUSH2 0x189 SWAP2 SWAP1 PUSH2 0x919 JUMP JUMPDEST PUSH1 0x40 MLOAD DUP1 SWAP2 SUB SWAP1 RETURN JUMPDEST CALLVALUE DUP1 ISZERO PUSH2 0x19D JUMPI PUSH0 DUP1 REVERT JUMPDEST POP PUSH2 0x1A6 PUSH2 0x5F7 JUMP JUMPDEST PUSH1 0x40 MLOAD PUSH2 0x1B3 SWAP2 SWAP1 PUSH2 0xA7C JUMP JUMPDEST PUSH1 0x40 MLOAD DUP1 SWAP2 SUB SWAP1 RETURN JUMPDEST CALLVALUE DUP1 ISZERO PUSH2 0x1C7 JUMPI PUSH0 DUP1 REVERT JUMPDEST POP PUSH2 0x1E2 PUSH1 0x4 DUP1 CALLDATASIZE SUB DUP2 ADD SWAP1 PUSH2 0x1DD SWAP2 SWAP1 PUSH2 0xABF JUMP JUMPDEST PUSH2 0x61A JUMP JUMPDEST STOP JUMPDEST CALLVALUE DUP1 ISZERO PUSH2 0x1EF JUMPI PUSH0 DUP1 REVERT JUMPDEST POP PUSH2 0x1F8 PUSH2 0x76C JUMP JUMPDEST PUSH1 0x40 MLOAD PUSH2 0x205 SWAP2 SWAP1 PUSH2 0xB6D JUMP JUMPDEST PUSH1 0x40 MLOAD DUP1 SWAP2 SUB SWAP1 RETURN JUMPDEST CALLVALUE DUP1 ISZERO PUSH2 0x219 JUMPI PUSH0 DUP1 REVERT JUMPDEST POP PUSH2 0x222 PUSH2 0x7F8 JUMP JUMPDEST PUSH1 0x40 MLOAD PUSH2 0x22F SWAP2 SWAP1 PUSH2 0x919 JUMP JUMPDEST PUSH1 0x40 MLOAD DUP1 SWAP2 SUB SWAP1 RETURN JUMPDEST CALLVALUE DUP1 ISZERO PUSH2 0x243 JUMPI PUSH0 DUP1 REVERT JUMPDEST POP PUSH2 0x24C PUSH2 0x7FE JUMP JUMPDEST PUSH1 0x40 MLOAD PUSH2 0x259 SWAP2 SWAP1 PUSH2 0x919 JUMP JUMPDEST PUSH1 0x40 MLOAD DUP1 SWAP2 SUB SWAP1 RETURN JUMPDEST CALLVALUE DUP1 ISZERO PUSH2 0x26D JUMPI PUSH0 DUP1 REVERT JUMPDEST POP PUSH2 0x288 PUSH1 0x4 DUP1 CALLDATASIZE SUB DUP2 ADD SWAP1 PUSH2 0x283 SWAP2 SWAP1 PUSH2 0x99E JUMP JUMPDEST PUSH2 0x804 JUMP JUMPDEST PUSH1 0x40 MLOAD PUSH2 0x295 SWAP2 SWAP1 PUSH2 0xA7C JUMP JUMPDEST PUSH1 0x40 MLOAD DUP1 SWAP2 SUB SWAP1 RETURN JUMPDEST CALLVALUE DUP1 ISZERO PUSH2 0x2A9 JUMPI PUSH0 DUP1 REVERT JUMPDEST POP PUSH2 0x2B2 PUSH2 0x8FB JUMP JUMPDEST PUSH1 0x40 MLOAD PUSH2 0x2BF SWAP2 SWAP1 PUSH2 0x919 JUMP JUMPDEST PUSH1 0x40 MLOAD DUP1 SWAP2 SUB SWAP1 RETURN JUMPDEST PUSH1 0x1 SLOAD DUP2 JUMP JUMPDEST PUSH0 DUP2 DUP4 PUSH2 0x2DB SWAP2 SWAP1 PUSH2 0xBBA JUMP JUMPDEST SWAP1 POP SWAP3 SWAP2 POP POP JUMP JUMPDEST PUSH0 DUP1 SLOAD SWAP1 PUSH2 0x100 EXP SWAP1 DIV PUSH20 0xFFFFFFFFFFFFFFFFFFFFFFFFFFFFFFFFFFFFFFFF AND PUSH20 0xFFFFFFFFFFFFFFFFFFFFFFFFFFFFFFFFFFFFFFFF AND CALLER PUSH20 0xFFFFFFFFFFFFFFFFFFFFFFFFFFFFFFFFFFFFFFFF AND EQ PUSH2 0x370 JUMPI PUSH1 0x40 MLOAD PUSH32 0x8C379A000000000000000000000000000000000000000000000000000000000 DUP2 MSTORE PUSH1 0x4 ADD PUSH2 0x367 SWAP1 PUSH2 0xC6B JUMP JUMPDEST PUSH1 0x40 MLOAD DUP1 SWAP2 SUB SWAP1 REVERT JUMPDEST PUSH0 PUSH2 0x37D DUP3 PUSH1 0x5 SLOAD PUSH2 0x2CE JUMP JUMPDEST SWAP1 POP DUP1 CALLVALUE LT ISZERO PUSH2 0x3C2 JUMPI PUSH1 0x40 MLOAD PUSH32 0x8C379A000000000000000000000000000000000000000000000000000000000 DUP2 MSTORE PUSH1 0x4 ADD PUSH2 0x3B9 SWAP1 PUSH2 0xCD3 JUMP JUMPDEST PUSH1 0x40 MLOAD DUP1 SWAP2 SUB SWAP1 REVERT JUMPDEST PUSH1 0x3 SLOAD DUP3 PUSH1 0x6 DUP1 SLOAD SWAP1 POP PUSH2 0x3D6 SWAP2 SWAP1 PUSH2 0xCF1 JUMP JUMPDEST GT ISZERO PUSH2 0x417 JUMPI PUSH1 0x40 MLOAD PUSH32 0x8C379A000000000000000000000000000000000000000000000000000000000 DUP2 MSTORE PUSH1 0x4 ADD PUSH2 0x40E SWAP1 PUSH2 0xD6E JUMP JUMPDEST PUSH1 0x40 MLOAD DUP1 SWAP2 SUB SWAP1 REVERT JUMPDEST PUSH0 JUMPDEST DUP3 DUP2 LT ISZERO PUSH2 0x54F JUMPI PUSH0 PUSH1 0x6 DUP3 PUSH1 0x4 SLOAD PUSH2 0x432 SWAP2 SWAP1 PUSH2 0xCF1 JUMP JUMPDEST DUP2 SLOAD DUP2 LT PUSH2 0x443 JUMPI PUSH2 0x442 PUSH2 0xD8C JUMP JUMPDEST JUMPDEST SWAP1 PUSH0 MSTORE PUSH1 0x20 PUSH0 KECCAK256 ADD PUSH0 SWAP1 SLOAD SWAP1 PUSH2 0x100 EXP SWAP1 DIV PUSH20 0xFFFFFFFFFFFFFFFFFFFFFFFFFFFFFFFFFFFFFFFF AND SWAP1 POP DUP1 PUSH20 0xFFFFFFFFFFFFFFFFFFFFFFFFFFFFFFFFFFFFFFFF AND PUSH4 0x1A695230 CALLER PUSH1 0x40 MLOAD DUP3 PUSH4 0xFFFFFFFF AND PUSH1 0xE0 SHL DUP2 MSTORE PUSH1 0x4 ADD PUSH2 0x4A6 SWAP2 SWAP1 PUSH2 0xA7C JUMP JUMPDEST PUSH0 PUSH1 0x40 MLOAD DUP1 DUP4 SUB DUP2 PUSH0 DUP8 DUP1 EXTCODESIZE ISZERO DUP1 ISZERO PUSH2 0x4BD JUMPI PUSH0 DUP1 REVERT JUMPDEST POP GAS CALL ISZERO DUP1 ISZERO PUSH2 0x4CF JUMPI RETURNDATASIZE PUSH0 DUP1 RETURNDATACOPY RETURNDATASIZE PUSH0 REVERT JUMPDEST POP POP POP POP PUSH1 0x7 PUSH0 CALLER PUSH20 0xFFFFFFFFFFFFFFFFFFFFFFFFFFFFFFFFFFFFFFFF AND PUSH20 0xFFFFFFFFFFFFFFFFFFFFFFFFFFFFFFFFFFFFFFFF AND DUP2 MSTORE PUSH1 0x20 ADD SWAP1 DUP2 MSTORE PUSH1 0x20 ADD PUSH0 KECCAK256 DUP3 PUSH1 0x4 SLOAD PUSH2 0x51E SWAP2 SWAP1 PUSH2 0xCF1 JUMP JUMPDEST SWAP1 DUP1 PUSH1 0x1 DUP2 SLOAD ADD DUP1 DUP3 SSTORE DUP1 SWAP2 POP POP PUSH1 0x1 SWAP1 SUB SWAP1 PUSH0 MSTORE PUSH1 0x20 PUSH0 KECCAK256 ADD PUSH0 SWAP1 SWAP2 SWAP1 SWAP2 SWAP1 SWAP2 POP SSTORE POP DUP1 DUP1 PUSH1 0x1 ADD SWAP2 POP POP PUSH2 0x419 JUMP JUMPDEST POP DUP2 PUSH1 0x4 PUSH0 DUP3 DUP3 SLOAD PUSH2 0x561 SWAP2 SWAP1 PUSH2 0xCF1 JUMP JUMPDEST SWAP3 POP POP DUP2 SWAP1 SSTORE POP PUSH1 0x1 SLOAD PUSH32 0xF6ACD85F0B35DB26A981320ACB3E23B6B638F9BBF413B4243677F421076E7D75 DUP4 PUSH1 0x40 MLOAD PUSH2 0x59A SWAP2 SWAP1 PUSH2 0x919 JUMP JUMPDEST PUSH1 0x40 MLOAD DUP1 SWAP2 SUB SWAP1 LOG2 POP POP JUMP JUMPDEST PUSH1 0x6 DUP2 DUP2 SLOAD DUP2 LT PUSH2 0x5B5 JUMPI PUSH0 DUP1 REVERT JUMPDEST SWAP1 PUSH0 MSTORE PUSH1 0x20 PUSH0 KECCAK256 ADD PUSH0 SWAP2 POP SLOAD SWAP1 PUSH2 0x100 EXP SWAP1 DIV PUSH20 0xFFFFFFFFFFFFFFFFFFFFFFFFFFFFFFFFFFFFFFFF AND DUP2 JUMP JUMPDEST PUSH0 PUSH1 0x4 SLOAD PUSH1 0x3 SLOAD PUSH2 0x5F2 SWAP2 SWAP1 PUSH2 0xDB9 JUMP JUMPDEST SWAP1 POP SWAP1 JUMP JUMPDEST PUSH0 DUP1 SLOAD SWAP1 PUSH2 0x100 EXP SWAP1 DIV PUSH20 0xFFFFFFFFFFFFFFFFFFFFFFFFFFFFFFFFFFFFFFFF AND DUP2 JUMP JUMPDEST PUSH1 0x6 DUP1 SLOAD SWAP1 POP DUP3 LT PUSH2 0x661 JUMPI PUSH1 0x40 MLOAD PUSH32 0x8C379A000000000000000000000000000000000000000000000000000000000 DUP2 MSTORE PUSH1 0x4 ADD PUSH2 0x658 SWAP1 PUSH2 0xE36 JUMP JUMPDEST PUSH1 0x40 MLOAD DUP1 SWAP2 SUB SWAP1 REVERT JUMPDEST PUSH0 PUSH1 0x6 DUP4 DUP2 SLOAD DUP2 LT PUSH2 0x676 JUMPI PUSH2 0x675 PUSH2 0xD8C JUMP JUMPDEST JUMPDEST SWAP1 PUSH0 MSTORE PUSH1 0x20 PUSH0 KECCAK256 ADD PUSH0 SWAP1 SLOAD SWAP1 PUSH2 0x100 EXP SWAP1 DIV PUSH20 0xFFFFFFFFFFFFFFFFFFFFFFFFFFFFFFFFFFFFFFFF AND SWAP1 POP DUP1 PUSH20 0xFFFFFFFFFFFFFFFFFFFFFFFFFFFFFFFFFFFFFFFF AND PUSH4 0x1A695230 DUP4 PUSH1 0x40 MLOAD DUP3 PUSH4 0xFFFFFFFF AND PUSH1 0xE0 SHL DUP2 MSTORE PUSH1 0x4 ADD PUSH2 0x6D9 SWAP2 SWAP1 PUSH2 0xA7C JUMP JUMPDEST PUSH0 PUSH1 0x40 MLOAD DUP1 DUP4 SUB DUP2 PUSH0 DUP8 DUP1 EXTCODESIZE ISZERO DUP1 ISZERO PUSH2 0x6F0 JUMPI PUSH0 DUP1 REVERT JUMPDEST POP GAS CALL ISZERO DUP1 ISZERO PUSH2 0x702 JUMPI RETURNDATASIZE PUSH0 DUP1 RETURNDATACOPY RETURNDATASIZE PUSH0 REVERT JUMPDEST POP POP POP POP PUSH1 0x7 PUSH0 DUP4 PUSH20 0xFFFFFFFFFFFFFFFFFFFFFFFFFFFFFFFFFFFFFFFF AND PUSH20 0xFFFFFFFFFFFFFFFFFFFFFFFFFFFFFFFFFFFFFFFF AND DUP2 MSTORE PUSH1 0x20 ADD SWAP1 DUP2 MSTORE PUSH1 0x20 ADD PUSH0 KECCAK256 DUP4 SWAP1 DUP1 PUSH1 0x1 DUP2 SLOAD ADD DUP1 DUP3 SSTORE DUP1 SWAP2 POP POP PUSH1 0x1 SWAP1 SUB SWAP1 PUSH0 MSTORE PUSH1 0x20 PUSH0 KECCAK256 ADD PUSH0 SWAP1 SWAP2 SWAP1 SWAP2 SWAP1 SWAP2 POP SSTORE POP POP POP JUMP JUMPDEST PUSH1 0x2 DUP1 SLOAD PUSH2 0x779 SWAP1 PUSH2 0xE81 JUMP JUMPDEST DUP1 PUSH1 0x1F ADD PUSH1 0x20 DUP1 SWAP2 DIV MUL PUSH1 0x20 ADD PUSH1 0x40 MLOAD SWAP1 DUP2 ADD PUSH1 0x40 MSTORE DUP1 SWAP3 SWAP2 SWAP1 DUP2 DUP2 MSTORE PUSH1 0x20 ADD DUP3 DUP1 SLOAD PUSH2 0x7A5 SWAP1 PUSH2 0xE81 JUMP JUMPDEST DUP1 ISZERO PUSH2 0x7F0 JUMPI DUP1 PUSH1 0x1F LT PUSH2 0x7C7 JUMPI PUSH2 0x100 DUP1 DUP4 SLOAD DIV MUL DUP4 MSTORE SWAP2 PUSH1 0x20 ADD SWAP2 PUSH2 0x7F0 JUMP JUMPDEST DUP3 ADD SWAP2 SWAP1 PUSH0 MSTORE PUSH1 0x20 PUSH0 KECCAK256 SWAP1 JUMPDEST DUP2 SLOAD DUP2 MSTORE SWAP1 PUSH1 0x1 ADD SWAP1 PUSH1 0x20 ADD DUP1 DUP4 GT PUSH2 0x7D3 JUMPI DUP3 SWAP1 SUB PUSH1 0x1F AND DUP3 ADD SWAP2 JUMPDEST POP POP POP POP POP DUP2 JUMP JUMPDEST PUSH1 0x4 SLOAD DUP2 JUMP JUMPDEST PUSH1 0x5 SLOAD DUP2 JUMP JUMPDEST PUSH0 PUSH1 0x6 DUP1 SLOAD SWAP1 POP DUP3 LT PUSH2 0x84C JUMPI PUSH1 0x40 MLOAD PUSH32 0x8C379A000000000000000000000000000000000000000000000000000000000 DUP2 MSTORE PUSH1 0x4 ADD PUSH2 0x843 SWAP1 PUSH2 0xE36 JUMP JUMPDEST PUSH1 0x40 MLOAD DUP1 SWAP2 SUB SWAP1 REVERT JUMPDEST PUSH1 0x6 DUP3 DUP2 SLOAD DUP2 LT PUSH2 0x860 JUMPI PUSH2 0x85F PUSH2 0xD8C JUMP JUMPDEST JUMPDEST SWAP1 PUSH0 MSTORE PUSH1 0x20 PUSH0 KECCAK256 ADD PUSH0 SWAP1 SLOAD SWAP1 PUSH2 0x100 EXP SWAP1 DIV PUSH20 0xFFFFFFFFFFFFFFFFFFFFFFFFFFFFFFFFFFFFFFFF AND PUSH20 0xFFFFFFFFFFFFFFFFFFFFFFFFFFFFFFFFFFFFFFFF AND PUSH4 0x8DA5CB5B PUSH1 0x40 MLOAD DUP2 PUSH4 0xFFFFFFFF AND PUSH1 0xE0 SHL DUP2 MSTORE PUSH1 0x4 ADD PUSH1 0x20 PUSH1 0x40 MLOAD DUP1 DUP4 SUB DUP2 DUP7 GAS STATICCALL ISZERO DUP1 ISZERO PUSH2 0x8D0 JUMPI RETURNDATASIZE PUSH0 DUP1 RETURNDATACOPY RETURNDATASIZE PUSH0 REVERT JUMPDEST POP POP POP POP PUSH1 0x40 MLOAD RETURNDATASIZE PUSH1 0x1F NOT PUSH1 0x1F DUP3 ADD AND DUP3 ADD DUP1 PUSH1 0x40 MSTORE POP DUP2 ADD SWAP1 PUSH2 0x8F4 SWAP2 SWAP1 PUSH2 0xEC5 JUMP JUMPDEST SWAP1 POP SWAP2 SWAP1 POP JUMP JUMPDEST PUSH1 0x3 SLOAD DUP2 JUMP JUMPDEST PUSH0 DUP2 SWAP1 POP SWAP2 SWAP1 POP JUMP JUMPDEST PUSH2 0x913 DUP2 PUSH2 0x901 JUMP JUMPDEST DUP3 MSTORE POP POP JUMP JUMPDEST PUSH0 PUSH1 0x20 DUP3 ADD SWAP1 POP PUSH2 0x92C PUSH0 DUP4 ADD DUP5 PUSH2 0x90A JUMP JUMPDEST SWAP3 SWAP2 POP POP JUMP JUMPDEST PUSH0 DUP1 REVERT JUMPDEST PUSH2 0x93F DUP2 PUSH2 0x901 JUMP JUMPDEST DUP2 EQ PUSH2 0x949 JUMPI PUSH0 DUP1 REVERT JUMPDEST POP JUMP JUMPDEST PUSH0 DUP2 CALLDATALOAD SWAP1 POP PUSH2 0x95A DUP2 PUSH2 0x936 JUMP JUMPDEST SWAP3 SWAP2 POP POP JUMP JUMPDEST PUSH0 DUP1 PUSH1 0x40 DUP4 DUP6 SUB SLT ISZERO PUSH2 0x976 JUMPI PUSH2 0x975 PUSH2 0x932 JUMP JUMPDEST JUMPDEST PUSH0 PUSH2 0x983 DUP6 DUP3 DUP7 ADD PUSH2 0x94C JUMP JUMPDEST SWAP3 POP POP PUSH1 0x20 PUSH2 0x994 DUP6 DUP3 DUP7 ADD PUSH2 0x94C JUMP JUMPDEST SWAP2 POP POP SWAP3 POP SWAP3 SWAP1 POP JUMP JUMPDEST PUSH0 PUSH1 0x20 DUP3 DUP5 SUB SLT ISZERO PUSH2 0x9B3 JUMPI PUSH2 0x9B2 PUSH2 0x932 JUMP JUMPDEST JUMPDEST PUSH0 PUSH2 0x9C0 DUP5 DUP3 DUP6 ADD PUSH2 0x94C JUMP JUMPDEST SWAP2 POP POP SWAP3 SWAP2 POP POP JUMP JUMPDEST PUSH0 PUSH20 0xFFFFFFFFFFFFFFFFFFFFFFFFFFFFFFFFFFFFFFFF DUP3 AND SWAP1 POP SWAP2 SWAP1 POP JUMP JUMPDEST PUSH0 DUP2 SWAP1 POP SWAP2 SWAP1 POP JUMP JUMPDEST PUSH0 PUSH2 0xA0B PUSH2 0xA06 PUSH2 0xA01 DUP5 PUSH2 0x9C9 JUMP JUMPDEST PUSH2 0x9E8 JUMP JUMPDEST PUSH2 0x9C9 JUMP JUMPDEST SWAP1 POP SWAP2 SWAP1 POP JUMP JUMPDEST PUSH0 PUSH2 0xA1C DUP3 PUSH2 0x9F1 JUMP JUMPDEST SWAP1 POP SWAP2 SWAP1 POP JUMP JUMPDEST PUSH0 PUSH2 0xA2D DUP3 PUSH2 0xA12 JUMP JUMPDEST SWAP1 POP SWAP2 SWAP1 POP JUMP JUMPDEST PUSH2 0xA3D DUP2 PUSH2 0xA23 JUMP JUMPDEST DUP3 MSTORE POP POP JUMP JUMPDEST PUSH0 PUSH1 0x20 DUP3 ADD SWAP1 POP PUSH2 0xA56 PUSH0 DUP4 ADD DUP5 PUSH2 0xA34 JUMP JUMPDEST SWAP3 SWAP2 POP POP JUMP JUMPDEST PUSH0 PUSH2 0xA66 DUP3 PUSH2 0x9C9 JUMP JUMPDEST SWAP1 POP SWAP2 SWAP1 POP JUMP JUMPDEST PUSH2 0xA76 DUP2 PUSH2 0xA5C JUMP JUMPDEST DUP3 MSTORE POP POP JUMP JUMPDEST PUSH0 PUSH1 0x20 DUP3 ADD SWAP1 POP PUSH2 0xA8F PUSH0 DUP4 ADD DUP5 PUSH2 0xA6D JUMP JUMPDEST SWAP3 SWAP2 POP POP JUMP JUMPDEST PUSH2 0xA9E DUP2 PUSH2 0xA5C JUMP JUMPDEST DUP2 EQ PUSH2 0xAA8 JUMPI PUSH0 DUP1 REVERT JUMPDEST POP JUMP JUMPDEST PUSH0 DUP2 CALLDATALOAD SWAP1 POP PUSH2 0xAB9 DUP2 PUSH2 0xA95 JUMP JUMPDEST SWAP3 SWAP2 POP POP JUMP JUMPDEST PUSH0 DUP1 PUSH1 0x40 DUP4 DUP6 SUB SLT ISZERO PUSH2 0xAD5 JUMPI PUSH2 0xAD4 PUSH2 0x932 JUMP JUMPDEST JUMPDEST PUSH0 PUSH2 0xAE2 DUP6 DUP3 DUP7 ADD PUSH2 0x94C JUMP JUMPDEST SWAP3 POP POP PUSH1 0x20 PUSH2 0xAF3 DUP6 DUP3 DUP7 ADD PUSH2 0xAAB JUMP JUMPDEST SWAP2 POP POP SWAP3 POP SWAP3 SWAP1 POP JUMP JUMPDEST PUSH0 DUP2 MLOAD SWAP1 POP SWAP2 SWAP1 POP JUMP JUMPDEST PUSH0 DUP3 DUP3 MSTORE PUSH1 0x20 DUP3 ADD SWAP1 POP SWAP3 SWAP2 POP POP JUMP JUMPDEST DUP3 DUP2 DUP4 MCOPY PUSH0 DUP4 DUP4 ADD MSTORE POP POP POP JUMP JUMPDEST PUSH0 PUSH1 0x1F NOT PUSH1 0x1F DUP4 ADD AND SWAP1 POP SWAP2 SWAP1 POP JUMP JUMPDEST PUSH0 PUSH2 0xB3F DUP3 PUSH2 0xAFD JUMP JUMPDEST PUSH2 0xB49 DUP2 DUP6 PUSH2 0xB07 JUMP JUMPDEST SWAP4 POP PUSH2 0xB59 DUP2 DUP6 PUSH1 0x20 DUP7 ADD PUSH2 0xB17 JUMP JUMPDEST PUSH2 0xB62 DUP2 PUSH2 0xB25 JUMP JUMPDEST DUP5 ADD SWAP2 POP POP SWAP3 SWAP2 POP POP JUMP JUMPDEST PUSH0 PUSH1 0x20 DUP3 ADD SWAP1 POP DUP2 DUP2 SUB PUSH0 DUP4 ADD MSTORE PUSH2 0xB85 DUP2 DUP5 PUSH2 0xB35 JUMP JUMPDEST SWAP1 POP SWAP3 SWAP2 POP POP JUMP JUMPDEST PUSH32 0x4E487B7100000000000000000000000000000000000000000000000000000000 PUSH0 MSTORE PUSH1 0x11 PUSH1 0x4 MSTORE PUSH1 0x24 PUSH0 REVERT JUMPDEST PUSH0 PUSH2 0xBC4 DUP3 PUSH2 0x901 JUMP JUMPDEST SWAP2 POP PUSH2 0xBCF DUP4 PUSH2 0x901 JUMP JUMPDEST SWAP3 POP DUP3 DUP3 MUL PUSH2 0xBDD DUP2 PUSH2 0x901 JUMP JUMPDEST SWAP2 POP DUP3 DUP3 DIV DUP5 EQ DUP4 ISZERO OR PUSH2 0xBF4 JUMPI PUSH2 0xBF3 PUSH2 0xB8D JUMP JUMPDEST JUMPDEST POP SWAP3 SWAP2 POP POP JUMP JUMPDEST PUSH32 0x4F6E6C7920746865206F7267616E697A65722063616E20706572666F726D2074 PUSH0 DUP3 ADD MSTORE PUSH32 0x68697320616374696F6E00000000000000000000000000000000000000000000 PUSH1 0x20 DUP3 ADD MSTORE POP JUMP JUMPDEST PUSH0 PUSH2 0xC55 PUSH1 0x2A DUP4 PUSH2 0xB07 JUMP JUMPDEST SWAP2 POP PUSH2 0xC60 DUP3 PUSH2 0xBFB JUMP JUMPDEST PUSH1 0x40 DUP3 ADD SWAP1 POP SWAP2 SWAP1 POP JUMP JUMPDEST PUSH0 PUSH1 0x20 DUP3 ADD SWAP1 POP DUP2 DUP2 SUB PUSH0 DUP4 ADD MSTORE PUSH2 0xC82 DUP2 PUSH2 0xC49 JUMP JUMPDEST SWAP1 POP SWAP2 SWAP1 POP JUMP JUMPDEST PUSH32 0x496E73756666696369656E74207061796D656E74000000000000000000000000 PUSH0 DUP3 ADD MSTORE POP JUMP JUMPDEST PUSH0 PUSH2 0xCBD PUSH1 0x14 DUP4 PUSH2 0xB07 JUMP JUMPDEST SWAP2 POP PUSH2 0xCC8 DUP3 PUSH2 0xC89 JUMP JUMPDEST PUSH1 0x20 DUP3 ADD SWAP1 POP SWAP2 SWAP1 POP JUMP JUMPDEST PUSH0 PUSH1 0x20 DUP3 ADD SWAP1 POP DUP2 DUP2 SUB PUSH0 DUP4 ADD MSTORE PUSH2 0xCEA DUP2 PUSH2 0xCB1 JUMP JUMPDEST SWAP1 POP SWAP2 SWAP1 POP JUMP JUMPDEST PUSH0 PUSH2 0xCFB DUP3 PUSH2 0x901 JUMP JUMPDEST SWAP2 POP PUSH2 0xD06 DUP4 PUSH2 0x901 JUMP JUMPDEST SWAP3 POP DUP3 DUP3 ADD SWAP1 POP DUP1 DUP3 GT ISZERO PUSH2 0xD1E JUMPI PUSH2 0xD1D PUSH2 0xB8D JUMP JUMPDEST JUMPDEST SWAP3 SWAP2 POP POP JUMP JUMPDEST PUSH32 0x4E6F7420656E6F756768207469636B65747320617661696C61626C6500000000 PUSH0 DUP3 ADD MSTORE POP JUMP JUMPDEST PUSH0 PUSH2 0xD58 PUSH1 0x1C DUP4 PUSH2 0xB07 JUMP JUMPDEST SWAP2 POP PUSH2 0xD63 DUP3 PUSH2 0xD24 JUMP JUMPDEST PUSH1 0x20 DUP3 ADD SWAP1 POP SWAP2 SWAP1 POP JUMP JUMPDEST PUSH0 PUSH1 0x20 DUP3 ADD SWAP1 POP DUP2 DUP2 SUB PUSH0 DUP4 ADD MSTORE PUSH2 0xD85 DUP2 PUSH2 0xD4C JUMP JUMPDEST SWAP1 POP SWAP2 SWAP1 POP JUMP JUMPDEST PUSH32 0x4E487B7100000000000000000000000000000000000000000000000000000000 PUSH0 MSTORE PUSH1 0x32 PUSH1 0x4 MSTORE PUSH1 0x24 PUSH0 REVERT JUMPDEST PUSH0 PUSH2 0xDC3 DUP3 PUSH2 0x901 JUMP JUMPDEST SWAP2 POP PUSH2 0xDCE DUP4 PUSH2 0x901 JUMP JUMPDEST SWAP3 POP DUP3 DUP3 SUB SWAP1 POP DUP2 DUP2 GT ISZERO PUSH2 0xDE6 JUMPI PUSH2 0xDE5 PUSH2 0xB8D JUMP JUMPDEST JUMPDEST SWAP3 SWAP2 POP POP JUMP JUMPDEST PUSH32 0x496E76616C6964207469636B657420696E646578000000000000000000000000 PUSH0 DUP3 ADD MSTORE POP JUMP JUMPDEST PUSH0 PUSH2 0xE20 PUSH1 0x14 DUP4 PUSH2 0xB07 JUMP JUMPDEST SWAP2 POP PUSH2 0xE2B DUP3 PUSH2 0xDEC JUMP JUMPDEST PUSH1 0x20 DUP3 ADD SWAP1 POP SWAP2 SWAP1 POP JUMP JUMPDEST PUSH0 PUSH1 0x20 DUP3 ADD SWAP1 POP DUP2 DUP2 SUB PUSH0 DUP4 ADD MSTORE PUSH2 0xE4D DUP2 PUSH2 0xE14 JUMP JUMPDEST SWAP1 POP SWAP2 SWAP1 POP JUMP JUMPDEST PUSH32 0x4E487B7100000000000000000000000000000000000000000000000000000000 PUSH0 MSTORE PUSH1 0x22 PUSH1 0x4 MSTORE PUSH1 0x24 PUSH0 REVERT JUMPDEST PUSH0 PUSH1 0x2 DUP3 DIV SWAP1 POP PUSH1 0x1 DUP3 AND DUP1 PUSH2 0xE98 JUMPI PUSH1 0x7F DUP3 AND SWAP2 POP JUMPDEST PUSH1 0x20 DUP3 LT DUP2 SUB PUSH2 0xEAB JUMPI PUSH2 0xEAA PUSH2 0xE54 JUMP JUMPDEST JUMPDEST POP SWAP2 SWAP1 POP JUMP JUMPDEST PUSH0 DUP2 MLOAD SWAP1 POP PUSH2 0xEBF DUP2 PUSH2 0xA95 JUMP JUMPDEST SWAP3 SWAP2 POP POP JUMP JUMPDEST PUSH0 PUSH1 0x20 DUP3 DUP5 SUB SLT ISZERO PUSH2 0xEDA JUMPI PUSH2 0xED9 PUSH2 0x932 JUMP JUMPDEST JUMPDEST PUSH0 PUSH2 0xEE7 DUP5 DUP3 DUP6 ADD PUSH2 0xEB1 JUMP JUMPDEST SWAP2 POP POP SWAP3 SWAP2 POP POP JUMP INVALID LOG2 PUSH5 0x6970667358 0x22 SLT KECCAK256 PUSH0 PUSH22 0x1D9E714C985B28B3C0753F83040CA1B0914DC4D80456 PUSH17 0x6B22DFF6EDE8FA64736F6C634300081900 CALLER "
				},
				"gasEstimates": {
					"creation": {
						"codeDepositCost": "775600",
						"executionCost": "infinite",
						"totalCost": "infinite"
					},
					"external": {
						"calculateTotalPrice(uint256,uint256)": "infinite",
						"eventId()": "2426",
						"eventName()": "infinite",
						"getAvailableTickets()": "infinite",
						"getTicketOwner(uint256)": "infinite",
						"organizer()": "2616",
						"price()": "2491",
						"sellTickets(uint256)": "infinite",
						"tickets(uint256)": "infinite",
						"ticketsSold()": "2469",
						"totalTickets()": "2535",
						"transferTicket(uint256,address)": "infinite"
					}
				},
				"methodIdentifiers": {
					"calculateTotalPrice(uint256,uint256)": "12a076b9",
					"eventId()": "089cdd0c",
					"eventName()": "8043c9c0",
					"getAvailableTickets()": "5a8acacc",
					"getTicketOwner(uint256)": "ad093409",
					"organizer()": "61203265",
					"price()": "a035b1fe",
					"sellTickets(uint256)": "3f6d558b",
					"tickets(uint256)": "50b44712",
					"ticketsSold()": "8f15024f",
					"totalTickets()": "dd11247e",
					"transferTicket(uint256,address)": "679ebf1a"
				}
			},
			"storageLayout": {
				"storage": [
					{
						"astId": 4,
						"contract": "contracts/Event.sol:EventManager",
						"label": "organizer",
						"offset": 0,
						"slot": "0",
						"type": "t_address"
					},
					{
						"astId": 6,
						"contract": "contracts/Event.sol:EventManager",
						"label": "eventId",
						"offset": 0,
						"slot": "1",
						"type": "t_uint256"
					},
					{
						"astId": 8,
						"contract": "contracts/Event.sol:EventManager",
						"label": "eventName",
						"offset": 0,
						"slot": "2",
						"type": "t_string_storage"
					},
					{
						"astId": 10,
						"contract": "contracts/Event.sol:EventManager",
						"label": "totalTickets",
						"offset": 0,
						"slot": "3",
						"type": "t_uint256"
					},
					{
						"astId": 12,
						"contract": "contracts/Event.sol:EventManager",
						"label": "ticketsSold",
						"offset": 0,
						"slot": "4",
						"type": "t_uint256"
					},
					{
						"astId": 14,
						"contract": "contracts/Event.sol:EventManager",
						"label": "price",
						"offset": 0,
						"slot": "5",
						"type": "t_uint256"
					},
					{
						"astId": 18,
						"contract": "contracts/Event.sol:EventManager",
						"label": "tickets",
						"offset": 0,
						"slot": "6",
						"type": "t_array(t_contract(Ticket)304)dyn_storage"
					},
					{
						"astId": 29,
						"contract": "contracts/Event.sol:EventManager",
						"label": "ticketsOfUser",
						"offset": 0,
						"slot": "7",
						"type": "t_mapping(t_address,t_array(t_uint256)dyn_storage)"
					}
				],
				"types": {
					"t_address": {
						"encoding": "inplace",
						"label": "address",
						"numberOfBytes": "20"
					},
					"t_array(t_contract(Ticket)304)dyn_storage": {
						"base": "t_contract(Ticket)304",
						"encoding": "dynamic_array",
						"label": "contract Ticket[]",
						"numberOfBytes": "32"
					},
					"t_array(t_uint256)dyn_storage": {
						"base": "t_uint256",
						"encoding": "dynamic_array",
						"label": "uint256[]",
						"numberOfBytes": "32"
					},
					"t_contract(Ticket)304": {
						"encoding": "inplace",
						"label": "contract Ticket",
						"numberOfBytes": "20"
					},
					"t_mapping(t_address,t_array(t_uint256)dyn_storage)": {
						"encoding": "mapping",
						"key": "t_address",
						"label": "mapping(address => uint256[])",
						"numberOfBytes": "32",
						"value": "t_array(t_uint256)dyn_storage"
					},
					"t_string_storage": {
						"encoding": "bytes",
						"label": "string",
						"numberOfBytes": "32"
					},
					"t_uint256": {
						"encoding": "inplace",
						"label": "uint256",
						"numberOfBytes": "32"
					}
				}
			},
			"userdoc": {
				"kind": "user",
				"methods": {},
				"version": 1
			}
		}
	}
}